:020000040800F2
:1000000008090020390200081B1500080511000826
:10001000191500082F0400085D1A000800000000F0
:10002000000000000000000000000000B7190008F8
:100030003104000800000000B5190008B9190008D3
:10004000530200085302000853020008530200083C
:10005000530200085302000853020008530200082C
:10006000530200085302000853020008530200081C
:10007000530200085302000853020008530200080C
:100080005302000853020008530200080000000059
:100090000000000000000000000000005302000803
:1000A00053020008530200085302000853020008DC
:1000B00053020008530200085302000853020008CC
:1000C00053020008530200085302000853020008BC
:1000D0005302000853020008530200080000000009
:1000E00053020008530200085302000800000000F9
:1000F00000000000000000000000000053020008A3
:1001000000000000530200085302000853020008D8
:1001100000000000000000000000000000000000DF
:10012000530200085302000853020008530200085B
:100130005302000800000000000000000000000062
:100140000000000000000000000000005302000852
:10015000530200085302000853020008530200082B
:1001600053020008530200080000000000000000D5
:10017000000000000000000000000000000000007F
:100180000000000053020008000000000000000012
:10019000530200085302000800F002F800F03CF897
:1001A0000AA090E8000C82448344AAF10107DA45D2
:1001B00001D100F031F8AFF2090EBAE80F0013F0E8
:1001C000010F18BFFB1A43F0010318473834000031
:1001D00058340000103A24BF78C878C1FAD85207C2
:1001E00024BF30C830C144BF04680C6070470000B1
:1001F0000023002400250026103A28BF78C1FBD830
:10020000520728BF30C148BF0B6070471FB501F0CF
:1002100083FC1FBD10B510BD00F0CFF81146FFF7ED
:10022000F5FF01F02DFC00F0EDF803B4FFF7F2FF4D
:1002300003BC00F0F5F80000094880470948004772
:10024000FEE7FEE7FEE7FEE7FEE7FEE7FEE7FEE786
:10025000FEE7FEE704480549054A064B70470000E3
:100260004D1A000899010008080300200809002021
:10027000080500200805002053EA020C00F0698000
:100280002DE9F04B4FF00006002B1FBFB3FA83F5AA
:1002900003FA05F424FA05F65E4012BF1643B2FADB
:1002A00082F502FA05F4C5F120051EBF22FA05FC0D
:1002B00044EA0C04203556EA044C4FEA144418BFB3
:1002C000641C4FF000084FF00009904271EB030CE2
:1002D00039D3002919BFB1FA81F701FA07F6B0FA4C
:1002E00080F700FA07F6C7F120071EBF20FA07FCC7
:1002F00046EA0C062037B6FBF4FCA7EB0507103FD7
:1003000007F01F0BCBF120060CFA0BFB2CFA06F6BC
:1003100044BFB3460026202FA4BF5E464FF0000B1B
:100320005BEA060C08BF4FF0010B19EB0B09ABFBA6
:10033000027C48EB0608C01B06FB02CC0BFB03CC7F
:1003400071EB0C01C1E70B46024641464846BDE849
:10035000F08B13B54FF000004FF00001AFF30080B9
:10036000BDE81C4070474FF0000200B513469446AC
:100370009646203922BFA0E80C50A0E80C50B1F1FD
:100380002001BFF4F7AF090728BFA0E80C5048BF11
:100390000CC05DF804EB890028BF40F8042B08BFAF
:1003A000704748BF20F8022B11F0804F18BF00F8AB
:1003B000012B7047704770477047754600F02CF866
:1003C000AE4605006946534620F00700854618B042
:1003D00020B5FFF73FFFBDE820404FF000064FF08B
:1003E00000074FF000084FF0000B21F00701AC466A
:1003F000ACE8C009ACE8C009ACE8C009ACE8C00989
:100400008D46704710B50446AFF300802046BDE826
:100410001040FFF70ABF000000487047A402002008
:1004200001491820ABBEFEE7260002007047FEE738
:10043000704772B6FEE7000070B5044600F004F99C
:100440000546601C02D004480078044400F0FCF823
:10045000401BA042FAD370BD000000202DE9F84FE8
:10046000DFF8B8A1002201240AF1040B03254FF0A4
:100470000F090BF1040E00BF0B6804FA02F63340BB
:10048000B34273D10F7907F00307012F01D0022F78
:1004900016D187684FEA420805FA08FC27EA0C07DC
:1004A000D1F80CC00CFA08FC4CEA070CC0F808C0E4
:1004B0004768B7430E79C6F3001696403E43466040
:1004C0000E79F643B6070DD0C768560005FA06FC4C
:1004D00027EA0C07D1F808C00CFA06FC4CEA070C16
:1004E000C0F80CC00E7906F00306022E10D1D60813
:1004F00000EB8608D8F8206057074FEAD76C09FA56
:100500000CF7BE430F6907FA0CF73743C8F82070A1
:1005100006684FEA420C05FA0CF7BE430F7907F064
:10052000030707FA0CF7374307604E6816F4403F9D
:100530006DD03B4E376847F480473760366822F00D
:10054000030706F480460096364E07EB060CDCF8EF
:10055000086897073F0F09FA07F826EA0806DFF848
:10056000C880404503D14FF000081EE04FE0DFF89F
:10057000BC80404502D14FF0010816E0DFF8B080A2
:10058000404502D14FF002080FE0DFF8A880404557
:1005900002D14FF0030808E0DFF89C80404502D10B
:1005A0004FF0040801E04FF0070808FA07F848EA9E
:1005B0000608CCF80888DAF800605746D1F804C07D
:1005C0009E435FEACC3C00D51E433E60DBF80060F2
:1005D0005F46D1F804C09E435FEA8C3C00D51E43C1
:1005E0003E60DEF800607746D1F804C09E435FEAC3
:1005F000CC2C00D51E433E60084F0C373E68D1F826
:1006000004C09E435FEA8C2C00D51E433E60521C02
:10061000102AFFF431AFBDE8F88F0000003C014024
:100620004438024000300140000002400004024013
:1006300000080240000C0240001002400AB1816133
:1006400070470904FBE7000001488068704700001C
:100650000000002070B5040025D094F83D0000256E
:1006600020B984F83C50204600F0E6F9242084F8B4
:100670003D002068016821F00101016020680168E7
:1006800041F4004101602068016821F400410160EB
:1006900000F02CFB4D4A6168914201D84C4900E0C2
:1006A0004C49884201D2012070BD4B492368B0FB00
:1006B000F1F15E6826F03F060E435E606368934288
:1006C00006D94FF4967359434FF47A73B1FBF3F1A3
:1006D0002368491C1E6A26F03F063143196261688F
:1006E000914210D84900401EB0FBF1F2521CC2F3F7
:1006F0000B02042A01D2042022E0B0FBF1F0401CDE
:10070000C0F30B001CE0A268F2B301EBC10303EBE2
:100710000116431EB3FBF6F35B1C43F480431B0539
:1007200049D092B301EBC10202EB0111401EB0FBB4
:10073000F1F0401CC0F30B0040F4804040F4004056
:100740002168CA694CF6FF739A431043C861D4E923
:10075000071001432068026822F0C00211430160C3
:10076000D4E9030101432068826848F2FF339A43C9
:1007700011438160D4E9050108432168CA6822F069
:10078000FF021043C86001E00EE016E02068016837
:1007900041F0010101602564202084F83D002563BB
:1007A00084F83E50002070BD01EB4106431EB3FBB0
:1007B000F6F35B1CB3E70120C2E701EB4101401EE9
:1007C000B0FBF1F0401CC0F30B00B7E7A0860100BE
:1007D00080841E0000093D0040420F002DE9F84FC3
:1007E0001F4690468A460446DDF82890FFF72CFF06
:1007F000054694F83D0020287FD119230122404965
:100800002046009500F05EFD002876D194F83C006B
:10081000012872D0012084F83C0020680168C907D3
:1008200003D1016841F0010101602068016821F4F1
:1008300000610160212084F83D00102084F83E0012
:1008400000262664C4F824806785608D20852D48A5
:10085000E0622B464A465146204600F06BFC90B9B8
:10086000206841698069009036E02A464946204662
:1008700000F0A7FD50B1206C042804D12068016865
:1008800041F4007101600120BDE8F88F606A2168C1
:1008900000780861606A401C6062618D491E618554
:1008A000218D491E89B2218522685369DB435B078C
:1008B0000BD451B100781061606A401C6062608D99
:1008C000401E6085208D401E20852A4649462046D0
:1008D00000F0D2FC0028CED1208D0028C5D154F8DC
:1008E0003D0B016841F400710160202004F81E09ED
:1008F000E67766770020C7E7FFE70220C4E700003D
:10090000020010000000FFFF2DE9FF4F83B09A4660
:10091000DDE9119793460446DDF84080FFF794FE29
:10092000054694F83D0020287FD119230122404933
:100930002046009500F0C6FC002876D194F83C00D3
:10094000012872D0012084F83C0020680168C907A2
:1009500003D1016841F0010101602068016821F4C0
:1009600000610160212084F83D00402084F83E00B1
:1009700000262664C4F82480A4F82A90608D20857F
:100980002C48E062CDE9007553465A46204604994A
:1009900000F01EFC70B930E02A463946204600F0CF
:1009A00010FD58B1206C042804D12068016841F47E
:1009B00000710160012007B0BDE8F08F606A216816
:1009C00000780861606A401C6062218D491E89B20E
:1009D0002185628D521E628522685369DB435B0765
:1009E0000BD469B100781061606A401C6062208D90
:1009F000401E2085608D401E6085208D0028CBD153
:100A00002A463946204600F037FC0028CAD154F85F
:100A10003D0B016841F400710160202004F81E09BB
:100A2000E67766770020C6E7FFE70220C3E700000D
:100A3000020010000000FFFF10B586B0044614212C
:100A40006846FFF790FC13492068884220D112487D
:100A50000021026842F002020260006800F0020019
:100A60000590C02000901220CDE9010103200390E1
:100A70000420049069460948FFF7F0FC064810304E
:100A8000016841F400110160006800F40010059055
:100A900006B010BD0054004030380240000402404F
:100AA000024881680278114481607047000000208C
:100AB0000B4810B5016841F400710160016841F410
:100AC00080610160016841F480710160032000F0E1
:100AD00061F80F2000F006F800F024F8002010BDA7
:100AE000003C024070B50D4D04464FF47A712878F1
:100AF000B1FBF0F00A490968B1FBF0F000F0EEFA42
:100B000048B9102C07D200222146501E00F022F8CE
:100B100000206C6070BD012070BD0000000000204E
:100B20000C0000200A4808B5016841F480410160CA
:100B3000006800F4804000900548001F016841F003
:100B400080510160006800F08050009008BD0000F6
:100B500044380240F0B40E4B1B680C46C3F302232A
:100B6000C3F10705042D00D90425191D072901D259
:100B7000002300E0DB1E012606FA05F1491E214094
:100B800099409E40761E16403143F0BC00F067BF8E
:100B90000CED00E0064900F0070208684FF6FF037D
:100BA000184040EA0220034A1043086070470000E2
:100BB0000CED00E00000FA052DE9F0470E460500B7
:100BC00065D0DFF81481D8F80000F7B200F0070014
:100BD000B04207D288F80070D8F8000000F0070093
:100BE000B04254D128683D4C810712D5400703D547
:100BF000206840F4E05020602878000703D5206882
:100C000040F4604020602068A96820F0F0000843AC
:100C100020602878C0072DD030496868083901283D
:100C200012D0022813D0032811D00968890700299F
:100C30002DDA216821F0030101432160FFF704FD53
:100C4000814641F2883A0EE009688903EFE70968B6
:100C50008901ECE7FFF7F8FCA0EB0901514502D947
:100C60000320BDE8F0872068696800F00C00B0EB55
:100C7000810FEFD1D8F80010404601F00701B142D2
:100C800007D90770006800F00700B04201D00120CA
:100C9000E7E72878400705D52068E96820F4E050A8
:100CA000084320602878000706D52068296920F4C9
:100CB000604040EAC100206000F028F82168084A3E
:100CC000C1F30311515CC84006490860064800683A
:100CD000FFF708FF0020C4E7003C0240083802404C
:100CE000221B00080C0000200400002004480549D5
:100CF00000680968044AC1F38221515CC84070470A
:100D00000C00002008380240321B0008154810B5BE
:100D1000006810F00C02144813D01449042A0FD0B4
:100D2000082A0ED10F4C241F2268236802F03F02CC
:100D30005B0207D52068C0F38810A0FB010106E024
:100D4000084610BD2168C1F38811A1FB00010023F2
:100D5000FFF792FA2168C1F30141491C4900B0FB39
:100D6000F1F010BD083802400024F40040787D0105
:100D70002DE9F84F04006ED02078DFF84C93C007BF
:100D8000A9F104054AD009F104000168C1F3810109
:100D9000012908D00068C0F3810002280AD1D9F8DF
:100DA0000000400206D52868800337D56068002817
:100DB000E1D033E06068B0F5803F10D0B0F5A02FEF
:100DC000286810D020F480302860286820F4802023
:100DD00028606068A8B1FFF737FC06460DE0286878
:100DE00040F48030F4E740F480202860F7E700BF4B
:100DF000FFF72AFC801B642873D828688003F7D586
:100E00000CE0FFF721FC064605E000BFFFF71CFCE5
:100E1000801B6428F0D828688003F7D42078DFF896
:100E2000AC8280074FF0000A3ED5A748001D01683C
:100E300011F00C0F08D00068C0F3810002280BD11C
:100E4000D9F80000400207D42868800716D5E0686A
:100E5000012800D112E033E1E068B8B10120C8F800
:100E60000000FFF7F1FB064605E000BFFFF7ECFBD3
:100E7000801B0228C0D828688007F7D52868216918
:100E800020F0F80040EAC10028600DE0C8F800A09A
:100E9000FFF7DAFB064604E0FFF7D6FB801B0228CB
:100EA0001FD828688007F7D42078000722D5864FFE
:100EB00087486169703771B101210160FFF7C4FB98
:100EC000064604E0FFF7C0FB801B022809D83868FB
:100ED0008007F7D50EE0C0F800A0FFF7B5FB064687
:100EE00005E082E0FFF7B0FB801B02287DD8386860
:100EF0008007F7D42078400768D5DFF8CCB1002709
:100F00000BF13C0BDBF80000C0000BD4DBF8001049
:100F100041F08051CBF80010DBF80000012700F011
:100F2000805000906B4E3068C00510D4306840F49B
:100F300080703060FFF788FB009005E0FFF784FBCE
:100F40000099401A022850D83068C005F6D55E4E88
:100F5000A0686C3601280FD00528306810D020F02A
:100F600001003060306820F004003060A068B8B143
:100F7000FFF76AFB00900FE0306840F00100F4E7F3
:100F800040F004003060F7E7FFF75EFB0099411A7C
:100F900041F28830814266D830688007F4D50EE08F
:100FA000FFF752FB009007E0FFF74EFB0099411A54
:100FB00041F28830814256D830688007F4D42FB18E
:100FC000DBF8001021F08051CBF80010A069C8B305
:100FD0003D49091D0968C1F3810102294AD002284F
:100FE000504607D0C8F8600000E03CE0FFF72CFB5B
:100FF00004463BE04746C8F86000FFF725FB06467D
:1010000005E000BFFFF720FB801B02282BD82868D3
:101010008001F7D4D4E907010843A16A2E4A4908A0
:1010200002EB0141626A41EA8211084394F82C10F4
:1010300040EA0161C9F8001001203866FFF704FB9F
:10104000044606E03EE000BFFFF7FEFA001B022860
:1010500009D828688001F7D534E000BFFFF7F4FA1B
:10106000001B022802D90320BDE8F88F2868800100
:10107000F4D427E00128F7D0D9F80000E26900F4A1
:10108000800191421CD1226A00F03F01914217D1A8
:1010900047F6C071626A0140B1EB821F10D1A26AAB
:1010A0004FF0FF3300F4403103EB5202B1EB024F3B
:1010B00006D194F82C1000F07060B0EB016F01D0F5
:1010C0000120D1E70020CFE704380240000047426A
:1010D000800E4742007000400000FFFF10B5401E28
:1010E000B0F1807F01D3012010BD4FF0E02460619A
:1010F0000F21601700F0B3FC0020A06107202061E1
:10110000002010BDFEE701684A69D24352050FD4A2
:101110006FF480624A61002140F8301F2022427340
:101120008173026942F00402026101730120704779
:1011300000207047F8B50446C06A1E460D461746A3
:10114000082807D0012805D010F5803F02D0206B79
:10115000122804D12068016841F4807101601346AF
:1011600000224FF001112046009600F0ABF840B18C
:1011700020680068C00502D54FF400702064032089
:10118000F8BD2069B0F5804F0ED00620216800EA36
:10119000D51040F0F000086133463A460B4920462E
:1011A00000F0C4F878B902E005F0FE0000E0E8B213
:1011B00021680861054933463A46891F204600F0F8
:1011C000B5F80028DCD00120F8BD000008000100BF
:1011D0002DE9F843044600680D46DDE908970168EB
:1011E0009846164641F4807101604B4600224FF04C
:1011F00001112046009700F065F848B120680068AA
:10120000C00502D54FF4007020640320BDE8F883C8
:10121000216805F0FE0008613B464A461549204614
:1012200000F084F888B920684169806900903A46E6
:101230004946204600F0C5F848B1206C042804D186
:101240002068016841F4007101600120DEE7F5B219
:10125000B8F1010F09D02168300A08613A464946C1
:10126000204600F0AEF80028E7D120680561002094
:10127000CCE700000200010070B516460D4604469A
:101280000DE02046FFF73FFF08B1012070BD681C4C
:1012900005D0FFF7D9F9801BA84207D835B12068DF
:1012A0004069C0434007ECD4002070BD002044F8E2
:1012B000300F20216173A073216941F02001216169
:1012C0002073E2E72DE9F0471E4690460D4604469E
:1012D000C1F30747DDF8209008E0701C06D0FFF747
:1012E000B3F9A0EB0900B0420FD876B12068012F06
:1012F00018D0806925EA00000004000C14D00021F9
:101300004145EAD00020BDE8F087002044F8300FC6
:1013100020216173A073216941F0200121612073B4
:101320000120F0E74069E5E70121E9E72DE9F04711
:101330009A4691460E46044600254FF02008C1F318
:10134000074725E020684069C043400514D4206861
:10135000016841F40071016021686FF480604861A8
:10136000256384F83D8084F83E50206C40F00400F2
:10137000206484F83C501FE0B9F1FF3F08D0FFF72C
:1013800063F9A0EB0A0149450CD8B9F1000F09D067
:101390002068012F13D0806926EA00000004000CA9
:1013A0000BD0CFE744F8305F84F80D80A573206937
:1013B00040F02000206125730120BDE8F0874069DE
:1013C000EAE770B516460D4604460DE02046FFF7E5
:1013D0009AFE08B1012070BD681C05D0FFF734F9F2
:1013E000801BA84207D835B120684069C043000679
:1013F000ECD4002070BD002044F8300F2021617330
:10140000A073216941F0200121612073E2E700000F
:101410002DE9F0410B4F0C4605464FF400560022D3
:1014200031463846FFF70AF9681EFFF705F8012232
:1014300031463846FFF702F9601EBDE8F041FEF77D
:10144000FBBF000000080240F0B587B014216846D9
:10145000FEF789FF1D480024016841F00401016086
:10146000016801F004010591016841F0800101600B
:10147000016801F080010591016841F002010160FD
:101480000068134E00F002004FF400550590002252
:1014900029463046FFF7D2F80E4F00222021384669
:1014A000FFF7CCF800950125CDE901546946304697
:1014B0000394FEF7D3FF20200090CDE90154694644
:1014C00038460394FEF7CAFF07B0F0BD303802403B
:1014D00000080240000402400D4810B50B490160AD
:1014E0000C49416000214FF480428160C0E9031241
:1014F00041618161C1610162FFF7ACF8002803D04E
:10150000BDE81040FEF795BF10BD0000005400403C
:1015100010000020801A0600FEE7FEE730B400212C
:10152000084B0A465FF0000003EB8004401CC0B289
:1015300062548028F8D3491CC9B20429F2D330BCC4
:1015400000F0B6B86400002030B1012807D10021B6
:101550005FF0A70000F01EBA0021A620FAE770474E
:1015600010B558B1012810D10021C02000F012FAA6
:101570000021A020BDE8104000F00CBA0021C820D6
:1015800000F008FA0021A120F4E710BD30B5CC0826
:1015900001F0070301259D40EBB2064D05EB8005E8
:1015A000C808285C0AB1184302E063EA0000C0439F
:1015B000285530BD6400002010B53C4C002220218D
:1015C0002046FFF73BF80A20FEF736FF01222021D4
:1015D0002046FFF733F83220FEF72EFF0021AE2021
:1015E00000F0D8F90021084600F0D4F900211020BD
:1015F00000F0D0F90021084600F0CCF90021B0201D
:1016000000F0C8F90021812000F0C4F90021FF207A
:1016100000F0C0F90021A12000F0BCF90021A620B3
:1016200000F0B8F90021A82000F0B4F900211F2033
:1016300000F0B0F90021C82000F0ACF90021D3205F
:1016400000F0A8F90021084600F0A4F90021D520F7
:1016500000F0A0F90021802000F09CF90021D920A1
:1016600000F098F900211F2000F094F90021DA2001
:1016700000F090F90021084600F08CF90021DB20F1
:1016800000F088F90021402000F084F900218D202D
:1016900000F080F90021142000F07CF9FFF73EFFF4
:1016A0000021BDE81040AF2000F074B900040240F2
:1016B00070B5A4B0184E00240DF10C0504F1B00073
:1016C000C0B2002100F066F90021084600F062F97E
:1016D0000021102000F05EF95FF0000006EB8001B1
:1016E000095D2954401CC0B28028F7D332208021E4
:1016F0000095CDE901100123402278210748FFF72A
:1017000003F9022802D10548FEF7A4FF641CE4B2E5
:10171000042CD3D324B070BD64000020100000203E
:1017200008B50026234C91460F46804635461023C7
:10173000324608218020CDF8009000F0C3F8761CD6
:10174000F6B246451AD1002614E00121002004EB30
:10175000810202EB000C135C401CC0B20CF8043C8C
:101760000428F6D3491CC9B29029EFD3FFF7A0FF94
:10177000761CF6B2B6EB071FE7D300266D1CEDB260
:10178000102D00D100250121002004EB810202EB85
:10179000000C135C401CC0B20CF8043C0428F6D3C7
:1017A000491CC9B29029EFD3FFF782FF002DC8D1A1
:1017B000BDE70000640000201CB578218DF80410FE
:1017C00081218DF805108DF806000A200090032372
:1017D00001AA78210148FFF701F81CBD1000002084
:1017E0002DE9FC4F1C460E4682468B460190082B85
:1017F0000ED0600700D0012000EBD400610810FB80
:1018000001F0C0B28146203AD0B2009000204AE0F8
:101810000620F7E7082C12D00C2C17D0102C1AD069
:10182000182C43D10098234900EBC00001EB800144
:10183000002711F80850E80712D00B9A13E000981F
:101840001D4900EB400001EB4001F1E700981B4906
:1018500000EB4000EAE71A49009801EB0011E7E7C6
:101860000B9828B3002231465046FFF78FFE761CB6
:101870007F1C6D08FFB2F6B2082FDCD30AF101001D
:1018800000F0FF0A082C0AD00199AAEB0100B0EB86
:10189000540F04D10BF108008A4600F0FF0B08F149
:1018A00001005E46C0B280464845B3D3BDE8FC8F18
:1018B0000122D8E7C62700083A1B0008621D00086D
:1018C000D62100082DE9FF4F81B08246009098464E
:1018D0000C468B46580701D0012100E0002101EBA6
:1018E000D80111FB08F900252DE000BFB8F1100F59
:1018F0002BD118490398002601EB4010475DF807EB
:1019000001D00E9A02E00E9810B3002221465046F4
:10191000FFF73CFE641C761C7F08F6B2E4B2082E8A
:10192000EDD30AF10100009900F0FF0AAAEB0101D2
:10193000414505D10BF10800DDF800A000F0FF0BD8
:101940006D1C5C46ADB24D45D0D305B0BDE8F08FFF
:101950000122DBE7223500082DE9F8411E46154635
:1019600088460446079F0BE03346414620460097D1
:10197000FFF736FF082E0AD004EB5600C4B26D1CE8
:101980002A78A2F120005E28EED9BDE8F881A41DD6
:10199000E4B2F4E71CB502238DF804108DF80500BD
:1019A0000A20009001AA78210148FEF717FF1CBD0C
:1019B0001000002070477047FFF772B830B593B041
:1019C00030216846FEF7CFFC14210CA8FEF7CBFCB3
:1019D0001C480025016841F080510160006800F05A
:1019E000805011901848016841F44041016000683E
:1019F000022400F440401190012000900004019066
:101A00008001CDE906400C2008906020CDE9090452
:101A100004200B906846FFF7ABF908B172B6FEE7F9
:101A20000CA90F2081E831004FF48050CDE90F055B
:101A300003210CA8FFF7C0F8002801D072B6FEE71A
:101A400013B030BD403802400070004002480168C9
:101A500041F470010160704788ED00E0FEE709077E
:101A6000090E002804DB00F1E02080F80014704724
:101A700000F00F0000F1E02080F8141D7047000016
:101A800008B5FFF715F8FFF799FFFFF7DDFCFFF743
:101A900023FDFFF791FD8020FFF78EFE0020FFF76A
:101AA00053FD0020FFF75CFD002010230FA204214E
:101AB0000090FFF751FF01200090082310A2182189
:101AC0000020FFF749FFFFF7F3FD4FF4FA60FEF740
:101AD000B3FC012203210720FFF722FE4FF44874D4
:101AE00021461420FFF794FCFAE7000020205765F8
:101AF0004163742053747564696F202000000000F6
:101B00004F4C4544204D6F64756C652C4949432CFE
:101B100035564D61780000004FF04070E1EE100A3C
:101B200070470000000000000000010203040607E7
:101B3000080900000000010203040000000000008A
:101B40000000002F000000000700070000147F14B1
:101B50007F1400242A7F2A120062640813230036AF
:101B60004955225000000503000000001C224100DE
:101B7000000041221C000014083E08140008083E22
:101B80000808000000A0600000080808080800001D
:101B900060600000002010080402003E5149453EEC
:101BA0000000427F4000004261514946002141450A
:101BB0004B31001814127F10002745454539003C71
:101BC0004A4949300001710905030036494949363F
:101BD00000064949291E000036360000000056362E
:101BE0000000000814224100001414141414000012
:101BF0004122140800020151090600324959513EA0
:101C0000007C1211127C007F49494936003E414157
:101C10004122007F4141221C007F49494941007F08
:101C200009090901003E4149497A007F0808087FF7
:101C30000000417F4100002040413F01007F081427
:101C40002241007F40404040007F020C027F007F25
:101C50000408107F003E4141413E007F090909060A
:101C6000003E4151215E007F09192946004649493D
:101C700049310001017F0101003F4040403F001F0A
:101C80002040201F003F4038403F00631408146389
:101C900000070870080700615149454300007F4173
:101CA000410000552A552A55000041417F0000049B
:101CB00002010204004040404040000001020400D4
:101CC000002054545478007F484444380038444439
:101CD000442000384444487F0038545454180008C5
:101CE0007E0901020018A4A4A47C007F08040478E3
:101CF0000000447D4000004080847D00007F10286B
:101D000044000000417F4000007C04180478007CFF
:101D10000804047800384444443800FC242424187F
:101D20000018242418FC007C0804040800485454BB
:101D3000542000043F444020003C4040207C001CD4
:101D40002040201C003C4030403C004428102844E7
:101D5000001CA0A0A07C004464544C44141414142F
:101D6000141400000000000000000000000000004B
:101D7000FC000000000002000000000C020C020049
:101D800000000000000090D0BCD0BC900003000315
:101D900000001824FE448C000302070201001824EE
:101DA000D8B04C80000300010201C038E438E000E4
:101DB000010202010202080600000000000000000B
:101DC0000000000000F8040200000001020400020C
:101DD00004F800000004020100009060F860900028
:101DE0000000010000002020FC2020000000010075
:101DF0000000000000000000080600000000202095
:101E00002020200000000000000000000000000072
:101E10000002000000000080601C020004030000BB
:101E20000000F8040404F8000102020201000008A6
:101E3000FC00000000020302000018844424180083
:101E400003020202020008042424D8000102020254
:101E5000010040B088FC80000000000302003C2428
:101E60002424C400010202020100F824242CC00032
:101E70000102020201000C04E41C04000000030043
:101E80000000D8242424D8000102020201003844B2
:101E90004444F800000302020100000010000000AA
:101EA000000002000000000020000000000006000A
:101EB0000000002050880402000000000102909001
:101EC0009090900000000000000000020488502064
:101ED0000002010000001804C424180000000200E1
:101EE0000000F804E494F80001020202020000E09D
:101EF0009CF0800002030000030204FC2424D800AC
:101F0000020302020100F80404040C0001020202B0
:101F1000010004FC0404F80002030202010004FCB6
:101F200024740C0002030202030004FC24740C005D
:101F3000020302000000F0080444CC400001020249
:101F4000010004FC2020FC0402030000030204043E
:101F5000FC040400020203020200000404FC040466
:101F600006040403000004FC24D00C040203020055
:101F7000030204FC04000000020302020203FC3C12
:101F8000C03CFC0003000300030004FC30C4FC045C
:101F9000020302000300F8040404F8000102020234
:101FA000010004FC24241800020302000000F8844D
:101FB0008404F80001020207050004FC2464980070
:101FC000020302000302182424448C0003020202CC
:101FD00001000C04FC040C0000020302000004FCDD
:101FE0000000FC04000102020100047C80E01C04EB
:101FF0000000030000001CE03CE01C0000030003A4
:102000000000049C609C0400020300030200041C06
:10201000E01C04000002030200000C84641C0400A5
:102020000203020203000000FE0202000000070497
:102030000400000E30C00000000000010200000299
:1020400002FE000000040407000000040204000077
:102050000000000000000000000000000808080860
:10206000080800000200000000000000000000401E
:10207000A0A0C00000010202030204FC2020C00056
:1020800000030202010000C02020600000010202E3
:10209000020000C02024FC0000010202030200C074
:1020A000A0A0C0000001020202000020F8242404C5
:1020B0000002030202000040A0A0602000070A0AFC
:1020C0000A0404FC2020C0000203020003020020D6
:1020D000E4000000000203020000000020E4000011
:1020E00008080807000004FC80E02020020302002A
:1020F00003020404FC000000020203020200E020CC
:10210000E020C00003000300030020E02020C00006
:1021100002030200030200C02020C00000010202EE
:10212000010020E02020C000080F0A02010000C0CA
:102130002020E0000001020A0F0820E040202000DB
:102140000203020000000060A0A0200000020202C2
:1021500003000020F820000000000102020020E03F
:102160000020E00000010202030220E02080602045
:102170000000030100006080E080600000030003B5
:10218000000020608060200002030003020020E0C5
:10219000208060200808070100000020A0602000C7
:1021A000000203020200000020DE0200000000071F
:1021B0000400000000FF00000000000F000000020B
:1021C000DE200000000407000000020102040402F7
:1021D00000000000000000000000000000000000FF
:1021E000000000000000000000F8000000000000F7
:1021F00000333000000000100C06100C0600000038
:1022000000000000000040C07840C0784000043F5B
:1022100004043F040400007088FC0830000000182B
:1022200020FF211E0000F008F000E018000000214F
:102230001C031E211E0000F00888700000001E21F3
:1022400023241927211010160E00000000000000A2
:10225000000000000000000000E018040200000080
:1022600000071820400000020418E00000000040B1
:10227000201807000000404080F08040400002022B
:10228000010F01020200000000F000000000010147
:10229000011F01010100000000000000000080B0EB
:1022A00070000000000000000000000000000001BD
:1022B00001010101010100000000000000000030E8
:1022C0003000000000000000000080601804006082
:1022D00018060100000000E010080810E000000FE0
:1022E000102020100F00001010F800000000002047
:1022F000203F20200000007008080888700000308F
:102300002824222130000030088888483000001836
:10231000202020110E000000C02010F8000000074F
:102320000424243F240000F80888880808000019C5
:10233000212020110E0000E0108888180000000FF6
:10234000112020110E0000380808C83808000000CD
:10235000003F000000000070880808887000001C22
:10236000222121221C0000E010080810E0000000DB
:10237000312222110F00000000C0C0000000000048
:10238000003030000000000000800000000000006D
:102390008060000000000000804020100800000164
:1023A0000204081020004040404040404000040427
:1023B00004040404040000081020408000000020F1
:1023C000100804020100007048080808F00000002E
:1023D000003036010000C030C828E810E0000718BF
:1023E000272423140B000000C038E0000000203C2C
:1023F00023020227382008F8888888700000203FD0
:10240000202020110E00C0300808080838000718E6
:1024100020202010080008F808080810E000203FDD
:10242000202020100F0008F88888E8081000203FBE
:1024300020202320180008F88888E8081000203F92
:10244000200003000000C03008080838000007180A
:102450002020221E020008F808000008F808203F8B
:10246000210101213F20000808F808080000002091
:10247000203F2020000000000808F8080800C08065
:1024800080807F00000008F888C028180800203FDE
:1024900020012638200008F8080000000000203F36
:1024A00020202020300008F8F800F8F80800203F2D
:1024B000003F003F200008F830C00008F808203F27
:1024C000200007183F00E01008080810E0000F1077
:1024D000202020100F0008F808080808F000203F0E
:1024E000210101010000E01008080810E0000F18A9
:1024F000242438504F0008F8888888887000203FCE
:102500002000030C302000708808080838000038CC
:10251000202121221C00180808F8080818000000D3
:10252000203F2000000008F808000008F808001FFD
:10253000202020201F000878880000C838080000EC
:1025400007380E010000F80800F80008F800033C06
:102550000700073C030008186880806818082030CE
:102560002C03032C30200838C800C83808000000AD
:10257000203F2000000010080808C8380800203854
:10258000262120201800000000FE020202000000A8
:10259000007F40404000000C30C000000000000000
:1025A00000010638C00000020202FE0000000040E8
:1025B00040407F000000000004020202040000000E
:1025C000000000000000000000000000000080800B
:1025D00080808080808000020204000000000000F3
:1025E00000000000000000008080808000000019D2
:1025F000242222223F2008F8008080000000003FB3
:10260000112020110E000000008080800000000ECC
:10261000112020201100000000808088F800000EAA
:10262000112020103F200000808080800000001FCB
:10263000222222221300008080F08888881800203F
:10264000203F202000000000808080808000006B00
:1026500094949493600008F8008080800000203FEC
:10266000210000203F2000809898000000000020FA
:10267000203F20200000000000809898000000C04B
:102680008080807F000008F8000080808000203F6C
:1026900024022D302000000808F80000000000206F
:1026A000203F202000008080808080808000203FAC
:1026B00020003F20003F8080008080800000203F7D
:1026C000210000203F200000808080800000001F4B
:1026D000202020201F00808000808000000080FFDC
:1026E000A12020110E000000008080808000000EDC
:1026F000112020A0FF80808080008080800020202A
:102700003F21200001000000808080808000003395
:10271000242424241900008080E080800000000030
:10272000001F202000008080000000808000001F2B
:10273000202020103F2080808000008080800001C9
:102740000E300806010080800080008080800F30FD
:102750000C030C300F00008080008080800000207F
:10276000312E0E31200080808000008080808081AA
:102770008E7018060100008080808080800000211B
:10278000302C2221300000000000807C020200007A
:102790000000003F404000000000FF00000000007B
:1027A0000000FF0000000002027C800000000040EA
:1027B000403F000000000006010102020404000086
:1027C0000000000000000000000000000000000009
:1027D00000000000000000000000000000000000F9
:1027E000000000000000000000000000000000F0F9
:1027F000F0F0000000000000000000017F01000078
:10280000000000000000001C1C1C00000000000074
:102810008060301C8C60301C0C0000000000000048
:1028200000000000000000000000000000000000A8
:102830000000000000E00000000000E00000008652
:10284000E69F86868686E69F860000011F010101BD
:1028500001011F010100000080C06020F820E0C0DD
:102860000000000003070C18FF70E1810000000069
:10287000070F10107F100F0700008060206080009D
:102880000000E02000000F3020309F70DC37103057
:10289000C0000000100E0300071810180700000009
:1028A000C02020E0C0000000000080E01F38E88762
:1028B00003C43C040000070F1810100B070D101084
:1028C000080000808C4C3800000000000000000070
:1028D00000000000000000000000000000000000F8
:1028E00000000000000000000000000080E0300850
:1028F00004000000000000FEFF01000000000000D6
:1029000000000000030F1820400000040830E080A1
:102910000000000000000000000001FFFE000000B9
:102920000000004020180F0300000000000000001D
:1029300000000000C00000000000004266663C1875
:10294000FF183C6666420000000000000300000023
:1029500000000000000000008000000000000010E7
:1029600010101010FF1010101010000000000000D8
:102970000300000000000000000000000000000054
:1029800000000000000000000000000000000080C7
:102990008C4C380000000000000000000000000027
:1029A0000000000000000010101010101010101097
:1029B0001000000000000000000000000000000007
:1029C0000000000000000000000000000000000007
:1029D00000000000000000001C1C1C0000000000A3
:1029E00000000000000000000000E0380C000000C3
:1029F000000080701C03000000000060380E010021
:102A0000000000000000000080C060202060C08046
:102A1000000000FEFF010000000001FFFE000001B9
:102A2000070E181010180E0701000000808080C0EB
:102A3000E000000000000000000000FFFF000000B8
:102A4000000000001010101F1F1010100000008068
:102A5000402020202060C080000000030300804050
:102A600020381F070000001C1A1918181818181F02
:102A700000000080C020202060C080000000000313
:102A800003001010182FE780000000070F1010102F
:102A900010180F070000000000000000C0E0F00068
:102AA000000000C0B088868180FFFF8080000000A9
:102AB00000000010101F1F1010000000E060606098
:102AC00060606060000000003F1008080818F0E037
:102AD000000000070B101010101C0F030000000076
:102AE00080C040202020E0C0000000FCFF21100832
:102AF000080818F0E0000001070C18101010080F6B
:102B000003000000C0E06060606060E06000000002
:102B100003000000E0180700000000000000001F94
:102B20001F00000000000080C0602020202060C046
:102B300080000087EF2C1818303068CF8300000722
:102B40000F0810101010180F07000000C0C0202040
:102B50002020C0800000001F3F604040402010FF48
:102B6000FE0000000C1C101010080F0300000000F5
:102B70000000000000000000000000000000000E47
:102B80000E0E0000000000000000001C1C1C0000D5
:102B90000000000000000000000000000000000035
:102BA0000000000C0C0000000000000000000058B5
:102BB00038000000000000000000000000804020FD
:102BC00010000000102844820100000000000000F6
:102BD00000000000010204081000000000000000D6
:102BE0000000000000000084848484848484848441
:102BF0008400000000000000000000000000000051
:102C000010204080000000000000000000000000D4
:102C10000182442810000000100804020100000096
:102C2000000000C020201010101030E0C000000391
:102C3000030000F010080C070300000000001C1C3B
:102C40001C0000000000000000C040602020204068
:102C5000C00000FCFF01F00E03C1FE03807F0001F5
:102C6000070E08111110110904020000000080E095
:102C7000E000000000000000807C4340477FF880B7
:102C8000000010181F1000000000131F1C1020E08F
:102C9000E02020202060C080000000FFFF10101006
:102CA00010182FE78000101F1F1010101010180FA1
:102CB0000700000080C0402020202060E00000FCD1
:102CC000FF0100000000000001000001070E1810C5
:102CD00010100804030020E0E02020202040C080E5
:102CE000000000FFFF000000000001FFFE00101FB9
:102CF0001F10101018080E07010020E0E02020200F
:102D000020202060800000FFFF101010107C0000C9
:102D10000000101F1F10101010101018060020E0E7
:102D2000E020202020206060800000FFFF101010B5
:102D3000107C00000100101F1F10000000000000A8
:102D40000000000080C06020202040E0000000FC67
:102D5000FF0100004040C0C140400001070E1810B4
:102D600010100F0F000020E0E0200000000020E025
:102D7000E02000FFFF101010101010FFFF00101FC8
:102D80001F1000000000101F1F100000202020E076
:102D9000E020202000000000000000FFFF000000F5
:102DA000000000001010101F1F1010100000000085
:102DB0000000202020E0E020202000000000000093
:102DC00000FFFF0000000060E0808080C07F3F00C7
:102DD000000020E0E020000020A06020200000FF94
:102DE000FF30187CE3C000000000101F1F1000001F
:102DF00001131F1C181020E0E0200000000000005C
:102E0000000000FFFF000000000000000000101F95
:102E10001F10101010101018060020E0E0E0000055
:102E20000000E0E0E02000FF013FFEC0E01E01FFE7
:102E3000FF00101F1000031F0300101F1F1020E0D1
:102E4000E0C0000000000020E02000FF0003071C9D
:102E500078E08000FF00101F100000000000030F4A
:102E60001F00000080C060202060C080000000FEC5
:102E7000FF010000000000FFFE000001070E181017
:102E800010180C07010020E0E0202020202060C066
:102E9000800000FFFF2020202020301F0F00101F87
:102EA0001F100000000000000000000080C0602033
:102EB0002060C080000000FEFF010000000000FF55
:102EC000FE000001070E1111133C7C67210020E079
:102ED000E0202020202060C0800000FFFF10103084
:102EE000F0D0080F0700101F1F10000000030F1C78
:102EF00010100080C060202020204040E00000072B
:102F00000F0C1818303060E08100001F0C08101002
:102F10001010180F07008060202020E0E020202003
:102F200060800100000000FFFF00000000010000C1
:102F30000000101F1F100000000020E0E020000033
:102F400000000020E02000FFFF0000000000000063
:102F5000FF0000070F181010101010080700206065
:102F6000E0E02000000020E060200000077FF88003
:102F700000807C03000000000000071F1C07000009
:102F8000000020E0E02000E0E0200020E02000073A
:102F9000FFF8E01FFFFCE01F00000000031F03001C
:102FA000011F03000000002060E0A0000020E0609E
:102FB0002000000000038F7CF8C601000000001014
:102FC000181E130001171F1810002060E0E02000F9
:102FD000000020E06020000001073EF8E018070034
:102FE000000000000010101F1F10100000000080E3
:102FF0006020202020A0E0E0200000000000C0F0C1
:103000003E0F0300000000101C1F171010101018B6
:1030100006000000000000FC04040404040000009A
:10302000000000FF00000000000000000000007F22
:10303000404040404000000010E000000000000060
:10304000000000000000031C608000000000000081
:103050000000000000030C70800000000404040461
:1030600004FC0000000000000000000000FF000061
:103070000000000040404040407F00000000000091
:103080000010080C040C08100000000000000000F4
:103090000000000000000000000000000000000030
:1030A0000000000000000000000000000000000020
:1030B0000000000000000000000080808080808010
:1030C00080808080808000000004040808000000E8
:1030D00000000000000000000000000000000000F0
:1030E00000000000000000000000000000000000E0
:1030F000000000000000000098D844642424FCF87C
:103100000000000F1F18101010081F1F10180020BB
:10311000E0F000000000000000000000FFFF1808C1
:1031200004040CF8F00000001F0F18101010180F06
:10313000030000000000000000000000000000E0AC
:10314000F8180404043C3800000000030F0C1010B1
:103150001010080600000000000000000020E0F051
:10316000000000E0F81C04040408FFFF0000000356
:103170000F18101010081F0F0800000000000000BA
:103180000000000000000000E0F8484444444C788F
:1031900070000000030F0C1810101008040000004D
:1031A000000080C0602020E0C00000040404FFFF95
:1031B000040404040000000010101F1F1010100071
:1031C00000000000000000000000000000000000FF
:1031D00070F88C04048CF874040C007076CF8D8D1C
:1031E0008D89C87870000020E0F000000000000029
:1031F00000000000FFFF08040404FCF800000010B9
:103200001F1F100000101F1F1000000000000060B2
:103210006000000000000000040404FCFC0000004A
:10322000000000001010101F1F1010100000000000
:1032300000000000006060000000000000000404C6
:1032400004FCFC0000000000C0C08080C07F3F0084
:1032500000000020E0F0000000000000000000007E
:10326000FFFF80C0F41C0404000000101F1F1100A9
:10327000031F1C1010000000202020E0F0000000C0
:1032800000000000000000FFFF0000000000000040
:103290001010101F1F101010000000000000000090
:1032A00000000000000004FCFC0804FCFC0804FC16
:1032B000FC00101F1F10001F1F10001F1F10000018
:1032C000000000000000000000000004FCFC0808F2
:1032D0000404FCF8000000101F1F100000101F1F46
:1032E000100000000000000000000000000000E0EE
:1032F000F0180C04040C18F0E00000030F0C101080
:1033000010100C0F0300000000000000000000007F
:1033100000000004FCFC080404040CF8F000008029
:10332000FFFF889010101C0F030000000000000039
:1033300000000000000000E0F81C04040408F8FC91
:10334000000000030F1810109088FFFF800000009D
:1033500000000000000000000000040404FCFC1059
:103360000804040C0C001010101F1F101010000097
:10337000000000000000000000000000000000004D
:103380003078CCC48484840C1C0000001E181010FB
:103390001011190F06000000000000C0000000001E
:1033A000000000040404FFFF040404000000000007
:1033B00000000F1F1010100C0000000000000000A3
:1033C0000000000000000004FCFE00000004FCFE01
:1033D000000000000F1F181010081F0F0800000049
:1033E0000000000000000000000000040C3CFCC4D1
:1033F0000000C43C0C0400000000010F1E0E010080
:103400000000000000000000000000000000043C7C
:10341000FCC400E47CFC84807C040000071F0700DF
:1034200000071F070000000000000000000000006F
:1034300000000004041C7CE4C0341C0404000010E0
:10344000101C1601131F1C181000000000000000C3
:1034500000000000000000040C3CFCC400C43C045C
:1034600004000000C080C1370E0100000000000011
:103470000000000000000000000000001C0404C464
:10348000F47C1C0400000000101C1F171110101801
:103490000E0000000000000000F80C040000000016
:1034A0000000001028EF00000000000000000000F5
:1034B000003F60400000000000000000FF0000002E
:1034C0000000000000000000FF00000000000000FD
:1034D00000000000FF00000000000000040CF800E5
:1034E00000000000000000000000EF2810000000B5
:1034F0000000000040603F000000000000000018D5
:10350000060202040810202030080000000000001D
:1035100000000000000000000000000000000000AB
:1035200000001088C433809E909F909E20D817F092
:1035300010000100FF80403E02023E1088671867BD
:103540008000001088C4330040424242C2424242DE
:103550004000020100FF0000000040807F000000EA
:1035600000000000F888888888FF88888888F8002C
:10357000000000001F080808087F888888889F804E
:10358000F00080828282828282E2A2928A86828097
:103590008000000000000040807F0000000000006C
:1035A000000000040404040404FC040404040404EF
:1035B0000000202020202020203F2020202020202C
:1035C0002000008060F80740300FF888888888085D
:1035D0000800010000FF00000000FF0808080808BC
:1035E0000000100C2424A46425262424A4242414DC
:1035F0000C00404048494949497F4949494B4840A6
:1036000040000000243600080000002010000000E8
:10361000D40100083436000810000020F80800002B
:10362000F001000801000000100000000000000090
:043630000024F4007E
:040000050800019955
:00000001FF
