:020000040800F2
:10000000F01F0020AD01000813290008A5240008F6
:10001000112900087F0300081D4B000800000000A4
:10002000000000000000000000000000294A000855
:100030008103000800000000C12C0008634A00088A
:10004000C7010008C7010008C7010008C701000870
:10005000C7010008C7010008C7010008C701000860
:10006000C7010008C7010008C7010008C701000850
:10007000C7010008C7010008C7010008C701000840
:10008000C7010008C7010008C70100080000000000
:10009000000000000000000000000000C701000890
:1000A000C7010008C7010008C7010008C701000810
:1000B000C7010008C7010008C7010008C701000800
:1000C000C7010008C7010008C7010008C7010008F0
:1000D000C7010008C7010008C701000800000000B0
:1000E000C7010008C7010008C701000800000000A0
:1000F000000000000000000000000000C701000830
:1001000000000000C7010008C7010008C70100087F
:1001100000000000000000000000000000000000DF
:10012000C7010008C7010008C7010008C70100088F
:10013000C7010008000000000000000000000000EF
:10014000000000000000000000000000C7010008DF
:10015000C7010008C7010008C7010008C70100085F
:10016000C7010008C70100080000000000000000EF
:10017000000000000000000000000000000000007F
:1001800000000000C701000800000000000000009F
:10019000C7010008C7010008DFF80CD000F0B2F872
:1001A000004800471F4B0008F01F0020064880470A
:1001B00006480047FEE7FEE7FEE7FEE7FEE7FEE74C
:1001C000FEE7FEE7FEE7FEE70D4B00089901000899
:1001D0002DE9F05F0546002092469B46884606467C
:1001E000814640241BE0284641464746224600F00F
:1001F00079F853465A46C01A914110D31146184611
:10020000224600F060F82D1A67EB01084F4622469F
:100210000120002100F057F817EB00094E41201E85
:10022000A4F10104DFDC484631462A464346BDE8D6
:10023000F09F00000649074A0868504343F239021C
:10024000104408604008704701490860704700008A
:10025000000000206D4EC64140EA01039B0703D019
:1002600009E008C9121F08C0042AFAD203E011F8F5
:10027000013B00F8013B521EF9D27047D2B201E0B7
:1002800000F8012B491EFBD270470022F6E710B59B
:1002900013460A4604461946FFF7F0FF204610BDF4
:1002A00010B5044604E00B7800F8013B03B1491C8B
:1002B000521EF8D2204610BD421C10F8011B002926
:1002C000FBD1801A7047202A04DB203A00FA02F1A1
:1002D000002070479140C2F1200320FA03F3194334
:1002E00090407047202A04DB203A21FA02F00021D6
:1002F000704721FA02F3D040C2F120029140084336
:1003000019467047064C074D06E0E06840F00103CF
:1003100094E8070098471034AC42F6D3FFF740FF4B
:10032000205A0008405A000870B58C1810F8015B7C
:1003300015F0070301D110F8013B2A1106D110F87E
:10034000012B03E010F8016B01F8016B5B1EF9D182
:100350002B0705D40023521E0DD401F8013BFAE708
:1003600010F8013BCB1A921C03E013F8015B01F873
:10037000015B521EF9D5A142D8D3002070BDFEE723
:100380007047000084B002F0D1F9002700F014FAA1
:1003900005464FF0020A4FF010084FF0C80BE9462F
:1003A00000243E4604F051FB70B1CDE900AACDF81F
:1003B0000880FFF73FFF90FBFBF101FB1B00643857
:1003C0000390484602F014F800F0F6F9401B374657
:1003D000B0F5FA6FE5D3E40700F0EEF905462CB16D
:1003E0000020002401F0ECFF3746DAE70124002763
:1003F000092ED6D8DFE806F0050C131A21282F366F
:100400003D4440F2EF3002F07AFB01270124C8E7B7
:1004100040F2E93002F073FB01240227C1E740F209
:10042000EA3002F06CFB01240327BAE740F2EB301C
:1004300002F065FB01240427B3E74FF47B7002F060
:100440005EFB01240527ACE740F2ED3002F057FBDC
:1004500001240627A5E740F2EE3002F050FB01240C
:1004600007279EE74FF47C7002F049FB0124082720
:1004700097E740F2F13002F042FB0124092790E7B0
:1004800040F2F23002F03BFB01240A2789E7EFF348
:10049000108072B6FEE7000010B549B1054B184454
:1004A00013462BB110F8014B013B01F8014BF8E763
:1004B000104610BD984C000800217E2888BF0121FD
:1004C00008467047A0F11A0164299CBF2038704784
:1004D0004AF2A11140F65D03421A010A9A4206D877
:1004E000C9B25E22514351FA80F00B490FE04BF242
:1004F000A10244F25D73821A9A4284BF4FF0FF302A
:100500007047C9B25E22514351FA80F0014901EBB4
:10051000400070477984FFFFE188FFFFB0B50446D3
:1005200000F04AF905460548611C007818BF0444EC
:1005300000F042F9401BA042FAD3B0BD04000020F5
:100540002DE9F84F934A07244FF000094FF00008B7
:100550004FF00F0A9042904A08BF042402444FEA29
:10056000B223042B38BF4FEAB2248C4A00940123F3
:100570000F240027A2F57E7B102F08BFBDE8F88F5F
:1005800003FA07F20A4241D009F00C0527F0030CE8
:10059000D24304FA05FE5BF80C40009B04EA0E040B
:1005A00003FA05F5AC4214D17C4B7D4EBC081D68A6
:1005B00015401D605D6815405D603568154035600B
:1005C0009D6815409D605BF8245025EA0E054BF8A8
:1005D00024500323056803FA08F46FF0030303EAC9
:1005E0005706A5430560064409F01C05336A0AFA5C
:1005F00005F5AB433362C368A343C36043681A4045
:10060000012342608268A2430F24826009F1040939
:1006100008F102080137AFE72DE9FC4F5D4A0724D6
:100620004FF0010B4FF000094FF0000A90425A4A78
:1006300008BF042402444FEAB223042B38BF4FEA18
:10064000B22400940022102A08BFBDE8FC8F0F6876
:100650000BFA02F6374200F09780D1F804800323AA
:1006600003FA0AF708F0030CFF43ACF1010EBEF1E8
:10067000010F0ED88468CD683C4005FA0AF52C437A
:100680008460C8F3001445689440B5432C4344602B
:1006900005E0BCF1030F02D14FF0030C20E0C46869
:1006A0008D683C4005FA0AF52C43BCF1020FC4608A
:1006B00016D109F01C0E0F2303FA0EFC6FF0030392
:1006C00003EA520505442C6A24EA0C0C0C6904FA6E
:1006D0000EF444EA0C042C62D1F8048008F0030CF8
:1006E00005680CFA0AF43D402C4318F4403F0460BE
:1006F0004AD0002322F0030701932A4B1C6844F4DC
:1007000080441C601C680F2304F48044019409F0A9
:100710000C0403FA04FC214B019D9E461F44224B0E
:10072000FD589846009B25EA0C0503FA04F42C4377
:1007300047F80840DEF808404F68FB0244EA060527
:10074000174B58BF24EA0605CEF80850BD029C4658
:100750001B6843EA060458BF23EA0604CCF80040AD
:10076000BD03DEF8043043EA060458BF23EA06045A
:10077000CEF80440FD03DEF8003043EA060458BF1B
:1007800023EA0604CEF8004009F104090AF1020A3E
:10079000013258E7001002400000FEBF003C01405B
:1007A0000C3C01404438024008FCFFFF002A08BF0F
:1007B000090481617047000001480068704700BF6C
:1007C000E81B002080B110B5044602F050FA204624
:1007D00000F0BAF90020206484F83D00206384F81A
:1007E0003C0084F83E0010BD01207047F8B528B3E6
:1007F000044690F83D0020B902F05EFA204600F071
:10080000BDF902F034FA016841F400410160016869
:1008100021F40041016000F0FFFA3B4900253B4A0A
:1008200088424FF0000138BF0121904238BF0125B6
:100830006368374A934238BF0D460DB10120F8BDB9
:1008400034494FF47A77B0FBF1F521684E6826F011
:100850003F062E434E604FF496766E43934228BF78
:10086000B6FBF7F56A1C0D6A25F03F052A434CF6E6
:10087000FF750A62CA69AA43274DAB420AD85B00DA
:100880000138B0FBF3F001306FF31F30042898BF3C
:10089000042013E0A56801383DB119256B4302F02F
:1008A000F7F90AD000F5804004E003EB430302F0BF
:1008B000EFF902D000F5004000E00120104304F100
:1008C0000C06C861E0690A6822F0C0021043226A7F
:1008D000104348F2FF320860886890436CCE18439A
:1008E00010438860C86820F0FF0028433043C86088
:1008F00002F0B8F900202021206484F83D10206324
:1009000084F83E00F8BD00BF80841E0000093D0051
:10091000A186010040420F00A08601002DE9FC479E
:100920001F461646894602F07EF9824602F031F9EA
:100930000DD14B4D204601221923CDF800A005F51D
:10094000702101F069FE10B902F015F902D1022000
:10095000BDE8FC8702F008F901D102F056F9016800
:10096000A5F10212DDF8288021F400610160212147
:1009700002F086F96785618DE26266622185E16A2F
:1009800011F5803F18BF012919D102F019F920464D
:100990004FF0011100224346CDF800A001F03CFECB
:1009A00038B120680068C00544BF4FF4007020646F
:1009B00021E02069B0F5804F07D1FE2013E008291F
:1009C000E3D0216B1229E0D0E1E7062021684246FE
:1009D000534600EAD910F0300861A91D204601F005
:1009E00055FE40B9FF20216800EA090042465346FF
:1009F00002F05AF910B10120BDE8FC87002002F096
:100A00004EF9806901900198208D28B32046414617
:100A1000524601F06EFEC0B902F0E7F8228D531E77
:100A200023854E69760709D51B0407D04378023029
:100A30000B616062901E208502F002F9204641465B
:100A4000524601F0CDFD0028DED0206C0428D2D122
:100A5000206802F0A2F8CEE702F0A4F8BDE8FC8717
:100A6000020001002DE9FE43994616460F4602F0AA
:100A7000DAF8054602F08DF80AD131492046012204
:100A80001923009501F0C8FD10B902F074F802D1E5
:100A90000220BDE8FE8302F09DF803D1136843F005
:100AA00001031360136823F40063136021224B4693
:100AB00002F0BCF823493246608DE1623946208558
:100AC0002046CDE9008501F039FD08B102F0F1B80A
:100AD000218D080422D0204641462A4601F009FE15
:100AE00010BB606A2268014611F8013B1361638DF7
:100AF000013B63856162238D591E21855669760706
:100B0000E7D509044FF00001E3D0417802301161CC
:100B1000991E6062218502F093F8DAE7204641468B
:100B20002A4601F05DFD30B1206C0428CED120684A
:100B300002F033F8CAE702F035F8BDE8FE8300BFE3
:100B4000020010000000FFFF10B50B4C0068A4F578
:100B5000D831884218BF10BD4E48016821F40011F9
:100B6000016020464021FFF7EBFC20468021BDE8D4
:100B70001040FFF7E5BC00BF00040240B0B586B0EE
:100B800001681448814223D10025134C00F5D83068
:100B90000095216841F002012160216801F0020105
:100BA0000091042105910321CDE903511221029105
:100BB000C0210191009901A9FFF72EFD0095206940
:100BC00040F400102061206900F4001000900098AB
:100BD00006B0B0BD00540040303802401F48034901
:100BE00000780A6810440860704700BFE81B0020C6
:100BF00080B50B48016841F400710160016841F45F
:100C000080610160016841F480710160032000F09F
:100C100069F80F2000F006F800F022F8002080BDEF
:100C2000003C024070B50D4E04464FF47A713078A6
:100C3000B1FBF0F07D490968B1FBF0F000F0BEFABD
:100C400001250F2C08D838B94FF0FF30214600227B
:100C5000002500F021F87460284670BD04000020D3
:100C600082B000200B4901904A6842F480424A60F9
:100C70004A6802F480420192019A0090086840F0AC
:100C800080500860086800F080500090009802B022
:100C9000704700BF40380240F0B5184B4FF0FF36A8
:100CA0001C68C4F30224E51E84F0070438BF002545
:100CB00006FA05F7BA43042C28BF042406FA04F404
:100CC000A14300F00F04A940043C1143044A23440B
:100CD00009010244002848BF03F10C021170F0BD65
:100CE00000E400E005494FF6FF030A681A4060F38C
:100CF0000A22034810430860704700BF0CED00E073
:100D00000000FA052DE9F041002857D03F4B04467A
:100D10008846D3F8000400F00700884204D283F824
:100D2000008401F0C8FE49D12068810711D5410730
:100D300003D5996841F4E0519960010703D599689A
:100D400041F460419960A1689A6822F0F002114371
:100D50009960C0072BD101F0AEFE04D983F800845E
:100D600001F0A9FE2AD12068410705D5E1689A68FB
:100D700022F4E05211439960000706D52069996872
:100D800021F4604141EAC00098601C4600F054F82C
:100D9000A1681F4AC1F30311515CC8402349086090
:100DA0001C480068FFF73EFF0020BDE8F081606846
:100DB000811E022905D21968890107D40120BDE8E6
:100DC000F08101281DD119688903F7D599681D465E
:100DD00021F0030108439860FFF7EEFC064641F25C
:100DE00088376068A9682B4601F00C01B1EB800FD1
:100DF000B1D0FFF7E1FC801BB842F2D90320BDE877
:100E0000F08119688907D9D5E0E700BF00380240B2
:100E1000644C00080800002004480549054A0068A1
:100E20000968C1F38221515CC8407047E40000208A
:100E300008380240744C000810B5134C606800F08C
:100E40000C00082804D0042814BF1048104810BD16
:100E5000226820680023400202F03F020C485CBF79
:100E600042F20040C0F2F4002168C1F38811A0FBF7
:100E70000101FFF7ADF921680222C1F3014102EB44
:100E80004101B0FBF1F010BD043802400024F40031
:100E900040787D012DE9FC41002860D004460078AF
:100EA000C34EC0070BD0B06800F00C00042840F01F
:100EB0008F803068800302D5606800284FD020788A
:100EC000800718D5B06810F00C0F07D001F057FE5E
:100ED00040F096807068400200F192803068800790
:100EE00002D5E06801283AD12069316821F0F80183
:100EF00041EAC00030602078000733D420784007F2
:100F000043D4A76947B301F03AFE40F0AA80012F0D
:100F100025D0E169706800F480028A421FD1216AFD
:100F200000F03F028A421AD147F6C071626A01405E
:100F3000B1EB821F13D1A16A4FF6FF72C90391432F
:100F400000F44032A1F580318A4208D1E16A00F014
:100F50007060B0EB016F02D10020BDE8FC81012080
:100F6000BDE8FC816169934800296AD00121C0F87D
:100F7000801EFFF721FC0546706F8007BED4FFF787
:100F80001BFC401B0228F7D9C9E0306C10F08058D8
:100F90000AD100200190306C40F080503064306CF9
:100FA00000F0805001900198834F3868C0053AD412
:100FB000386840F480703860FFF7FEFB05463868FB
:100FC000C00530D4FFF7F8FB401B0228F7D9A6E094
:100FD00001F0D5FD03D1706840023FF56AAF60684B
:100FE000B0F5803F07D0B0F5A02F40F08280306888
:100FF00040F480203060306840F48030306082E01F
:10100000E06800284CD06B4801210160FFF7D4FB59
:101010000546306880073FF567AFFFF7CDFB401B03
:101020000228F6D97BE0A068012805D0052848D120
:10103000306F40F004003067306F40F001003067DF
:1010400049E00021C0F8801EFFF7B6FB0546706F2F
:1010500080077FF553AFFFF7AFFB401B0228F6D99F
:101060005DE05449002088460866FFF7A5FB054669
:10107000022F0AD147463068800153D5FFF79CFB09
:10108000411B03200229F6D967E7306880017FF50C
:1010900063AFFFF791FB411B03200229F5D95CE701
:1010A000444800210160FFF787FB05463068800750
:1010B0007FF521AFFFF780FB411B03200229F5D903
:1010C0004BE7316F002821F001013167316F21F0CA
:1010D0000401316745D0FFF76FFB054641F28837C1
:1010E000306F80074CD4FFF767FB401BB842F7D93D
:1010F00015E03168002821F480313160316821F435
:101100008021316045D0FFF757FB054630688003EA
:101110003FF5D5AEFFF750FB401B6428F6D90320FE
:10112000BDE8FC811C341FCC0843D90340EA82107F
:101130004FF6FF72914340EA0460A1F58031084305
:10114000706001203866FFF737FB04463068800185
:101150003FF502AFFFF730FB011B03200229F5D951
:10116000FBE6FFF729FB054641F28837306F800721
:1011700006D5FFF721FB411B0320B942F6D9ECE667
:10118000B8F1000F7FF4BDAE306C20F080503064B9
:10119000B7E6FFF711FB0546306880037FF58FAE99
:1011A000FFF70AFB411B03206429F5D9D5E600BFF0
:1011B000003802400000474200700040411E0020FD
:1011C000B0EB116F1CBF01207047044AF02351603F
:1011D00003490B70072190601160704710E000E038
:1011E00023ED00E010B568B10446481C07BF206835
:1011F0000068204601F0D4F820B10449A060012025
:101200000C6000E0FE2040B210BD00BF04090020C9
:10121000002907D4022A05D180B5002001F0D0F8BA
:10122000BDE88040012070471FB50446406A08B100
:1012300080470AE0D4E90030002100220291CDE984
:1012400000012046002101F0ACFF204600F01AF812
:10125000012004B010BD086801280AD18868102850
:1012600009D148680138B0FA80F0400941000120F6
:1012700003E0012000E0FE20002102B1116040B235
:10128000704700002DE9FF470446002501266068ED
:10129000854209DA206800212B460096421E20462E
:1012A00001F004FF0535F2E7384F4FF00208012541
:1012B0004FF0140A2046012101221E2301F064FC94
:1012C0004FF000092046012116221E2301F07DFC6B
:1012D000204601212B221E23CDE900A50295B84707
:1012E000204625210122052301F04EFC2046252120
:1012F0001622052301F069FC204625212B22052317
:10130000CDE900A50295B847214F204637210A2292
:101310000923CDE90058B847204637211F22092369
:10132000CDE90059B8472046372134220923CDE9B9
:101330000055B847174F04262046462101221E2398
:1013400001F05EFC2046462116221E2301F0FFFB21
:10135000204646212B221E2301F0CCFB06262046E8
:1013600069210122142301F04BFC20466921162239
:10137000142301F0ECFB204669212B22142301F0F9
:10138000B9FB012004B0BDE8F08700BFA33100081D
:10139000252F00086D3200082DE9F04188B00A21A0
:1013A0006FF06302CD4C01910121069200916421FE
:1013B0000791CDE90421D0E90010023914380291D7
:1013C00003906946204602F024FA1F4FB847DFF821
:1013D0007C806FF063016FF063020546C0471C4ECE
:1013E00020462946B047B847002100220546C0479D
:1013F00020462946B047B84764214B220546C047DE
:1014000020462946B0472046012102F0C7F9B847D7
:101410006FF04A016FF063020546C0472046294637
:1014200002F032FAB847322119220546C047204659
:10143000294602F009FA2046002102F0AFF9012006
:1014400008B0BDE8F08100BF551400082F3800082F
:101450002F37000859485A4A0021142904BF002098
:10146000704752F8213013B118300131F5E70123EC
:1014700042F82130704700BF002907D4022A05D165
:1014800080B5002000F09CFFBDE88040012070473F
:1014900080B500F097F89148002102F07FF9012013
:1014A00080BD00BF2DE9F0478046486814460128FA
:1014B00040F07D800F468989884D00206FF31F31F1
:1014C000EE6AA1F59D72082A0CD8DFE802F0051338
:1014D000191F717171712800002E68D0D6E90102C0
:1014E000411E18E009292ED07F293AD01B2908BFB8
:1014F00002205DE0002E5AD0D6E90110421C0AE01D
:10150000002E54D0D6E90102411C04E0002E4ED03A
:10151000D6E90110421E714802F030FA44E0FFF7AC
:1015200099FF002843D0AA690021064602F07FF9FE
:10153000B88900F47040B0F5804F2CD1674831462F
:1015400002F0A2F930E05EB34046314602F0BEF947
:10155000012803D16149404602F02FF9E86A1430AE
:1015600020E026B35D48314602F0BFF901281BD1C7
:10157000124FDFF84CA04FF000090025142D13D0B6
:10158000B74205D130461821FEF77FFE4AF8259074
:1015900018370135F2E75148314602F055F903E0BA
:1015A00005F120000068E862404600F00BF80020DA
:1015B00004B120600120BDE8F08700BFAC09002025
:1015C0005C0900202DE9F04F8DB00446D0E90030D1
:1015D0004FF000080125002100228DE8210120465E
:1015E00001F0DFFD206809210922CDE90015012164
:1015F000831E204601F06AFDD4E90001A1F10A0230
:10160000831E20460121CDE9002501F05FFD082061
:101610003027DFF8C4B0CDE90955CDE906882BA104
:101620000C900B9706AD2046CDE9005809AB5A4601
:1016300003F029F92948C06AD8B361680B970DF106
:101640000C090A224FF0FF3309390A912021406822
:101650000091494601F0F8FF214E0746CDE90058B8
:1016600009AB494620465A469946B047DBF800A0E8
:1016700009981CA15A464B46CDE900580AFB0700C1
:1016800009902046B047099820210A224FF0FF33E5
:10169000504409901148C06A8068009103AF3946F0
:1016A00001F0D2FF204639465A464B46CDE9005854
:1016B000B0470A4D2046294602F031F92046294616
:1016C00002F07BF801200DB0BDE8F08F466F637526
:1016D0007365642000000000285100088C0C002075
:1016E000874800082C000000B0B586B00C4D0446B9
:1016F00074212846FEF7C9FD00200B4A0BA3CDE953
:101700000200D4E90001CDE9040107200190054859
:10171000009002A9284602F0C8FB012006B0B0BD27
:10172000BC0C0020880100207C4C00084C697374BC
:1017300020436F6D706F6E656E74730080B5022A02
:101740000ED0012A28D11548C06A072824D8DFE81E
:1017500000F0040B0E1114171B1E40F2ED3018E0C0
:10176000002000F02DFE17E040F2EA3011E040F2D8
:10177000EE300EE040F2EF300BE04FF47C7008E00A
:1017800007A14FF47B7005E040F2F13001E040F238
:10179000F230002100F064FE012080BDBC0C00206E
:1017A0005468697320697320612074657374206EB6
:1017B0006F746963652E000080B5624902F0D9FB41
:1017C000012080BD2DE9FF41054608681446012827
:1017D00040F0A6808868102822D14868012840F08F
:1017E0009F808989012000276FF31F31A1F59C722A
:1017F0000A2A17D90D294CD01B294CD07F294DD04E
:10180000B1F5C27F58D0B1F5C37F40F08B80DFF8CF
:101810002081484E01F076F9D8F80000013853E0F5
:10182000FE207EE0DFE802F006107E1A7E217E7E3A
:101830007E7E2C003E49002078286DD00E187269FB
:10184000002A51D01430F7E739490020782863D0B6
:101850000E187269002A4BD01430F7E73948C16A74
:10186000012959DB1030013907E03648D0E90A2157
:10187000013A914250DA1030013102F005FB4BE0A1
:101880002B490020782847D00E187269A2B3143073
:10189000F8E7012726E00120022743E02948C16A32
:1018A00002F057FB224A0021782935D053181E1D1B
:1018B00086422FD01431F7E7DFF874801D4E01F017
:1018C00021F9D8F80000013000F0030006EB001108
:1018D0001C4EC8F80000304602F095FB2846314601
:1018E00002F047FB01201DE01648311D826A0AE024
:1018F0001448311D002206E01248D0E90A120029DE
:10190000D8BF0022311D02F014FB002818BF0120AF
:10191000706101E0002058610A49284602F029FB65
:101920000120002704B1276040B204B0BDE8F08177
:101930000C000020B458000880B5024902F019FBE1
:10194000012080BDBC0C002010B586B03C205B4C53
:1019500054210590302004900020CDE9020020465B
:10196000FEF793FC0820574A044B009002A920463A
:1019700002F078FB012006B010BD00BFF801002086
:10198000022A05D180B5002000F01AFDBDE8804094
:10199000012070471FB50446D0E900300021002225
:1019A0000291CDE900012046002101F0FAFB4349F4
:1019B000204602F0ABFB012004B010BD2DE9F04140
:1019C00088B005460868144601286FD18868102839
:1019D00033D14868012869D1888940F23D116FF3FD
:1019E0001F3088422CD01B2834D040F23B11884253
:1019F00049D00D285AD1384E30483168814219D12A
:101A0000C16A0DF110081030424602F009F82C4F5F
:101A10000420DC4A331D414600903846376002F00E
:101A200021FB28463946424602F03DFB31682846F4
:101A300002F06CFB012101203AE00020FE2137E09A
:101A4000254E3068D0E90A21013A91422EDA103051
:101A500001311FE0204F194E3868B0421FD0836813
:101A6000012B1EDBD0E90012C0684FF00008CDF852
:101A70000880CDE90008284601F093FB38683E60F5
:101A8000C0F808800EE0144E3068C16A01290DDBF1
:101A90001030013902F0F8F93168284604E00220DC
:101AA00005E006462846314602F030FB00200121C1
:101AB00004B1206048B208B0BDE8F081300D0020CC
:101AC000840D00202851000880B50349096802F000
:101AD0001DFB012080BD00BF8800002070B52E4E88
:101AE0000446412106F118052846FEF7CEFB0020EA
:101AF00006F10801C6E90050204602F068FB01200B
:101B000070BD00BF002907D4022A05D180B500208E
:101B100000F056FCBDE8804001207047B0B5044697
:101B200049B11D4D402205F11800FEF7B9FB002018
:101B300085F8580005E01848064940221830FEF79D
:101B40008BFB1549154A2046002302F04CFB01206F
:101B5000B0BD00BFA84B0008086801280FD1486835
:101B600001280CD189896FF31F31A1F11B00B0FA54
:101B700080F0400940000D2908BF022000E000204D
:101B800002B110600120704780B50349FA4A002372
:101B900002F029FB012080BDD00300207C4C00080E
:101BA00000290AD4022A08D180B5002001F089F862
:101BB000002000F005FCBDE880400120704710B512
:101BC0000446406A8047204600F018F8012010BD06
:101BD000486801280AD18868102809D188891B38EB
:101BE000B0FA80F040094100012003E0012000E04C
:101BF000FE20002102B1116040B27047E0B5022121
:101C000001221F23CDE900211F211F2201F08AF9A3
:101C100001208CBDD0E900105B4A02390F38C2E9BF
:101C200002100120704700BF00290AD4022A08D1FF
:101C300080B5002002F008FF002000F0C1FBBDE8E5
:101C40008040012070470000BFB54F4D0446284634
:101C500002F0ADFBD4E90030002101220291002105
:101C6000CDE900022046002201F09BFA20462946D9
:101C700002F0D7FB012002F0E7FE012004B0B0BD66
:101C8000B0B505464868144602280DD0012816D183
:101C90008868102816D188896FF31F301B38B0FA76
:101CA00080F0400940000BE0886810280AD1CA681B
:101CB0003549284602F035FB284600F009F8002097
:101CC000012101E00020FE2104B1206048B2B0BD36
:101CD0002DE9F0478EB00446D0E9003001260025FA
:101CE000002100220295CDE90006204601F059FAB4
:101CF00008200DF11808914A0DF1100A1DA1CDE937
:101D00000666CDE90455099020684346CDE900A553
:101D100002380890204602F0B6FDDFF86C900A22E7
:101D20000423D9F81000D0F8041600EB810020211C
:101D300050F8040C00910AAF394601F085FC0520EB
:101D4000784A43460696CDE904550990D4E9000146
:101D5000CDE900A50639023807910890204639469A
:101D600002F091FD2046494602F05BFB01200EB0D7
:101D7000BDE8F0875265616C74696D6520677261BA
:101D800070680000285100082C030020002907D4A7
:101D9000022A05D180B5002000F012FBBDE880408A
:101DA00001207047002907D4022A05D180B5002000
:101DB00000F006FBBDE88040012070471FB50446D7
:101DC000406A08B180470AE0D4E9003000210022CF
:101DD0000291CDE900012046002101F0E2F9204600
:101DE00000F046F8012004B010BD1FB50446406A5B
:101DF00008B180470AE0D4E90030002100220291B6
:101E0000CDE900012046002101F0CBF9204600F089
:101E1000C9F8012004B010BD086801280AD18868FB
:101E2000102809D148680138B0FA80F04009410013
:101E3000012003E0012000E0FE20002102B111603A
:101E400040B27047086801280AD18868102809D173
:101E500048680138B0FA80F040094100012003E0F1
:101E6000012000E0FE20002102B1116040B2704765
:101E70002DE9F04F89B02B4A04460DF11408DFF824
:101E8000B8A03E254FF0010900270DF10C0B26A14B
:101E900043460795CDE90599CDE90377CDE900B72C
:101EA0009068013008902046D047244A0699089B44
:101EB0000795CDE900B7906801300890C81820A1B7
:101EC000434606902046D047224A08994346079544
:101ED000CDE900B99068461C0698089608441EA1F2
:101EE00006902046D047089906980896224E434609
:101EF0000795CDE900B708441AA13246069020465E
:101F0000D04740201DA1324643460895CDE90695AD
:101F1000CDE900770590204602F03AFC012009B097
:101F2000BDE8F08F44510008312B322B382F342A72
:101F3000353D313300000000874800082851000873
:101F400048656C6C6F2053696D706C65204755490E
:101F50002E0000000C51000857656C636F6D652101
:101F6000000000004920646F6E2774206C696B6567
:101F700020746869732E00007C4C00084D756C74E9
:101F8000696C696E652064656D6F20746578742076
:101F9000776974682031322D706978656C20666FBE
:101FA0006E742E002DE9F04788B0184D1E210446AE
:101FB00001200DF1080A0DF110094FF080080027EB
:101FC0000291CDE90400CDE900A020464B46CDF8B2
:101FD00018800397A9682A464E1C0DA1079602F0A7
:101FE00052FC079905982A464B46CDF8188002976F
:101FF0000796CDE900A7084409A10590204602F004
:1020000042FC012008B0BDE8F08700BF0C51000879
:1020100057654163742053747564696F0000000054
:102020004F4C4544204D6F64756C652C4949432CD9
:1020300035564D6178000000F0B589B005460C209A
:10204000002608900420CDE90366CDE905006DB3B4
:10205000D5E900300C46012700220296A3F10801C1
:10206000CDE9000728460791002101F09AF8D5E94B
:1020700000010222029202220439031F2846CDE900
:102080000017022101F08DF81120032111227C2379
:10209000CDE90007284601F019F803A8044A2146B3
:1020A000CDE9000605AB284602F0EDFB09B0F0BD16
:1020B0007C4C000870B58EB004460120B74D00215D
:1020C0000C268DF83400642006960B906FF03100DA
:1020D0000A901A2007902E480C9080680990284694
:1020E00002C021681839089106A902F0C5F82A2013
:1020F000CDE900600A480490806803902068094C8C
:10210000183802902046FEF7D7F8059005F1280010
:102110006946224602F080FA01200EB070BD00BF71
:102120000C5100086C03002000290AD4022A08D1AF
:1021300080B5994805214160002000F041F9BDE8D3
:1021400080400120704700BFB0B586B00446924879
:1021500000F1080101600C4800900C4801902046F5
:10216000FFF76AFF6D46204605F1080102F02FF8DF
:10217000074A20462946002302F035F8012000F0E6
:10218000A0FD012006B0B0BDD05900088858000855
:10219000285100082DE9FF4105467F481446426852
:1021A000012A12DB0B68022B34D0012B40F0B580E2
:1021B0004A68012A40F0B180898900266FF31F31F7
:1021C000202940F0AB8046602CE04A68012A40F0AC
:1021D000A48089896FF31F31A1F59D72032A29D943
:1021E0001B2935D00D2935D0092940F096806B4F39
:1021F0003868013000EBD07121F00101401A07F17D
:102200000401386000F0908028460022002602F089
:1022100043F83AE04968032940F07F80511E41604D
:1022200040F07B80284600F08DF80020002600F06A
:1022300048FD73E0DFE802F002462F3A5748016894
:1022400001296AD1D0E90F21914247DC01392BE005
:10225000022663E0514F0026396801295ED1796D6D
:1022600001602846FFF7E8FED7E903014FF00108B7
:10227000182200F057FC391D2846002202F00CF805
:10228000D7E90C01282200F04DFC07F1280128466F
:102290002A22012352E04148016801293DD1D0E9B9
:1022A0000F210131914219DA016417E03B480168BE
:1022B00001291BD1016C426D535C5E1E202B08BFAF
:1022C0007E260AE035480168012918D1016C426D6B
:1022D000535C5E1C7E2B08BF2026565400F128015B
:1022E00028462A22012302F0B8F916E0426A8369DF
:1022F000511E99420CDC43699A4208DC08E082696D
:10230000416A914204DA42690131914200DB416243
:10231000011D2846012201F0BFFF002604B12660FE
:10232000012004B0BDE8F0812846012201F0B4FF8D
:1023300007F12801002628462A22002302F08DF901
:10234000ECE700BFFEB50446134801682046FFF7DE
:1023500073FE124D0127002618220296D5E90301CB
:1023600000F0FAFB2868291DB0FA80F042092046E7
:1023700001F092FFD5E90C012822029600F0ECFB57
:102380002B6805F128012046002B18BF01232A22C3
:1023900002F063F90120FEBDCC0000202C040020D7
:1023A000B0B5436800249C4207DA026852F8242042
:1023B000013415688D42F6D100E000221046B0BD10
:1023C00010B501463648006868B1836800249A68F1
:1023D0009C6042B1826052683AB152682AB1C068CA
:1023E000BDE810401047FE2000E0012040B210BDC3
:1023F000BCB52B4D01462868A0B1D0E90240626807
:10240000D36801AA984701466068019A0369286861
:10241000C068984704462868C06820B1006B10B1B6
:10242000804700E0FE2460B2BCBD00BFB0B51C4DCB
:102430000146286880B1826862B1526852B1526820
:1024400042B1C068904704462868C068006B804766
:102450002046B0BD012000E0FE2040B2B0BD00BF6C
:10246000B0B50C4601460E4805683DB12846FFF759
:1024700097FF18B1816821B1FD2000E0FE2040B235
:10248000B0BDA968A8608160406830B1426822B1DF
:10249000E8682146BDE8B04010470120EFE700BFE3
:1024A00004090020FEE70000022829D1B0B586B05B
:1024B0001448FEF787F90320134C002504901120DF
:1024C0000395059502904020019001A92046FEF752
:1024D000A3F8082D0ED2204640210022FEF766F90F
:1024E0000020FEF71BF8204640210122FEF75EF98E
:1024F0000135EEE70348FEF779F906B0BDE8B040D4
:10250000704700BF080900200004024002685169BA
:1025100049054FF000010FD56FF48063536120220D
:10252000016380F83D2080F83E1080F83C10016C7B
:1025300041F0040101640121084670472DE9FE4382
:10254000044600680E460A9D0B9F9946904600225D
:1025500001682B4600F05EFB48B120680068C005AA
:1025600044BF4FF4007020640320BDE8FE83206860
:1025700006F0FE012A463B4601611849204600F05C
:1025800085F808B100F095BB00203A46029020681B
:10259000416902912946806902900298204600F024
:1025A000A8F830B1206C0428ECD1206800F0F5FACE
:1025B000E8E72068B9F1010F0AD04FEA18213A463E
:1025C00001612046294600F094F80028EAD12068ED
:1025D0005FFA88F101610020BDE8FE83020001007E
:1025E000F8B515460E4604464F1C20684069400762
:1025F00044BF0020F8BD2046FFF788FF50B9002FE8
:10260000F3D0FEF7D9F8401BB04201D8002EECD130
:1026100000F01AFB0120F8BD2DE9F047DDF820900D
:102620001D46924680468FB201F47F045E1C18203E
:10263000B4F5803F08BF1420D8F80010085838407F
:10264000C01BB0FA80F0400950451CD1002EEED0DE
:10265000FEF7B2F8A0EB0900A84201D8002DE6D1A0
:1026600000202021C8F8300088F83D1088F83E008E
:1026700088F83C00D8F8400040F02000C8F840003E
:102680000120BDE8F0870020BDE8F0872DE9F0418A
:102690009846164604468FB2551C20684169394059
:1026A000B9420ED0416949050ED4002DF5D0FEF790
:1026B00083F8A0EB08012020B1420BD8002EECD10A
:1026C00008E00020BDE8F08100F067FA6FF4806157
:1026D0004161042000212022216384F83D2084F8F8
:1026E0003E1084F83C10216C084320640120BDE8B2
:1026F000F081F8B515460E4604464F1C2068406927
:10270000000644BF0020F8BD2046FFF7FFFE50B989
:10271000002FF3D0FEF750F8401BB04201D8002E36
:10272000ECD100F091FA0120F8BD00007CB5254DF8
:10273000302105F11800FDF7A8FD2449254C224859
:10274000234B00264022C5E90066C5E902666A619E
:10275000C5E90D412049C5E90F034FF480702C46AF
:102760008023C5E90A108020002144F8100F009250
:102770000022204600F02EFF1848EC600A210024B9
:10278000C5E900018C4210DA50F824205AB1526891
:102790004AB112683AB105F110009047D5E900013D
:1027A00050F8242096600134ECE70D480168054894
:1027B000FEF718FD002804D40020BDE87C40FFF798
:1027C00035BE7CBD88030020F92C0008B92D000817
:1027D000252D0008C52C00088C0B0020E8000020E7
:1027E0007C01002070B50B4E0C4605464FF400519D
:1027F00000223046FDF7DAFF681EFDF78FFE3046F7
:102800004FF400510122FDF7D1FF601EBDE870407A
:10281000FDF784BE000802402DE9F04F87B0002488
:102820002A4801224FF400574FF001080694019402
:10283000016841F004010160016801F0040100F049
:1028400035F941F080010160016801F0800100F07C
:102850002DF941F001010160016801F0010100F072
:1028600025F941F0020101604FF40051006800F0C9
:10287000020001900198164800F500668346304634
:10288000FDF794FF0BF58065202100224FF0200911
:102890002846FDF78BFFCDE90444CDE9027802AF6D
:1028A000DFF830A030463946D047584639460494C0
:1028B000CDE90284D04728463946CDE90444CDE924
:1028C0000298D04707B0BDE8F08F00BF3038024013
:1028D000000002401906000810B573480A4B0B4C63
:1028E00000214FF48042C0E90043C0E90211C0E971
:1028F0000421C0E906110162FDF778FF18B1BDE8B7
:102900001040FDF7C4BD10BD801A06000054004001
:10291000FEE7FEE7514900200022082A08BF00F028
:1029200067B80023802B03D001F833000133F9E7A7
:1029300001310132F1E700BF10B50520FDF7EEFDD2
:10294000474CE3200021A047AE200021A04764208F
:10295000FDF7E4FD00200021A04710200021A04742
:1029600000200021A047B0200021A04781200021A5
:10297000A047FF200021A047A1200021A047A620BA
:102980000021A047C8200021A047D3200021A04754
:1029900000200021A047D5200021A0478020002151
:1029A000A047D9200021A0471F200021A047A82030
:1029B0000021A0473F200021A047DA200021A047A6
:1029C00012200021A047DB200021A0474020002149
:1029D000A0478D200021A04714200021A047FFF729
:1029E00099FFAF2000212246BDE81040104700BFEC
:1029F0002DE9F04FA3B0194EDFF864B0DFF8B0A3B3
:102A000000254FF032084FF0800903AC082D21D08B
:102A1000A5F1500000210027C0B2D84700200021B6
:102A2000D84710200021D847802F04D016F837004F
:102A3000E0550137F8E75046782140220123CDE9DF
:102A40000049CDF80880FEF70DF8FFF72DFD01369F
:102A50000135DBE723B0BDE8F08F00BF8404002020
:102A6000892A0008E0B58DF8060048F27810782130
:102A70000323ADF804000A200090CD4801AAFDF719
:102A80004DFFFFF711FD8CBDE0B58DF805000A2064
:102A90008DF80410782102230090C54801AAFDF7A3
:102AA0003DFFFFF701FD8CBD080900200191019950
:102AB000019401687047D3F8000400F00700404516
:102AC00070471B9800F0F2BAD6E90312204600F0D6
:102AD0006CBD10F8014B013B01F8014B7047B0FA97
:102AE00080F04009CDE900807047606604F1540031
:102AF00001F08BBDCDE900A6CDE902553847002194
:102B0000FFF7AEBC0027CDE90177D8F8000006EB4F
:102B100000110001D1E90123C9680091315828460C
:102B200000F03FBB02960431031D2846CDE9001892
:102B30000A2100F036BBDDF818801C4615460E460B
:102B400007467047A06A0130A0620120B0BDCDE900
:102B500000A6CDE9025938470431031D2046CDE9CE
:102B600000170A2100F01DBB012084F83C002068FA
:102B70000168C907704794F83C0001287047B068A5
:102B800000F00C0008287047CDE900A5CDF80880BA
:102B9000384794F83D0020287047016841F40071DF
:102BA000016070472068016841F4007101602020D5
:102BB00084F83D00002084F83C0084F83E00704713
:102BC000016841F4807101607047CDE900A5CDF83E
:102BD0000890384701220DF1280884F83C2022682B
:102BE00098E803011368DB077047606A21680246B2
:102BF00012F8013B0B61638D013B63856262704794
:102C0000CDE90258CDE900A63847016841F001013D
:102C10000160704741F48071016020464FF001115E
:102C20000097FFF7F9BC0446FDF7C6BD84F83D20C8
:102C3000402284F83E200022226461856062704751
:102C4000608D01386085704700202021206384F862
:102C50003D1084F83E0084F83C00206C40F02000D9
:102C600020647047086840F0010008607047242025
:102C700084F83D002068016821F00101016070477F
:102C800084F83D10102184F83E1000212164704723
:102C9000B0FBF3F001306FF31F3000287047019054
:102CA0002068416901917047086120462946FFF775
:102CB000EDBC0120BDE8FE83002084F83C00704795
:102CC0007047704710B554480022002300F10801F6
:102CD000082B09D00024B4F5006F02D00A53103439
:102CE000F9E702310133F3E7324901600021416025
:102CF000BDE81040FFF70EBE024600207F2AD8BF75
:102D00003F2900DD70470820434B91FBF0F001F0B4
:102D1000070103EB021202EB40000089C84000F0FB
:102D2000010070472DE9F047A4B03B4FDFF88080E9
:102D30004FF03209F888802824BF7F20F880B888B7
:102D4000082824BF0720B88097F800A004AC5FFAD9
:102D50008AF580B2A84224D3BE782946304601F0D5
:102D600047FEF9880020F2B2914209D307EB021224
:102D7000C3B20130013602EB4502127AE254F2E7A7
:102D8000C0B2782140220123CDF80890CDE900405F
:102D90004046FDF767FEFFF787FBB8880AF1010A96
:102DA000D5E7044838600020786024B0BDE8F0879B
:102DB0000809002007007F007F28D8BF3F2900DDD9
:102DC000704770B50823144C91FBF3F301F0070131
:102DD0002688DDB2AE4288BF2580A688AE4238BFC5
:102DE000A580C5B204EB0010668800EB4300AE423C
:102DF00088BF6580E688AE4238BFE580012503893B
:102E000005FA01F1012A23EA010408BF43EA01049B
:102E10000481BDE870407047D80D00202DE9FE4FB9
:102E200007460C680068844279DA0E46486879687B
:102E3000884274DAB1682144022970DBF1680844E1
:102E400002286CDB9946136800250020002B48BF40
:102E50001846D9F800C06044012860DB506800289B
:102E600048BF0546D9F804000544012D57DB5942F7
:102E7000002B23EAE373C8BF002101921C44614583
:102E80004DDA3568B3682B449C4248DA3B689C4273
:102E900045DAD9F80830029119445368C3F10008A3
:102EA000002BC8BF4FF00008082298FBF2F523EA78
:102EB000E37205FB0C1B7168A8EBC50A5518804529
:102EC00026DA7168F26811448D4221DA79688D4200
:102ED0001EDABAF1080F04D1D9F800004FF0000A49
:102EE00083449BF800000C992A4620FA0AF000F06F
:102EF0000100431A3846214618BF012300F03AF971
:102F0000D9F8040001350AF1010A08F10108D6E7F1
:102F10000299D9F800C0019A01340131AFE7BDE848
:102F2000FE8F00002DE9F04F91B004AC012B07C4D7
:102F3000C0F2B6801A9C07D104AA234607CA11B072
:102F4000BDE8F04F00F016B90394012100254FF0C1
:102F5000000900241B98A1EB430207904FF0FF30BB
:102F60004B45C0F29D80CDE90B420D919A46079FDB
:102F7000022F18BF504574D1CDF84090DDF818905D
:102F80000AEB0900A9EB0A08461E0A9008F10104A1
:102F9000CDE900672246DDF814B00BEB0501CDE961
:102FA0000E150B46049D284600F090F8CDE9006709
:102FB000224610980BEB0007284639463B4600F0A6
:102FC00085F80AEB0B01384E09910F9809EB0002C6
:102FD00028460892039C2346B04728463946424675
:102FE0002346B0470E99284642462346B047B0468E
:102FF000ABEB0A06089A284623463146C04710988C
:10300000C3463146234609EB0008DDF840902846C8
:103010004246D8470A9E0E99284623463246D8474C
:103020002846394632462346D8470999284642461B
:103030000F9D2346D8470D990B9C0C9A534609F1D6
:103040000109081902EB40000028C8BF1444C8BF9A
:1030500002320028C8BF013B0C445046013D0231FA
:103060007EE7069A02EB0900A0F101085019CDE9AC
:103070000087441C059E049F2246A6EB0A013846A1
:103080000B4600F023F8CDF800800AEB060122463B
:1030900007980B4601903846079F00F017F86BE73A
:1030A00011B0BDE8F08F00BF753100082DE9F04187
:1030B000FFF741FDAE42C8BFBDE8F081384631465A
:1030C0002246434600F056F80136F3E72DE9F04F6B
:1030D00085B003900E980D46591A14460491861A2D
:1030E0000846002901DD012009E005D0049840428E
:1030F00004904FF0FF3002E0002004900020002EEA
:10310000029001DD012005E019BF76424FF0FF304B
:10311000002600200190049837464FF0000B4FF036
:1031200000084FF0000AB04288BF074607F10109C6
:10313000CA451CDC03980F9B2946224600F01AF86A
:1031400008EB060001990AF1010AB842C8BF0C4415
:103150000499029B5944B942C8BF1D44B0EB07080B
:10316000D8BF8046B1EB070BD8BF8B46E0E705B070
:10317000BDE8F08FF8B5074608301E4614460D46E8
:1031800000F013FA60B1BB6A53B1012E01D03EB911
:10319000002628462146324601B0BDE8F0401847D7
:1031A000F8BD2DE9FE4F012B50DB0C9D012D4DDBB1
:1031B000DDE90D8A012B1E4617460C46834608BFE3
:1031C000012D0CD0012E13D1E81921463A46CDF835
:1031D0000080431E584600F095F9BDE8FE8F584622
:1031E00021463A46434603B0BDE8F04FFFF7C2BF61
:1031F000A01921463B46CDF80080A0F101095846B0
:103200004A46FFF753FF012D20D0E819CDF8008082
:1032100021464A460290431E5846FFF747FFCDF825
:1032200000800137214602983A46831E5846029391
:1032300000F068F9CDF80080584649463A46029BAE
:1032400000F060F9032D28BF032E01D2BDE8FE8FE8
:10325000BAF1020FFAD0A81E611CB31E3A46CDE99E
:10326000000A584600F05EF9BDE8FE8F2DE9F04FE8
:103270009DB0DDF89CA0CDE90F211B90B3EB4A0F68
:1032800040F33B81DDF898904FEA4A08C84580F248
:1032900034810F9C28981B9E1D46CDE90040109854
:1032A00022460AEB00071844199001383946A0EB72
:1032B0000A0B039030465B46FFF708FF09EB040A50
:1032C000289839465B46AAF10109019030464A46E2
:1032D000CDF80090FFF7FAFEDDF89CB004950A9750
:1032E000CDF82C800BEB04006FEA0B015A460D90D1
:1032F0004819CDE9051A16461C9050460AEB010004
:103300004FF0FF3A0C90A9EB0B004FF000090E9024
:10331000A5EB0B00C8F1010502381A90781C0027B4
:1033200008901998A0EB0B014FF0010B084609918A
:10333000881E07901046CDF844A04845C0F2B780DB
:103340008246299802281FD0D1450BD02998009099
:103350000898A0EB0A01079800EB0A020F9883195E
:10336000FFF7AFFB279882450ED0119850450BD040
:1033700029981A990090109842180D993044A1EBA1
:103380000A03411CFFF79DFB0A98CDE917B5289C5D
:10339000DDF86CB0CDF858901497DFF86491A0EB8D
:1033A0000A080F9823464146871958463A46C847A7
:1033B000109D159658462346A9190D9E1991A6EB06
:1033C0000A063246C8470998289B3A460AEB000489
:1033D0005846611E1391C8471C98289B32462918ED
:1033E0005846DDF8A4B0169D1291C847BBF1020FF4
:1033F0001DD0554508D0299808F10101A21E009062
:103400000E984319FFF75DFB279882450FD011985E
:1034100050450CD029981A99009010984218059898
:103420000699504443181998411CFFF74AFB0E981F
:103430004146DDF8A080A946DFF8C4B046191B9DBF
:10344000434632462846D8470C981999434600EB24
:103450000A0728463A46D847139928463246434633
:10346000D847129928463A464346D847DDF85CB01B
:10347000149F189D09F101090BEB070005EB4000B3
:103480000028C8BF2F44C8BF0235002850465F44FB
:103490000BF1020BC8BF01381C99159EDDF82C807A
:1034A0000131013E1C911A9901311A9143E71B9C8D
:1034B00010990D9E0C9D289F204632460B46009584
:1034C0000197FFF703FE039920463246CDE90057E6
:1034D0000B46FFF7FBFD2998049B022826980CD089
:1034E000A0EB0800721C023B023800902998019062
:1034F0001098411C1B9800F015F81DB0BDE8F08F26
:10350000753100082DE9F041FFF715FBA542C8BF52
:10351000BDE8F081384631462A464346FFF72AFE89
:103520000135F3E72DE9F843DDF82480B8F1020F07
:1035300001D1BDE8F8830646089814460D4683423B
:103540000FDD00EB04095819471E4C45F1DA3046EF
:1035500029463A462346CDF80080FFF7A7FD0134FF
:10356000F3E7204403EB0509471E4D45E1DA3046F9
:10357000294622463B46CDF80080FFF7C3FF0135C0
:10358000F3E780B578B103688B420CDD4368934262
:1035900009DD836A3BB1C36A084611469847002893
:1035A00018BF012080BD002080BD10B50346006813
:1035B00088420DDC9C682044884209DD596800205F
:1035C000914204DCDB6819449142C8BF012010BD60
:1035D000002010BDB0B5049C00F10805B1F1FF3F1B
:1035E0001EC503DC5B1A002585600361B2F1FF3F55
:1035F00003DCA41A0021C1604461B3F1FF3FDCBFCA
:1036000000210161B4F1FF3FDCBF00214161B0BD89
:1036100080B179B10268B2F1FF3F07DC002303609B
:103620000B6813440B6083681A4482604268B2F1ED
:10363000FF3F00DD7047002343604B6813444B603D
:10364000C1681144C16070472DE9FE414FF0000888
:103650009C46B0F1FF3FCDF80880CDE9008806DC3C
:10366000102A1ABF40424FF001084FF00008DDF861
:1036700024E000276D46EB1960B1B0FBF2F4372669
:1036800004FB12000A2838BF302630449872013FEC
:103690002046F0E7B8F1000F06D003F10A022D2012
:1036A0001070C7F1010002E0784203F10B02002321
:1036B000984203D0D45CEC540133F9E708B1EA181E
:1036C00004E030206A1C8DF8000001200023BCF1CA
:1036D000010F137013DB6045C8BF8446284401EB1B
:1036E0000C0201F80C30013A01388A421CD3A8427E
:1036F00002D202F801E9F8E703781370F3E7CCF19E
:10370000000C6045C8BF844668466246012A09DB52
:10371000037813B10B70013001E081F800E0013A49
:103720000131F3E7002008706046BDE8FE8190B1EA
:1037300089B110B50446806A18B1606A41610860B9
:1037400000E021622046616200F006F8A06A0130C4
:10375000A062BDE810407047F8B1F1B1F0B5D0E912
:103760000423D0E90276D1E901459B1AA21A013F50
:10377000D0E9004C7A4392FBF3F2731E2244CA60F4
:10378000D0E90620801AAA1A5A4392FBF0F0C043EF
:10379000304460440861BDE8F040704750B100F12A
:1037A00020021268012903DB12B101391432F8E753
:1037B000C26200E0002210467047FEB540B339B344
:1037C000CA6A2AB3D1E90043D2E90362D1E902C14E
:1037D0004FF0010ED51A023A194403359A42CCBF74
:1037E00005251A46AF18B942D8BF8D1ACDE9005E3B
:1037F000CDF808E0311BCB1CB11EA142CCBF052384
:10380000214664445D18AC42D8BF631AFFF7C9FC77
:10381000FEBD58B151B110B520220446FCF71CFD85
:103820000020C4E90800C4E90A0010BD704750B187
:1038300070B50E46182114460546FCF726FDC5E96D
:103840000164BDE870407047B0B5D0B1C9B104465D
:10385000C06AC0B1626A904213D043684A689A4213
:10386000BCBF4B601A4643695D68AA42C8BF4D6041
:103870004B611960416108602046FFF76DFFFFF75B
:1038800061B90020B0BDB0BDB0B5E0B1D9B104465A
:10389000C06AD0B1226A904215D042684B68934208
:1038A000C4BF4A60134602685568AB4202DA4369F6
:1038B0005B684B600A605161016048612046FFF718
:1038C0004BFFFFF73FB90020B0BDB0BD10B50446B7
:1038D00000204CB141B1D1E9033220461946FFF72F
:1038E00050FEB0FA80F0400910BD10B50022A0B122
:1038F00099B1826A032A0FD34B690BB10C681C6023
:103900000C6804B16361C36A8B4204BF0021C162C9
:10391000511E0122816200E00022104610BD2DE9F7
:10392000FE4348B30C4639B38146E06894E80E0084
:1039300000250295CDE900054846FFF732FCA06A54
:10394000022819D304F120074FF001083E683746DA
:1039500057F8145F85B1FFF7B7F818B9FFF7B4F857
:103960000028F3D0D5E90330D6E90312CDE90008E9
:103970004846FFF7ABFBE9E7BDE8FE8370B5B0B1A1
:103980000B46C16A99B1046AA14212D0446AA142AD
:103990000FD00D684C692E1D002D08BF00F11006D8
:1039A00035689D42C8BF2B462CB1646804E00020F6
:1039B00070BD4B6803E044699C42B8BF23464B602E
:1039C000D0E906349342C8BF1A469442B8BF224693
:1039D0008A60FFF7C1FE012070BDB0B5C46BC3683B
:1039E0004169026BA468023493FBF4F505FB1433C0
:1039F0003BB18A4211BF0120806BB0FA80F04009D0
:103A0000B0BD501A18BF0120B0BD0169826A8A4258
:103A10001CBF01207047806B002818BF0120704731
:103A2000B0B590B1002910D47AB183698B420CDD16
:103A3000436A046885688B421460956002DCC46A3E
:103A40008C4203DA0020D0605060B0BD816B046A04
:103A500051B1856AAC420AD14368C06B806853603B
:103A600008440230D060B0BD056BAC420AD0446857
:103A7000C569C06B80682144EB1A0230D06000FB3E
:103A80000310E1E7446B4168C368C06B8068013C88
:103A9000023004FB0011516093FBF0F101FB103187
:103AA000002908BF0146D160B0BDF8B5A8B3A2B3E4
:103AB000C2630446069D91E8C100C968A56184E817
:103AC000C100E160013900209268A063023291FBDD
:103AD000F2F14A1C012D626319DB013D1A46C3E96C
:103AE000020023613DB102F11006C2E90620013D4A
:103AF000D6603246F6E70020E1626261C4E907035E
:103B0000C4E90903184600F065F82063F8BD4FF0DA
:103B1000FF31C4E90400C4E90710F8BD2DE9F04104
:103B2000002A28D4876905460020164697424FDBB5
:103B3000D5F810800C46B742C1E902001EDD4046B0
:103B4000314600F047F88168C4E90210816801B18C
:103B5000CC60E9698460B142A4BF0131E96180456C
:103B600008BF2C61686AB04215DD01306862E86AFE
:103B70000130E86229E00020BDE8F081B8F1000FD3
:103B800013D06869696B6C61C460A060781C814265
:103B900008BF2C6319E0E96AB14216DBB04208BFE6
:103BA000AC62286B58B180680EE0696B0020C5E9F3
:103BB0000444C5E909040139C5E90B1005E0696B46
:103BC000781C814201D168692863781CA86120466D
:103BD000BDE8F08138B1002907D4012904DB18B110
:103BE000C0680139F9E70020704749420129FBDB31
:103BF0000028F9D080680139F8E770B506690446F5
:103C00000D463046FFF7E6FFD0B3A1690139864281
:103C1000A16101D1F16821616169814201D18168AD
:103C20006161C16809B182688A60836803B1D96043
:103C3000616AA94221DCE26AAA421EDB256AA84227
:103C400007D1C5680DB1256203E02362E369013B3A
:103C5000E361A36A984201D1C368A3626BB1256B8B
:103C60005DB1ED680DB1256307E09B68002BFAD0CC
:103C7000013A0139C4E90913E2620021C0E90211E5
:103C800070BD2DE9F04389B004460120002C03905B
:103C900000F0C5800D46002900F0C180A869696B5D
:103CA00088420ADAE86895E80E0000260296CDE917
:103CB00000062046FFF775FAA8690128C0F2AF8018
:103CC000EF69B7F1FF3F03DC29690027C5E90771F8
:103CD000874203D3471E6869C5E907706E6AB74219
:103CE0000EDA696BD5E90760A1F10108C5E9096041
:103CF0004146FFF76FFF08EB0609C5E90B9001E0AD
:103D0000D5F82C904F450DDD696BD5E90790C1F1D1
:103D10000108C5E90B904146FFF75CFF08EB090677
:103D2000C5E9096095E8070005ABB74207C313D0A2
:103D3000286B88B14F451BD1E96BE868896802316F
:103D400090FBF1F202FB1100401A90FBF1F202FB32
:103D50001100A86301440FE00020A863686B0228EB
:103D6000B1BFE868E86B806802300890002004E08A
:103D7000D5E90E018968023108910130AE6A0490DC
:103D8000716801B93168286AEA6B0DF10C08301AC4
:103D9000FEF7A5FE05AB204600F075FDEA6B6B6BE8
:103DA0009068811C022B089139DB0123F76804938A
:103DB000AB6B1944069B1944069105AEAFB1296B54
:103DC0008F4212D0796801B93968286A3346381AA7
:103DD000FEF785FE204600F056FDEA6B0699FF6867
:103DE0009068014402310691E8E7C7B1A96B09B1B7
:103DF000811C05E0EB68811C93FBF1F606FB113199
:103E0000002908BF811C0891796801B93968286ABE
:103E1000381AFEF764FE05AB204600F034FD09B009
:103E2000BDE8F083F8B5044691E80D00C968A669BD
:103E300084E80D00E160481EE16B8968023190FB67
:103E4000F1F56F1CB542676309DAA06A2946FFF7EE
:103E5000C1FE206358B1606A2844E062F8BD0020CA
:103E600004F124022169A06323C22063F8BD6069C4
:103E7000711EC4E90B106942FFF7ACFE0021A1637B
:103E8000F11BC4E90910F8BDB0B50446C069884209
:103E90000AD00D46091A206AFFF79CFE002808BFC9
:103EA0004FF0FF35C4E90750B0BD70B58CB01D466A
:103EB000044691E84900C9682267256584E84900FD
:103EC0000230E16000210290A6F109000391049004
:103ED000DDE9103035B191680D1D0395E568691A6B
:103EE000053904E06168E56802310391291F0090FB
:103EF000059104F1100002A9FFF7D7FD052004F198
:103F0000100308900FCB07910993A16A1044013068
:103F10000690606C081A4FF000018DF82C10D8BF85
:103F200008460A9006A904F1540000F00EFB0CB0FC
:103F300070BDB0B504461030FFF7F0FD0546A06A2D
:103F4000626C616B801AD8BF0020FEF7CEFD284658
:103F5000B0BDB0B504461030FFF74FFE0546A06A6D
:103F6000626C616B801AD8BF0020FEF7BEFD284648
:103F7000B0BD002946D02DE9F0418AB00D46044677
:103F800009684FF001080027E868D5E90123029786
:103F9000CDE900082046FFF704F9296D09B395E83B
:103FA00049002A6FCDE9047702300690981C0790EB
:103FB000301F08909068099004A8CDE9000706AB6F
:103FC000204600F060FC2A6FD5E90010AB689268CB
:103FD0001044C21CC818431E2046CDE90028FFF734
:103FE00075F805F110012046FFF74BFE696B54355B
:103FF000284600F00AFB2046294600F0B6FA0AB02F
:10400000BDE8F0417047BFB5044691E80D00C968AE
:1040100084E80D000230E16000210090A3F1090066
:1040200001910290206D38B1216FE0688968401AD3
:104030000A1D0538019204E06068E16802300190D1
:10404000081F039004F110006946FFF7EBFE04F12E
:10405000100505202ECDC4E9170519440131C4E926
:104060001512BFBDF0B1EAB1F0B585B091E8E0003E
:10407000C9680024DDF828C002650462C1606C1CB8
:10408000083980E8E000CDF800C010300194341DFC
:104090000491B91E0294039101A9FFF706FD05B032
:1040A000BDE8F0407047F0B585B061B38D6A012D71
:1040B00029DBD2E90064D2F808C047686644E043CF
:1040C00001960E6D3844B66802366E4306F1080557
:1040D000A8420BDA022397FBF3F39C4206DDD0687B
:1040E0000219501C921B083A22EAE274029485429B
:1040F000B8BF284604900CF10200039001AA0846BC
:10410000114600F04DF805B0F0BD0000F0B589B0E3
:1041100004460020CDE90300D9B30D460968012704
:104120002E1D4CCE02902046CDE90067FFF739F8EE
:1041300005F1100620463146FFF7A3FDA9680320CC
:1041400002220890052005390790286891FBF2F1BA
:10415000084405903046FFF758FC50B168680E4B94
:10416000013006900020009005A903AA2046FEF722
:1041700055FE3046FFF731FC58B16869E969074BD5
:10418000084406900020009005A903AA2046FEF7E7
:1041900045FE09B0F0BD00BF745800086058000823
:1041A000A0B199B1BFB591E83C003CC091E81C00BA
:1041B000C9680132083900921A1D039169460192BB
:1041C000A21E0292FFF72EFEBDE8BF40704748B125
:1041D00041B10522C1E90022D0E900200A3A0A389B
:1041E0008A60C86070472DE9F0438DB091B30546F1
:1041F00008680F4670B31E4607F1080378699146B8
:104200004FF0000801240ECB8DE811012846FEF77F
:10421000C8FFF9687A69D7E901300231043A04919C
:104220000692C3B10A91CDE90788841CD3E9001234
:10423000099408440B910C92043003903869CDF82E
:104240000080401A0638059009A907AA2846FEF7FB
:10425000E5FD05E00DE00230039038690438059073
:10426000396800204A46CDE9006003AB284600F0DB
:104270008FFA0DB0BDE8F083B0B560B10C4651B116
:1042800024210546FCF701F8284621462022BDE8F6
:10429000B040FBF7E1BFB0BDF0B58BB005460020E4
:1042A0000690CDE90400D1B30C4616460968E068D3
:1042B000D4E901233746002E18BF01270297CDE924
:1042C00000072846FEF76DFF2021206A0A224FF0E2
:1042D000FF33009104AF3946FFF7B6F9A16909AA87
:1042E000384600F05DFB207F012804D050B9A0685B
:1042F0000999401A07E0A0680999401A022190FB29
:10430000F1F000E0002007900020A2692346089009
:1043100007A8CDE9000604A9284600F0B4FA0BB0BE
:10432000F0BD71B3F8B5D1E9043C00241D46D3F8C3
:104330000466013EB4420EDA2E46D5F80404013478
:1043400056F8047FC5F800042F60D5F80472C5F84C
:1043500000723546EBE743F8262003EB8604DCE9E0
:1043600000039042B8BF024608469A42D8BF1A4698
:104370001146C4F8002200F005F8C4F80004BDE8B6
:10438000F8407047B0B54268C3684069D0E900455D
:1043900000698C42B8BF2146A942D8BF2946491BB3
:1043A000594391FBF0F0C04318441044B0BDF8B538
:1043B000B0B3D0E904530446D3E900208242B9BF28
:1043C000C3E90002114601461046DA68012ADCBF43
:1043D0000222DA60461A01361E61D5F800368342A1
:1043E000B8BF184601DC884204DA8842C8BF0146DB
:1043F000C5F80016A06805F580660027023890FB16
:10440000F2F0C5F8040687420ADAD5F8001620460D
:10441000FFF7B8FF46F827000137D5F80406F2E7A2
:10442000F8BD2DE9FE4F002844D00C46002941D0AC
:104430008346D4E9030A94E80E000127D4F81480D7
:1044400000260296CDE900075846FEF7AAFED8F8E6
:10445000080001280ED1DAF800162046FFF792FF77
:104460000246DBF800000121CDE90027831E5846F3
:10447000FEF72CFEDAF8041602291BDB0AF580672A
:1044800000204FF00109461C8E4213DA3A68216879
:1044900057F8045FD8F80C30CDE900594D1C03FBE8
:1044A000005103FB06535846FEF710FEDAF80416D7
:1044B0003046E8E7BDE8FE8FA0F11A024FF0FF3169
:1044C000652A38BFA0F120010846704720381D2812
:1044D0008EBF4FF0FF30024951F82000704700BFF7
:1044E000EC4B000810B531B1044B1844134613B11E
:1044F000FEF7EFFAFBE7104610BD00BF6051000861
:1045000010B531B1044B1844134613B1FEF7E1FA6C
:10451000FBE7104610BD00BF2456000810B531B1AE
:10452000044B1844134613B1FEF7D3FAFBE71046C9
:1045300010BD00BFD45500080020704718B110F816
:10454000012B0A60704700207047B0B560B10C467F
:1045500051B11C210546FBF798FE2846214618223A
:10456000BDE8B040FBF778BEB0BD2DE9FF41044681
:10457000087D0E460C21002808BF0821F06803289A
:1045800041DBB368032B3EDB98423CD0775831695E
:10459000B2694FF0000C8A4288BFB161A7F10208EE
:1045A000D6E9001201258DE821102046FEF7F9FD1D
:1045B000317D306961B131680131A8B1D6E901239B
:1045C000B569DB1B01326B43B3FBF0F0014412E031
:1045D00068B1F368B569D6E90012DB1B01316B43A2
:1045E000B3FBF0F0104400E07068421C03E0D6E931
:1045F00000014A1C411C01204346CDE90080029085
:104600002046FEF7CEFDBDE8FF8120B102698A4257
:1046100038BF11468161704770B5E8B10E46D9B117
:10462000302115460446FBF730FE2046314618225D
:10463000FBF712FED4E90431A2680020E562E061D4
:104640001B68013A92FBF3F2531C226263628A42B6
:10465000A4BF01392162A06270BD2DE9F04385B08D
:104660008046002B184618BF0120002967D00E464F
:10467000C96A002963D01C46154696E88E00CDE92C
:10468000007002904046FEF78CFDD6E90510884286
:1046900004DAB0F1FF3F03DC002000E0481EB06107
:1046A000326A904206DD736AC21A571C0246C6E996
:1046B000077008E0F769736AB842BFBFC218013AD1
:1046C000C6E90702074699420CDB904208D13169DE
:1046D000B068096890FBF1F202FB1100401A02E099
:1046E000B8422FD10020B06200210DF10C090390D7
:1046F0000491F16AC95D11B33268B3681A44013A92
:1047000090421CDA1DB1B069874218BF2946B069D2
:1047100032693B1A18BF0123381AB0FA80F0002C16
:1047200008BF4309CDE900934046334600F00CF83A
:10473000306903990137006808440390D9E705B050
:10474000BDE8F083B06ACFE72DE9FF4105461C467E
:10475000106893687E29AF69CDE90103039715D8E6
:10476000DDF828802368A668D8F800003344984212
:104770000CDAEB6910460B9E3A4600F0E2F8009620
:1047800001AB284621464246FEF748FBBDE8FF81C3
:104790002DE9F04F89B0139C4FF0000BCDF820B0FD
:1047A000002C18BF0124002969D00F4680460068FC
:1047B00019681D464FF0000B814260DA12981646C8
:1047C000CDE903B003A92846FEF722FFE86895E883
:1047D0000E00DDF80C900294CDE900044046FEF78F
:1047E000E0FCB06801240DF1200A0690D8F818000A
:1047F0000790002F42D0387800283FD072693846A1
:104800005146CDF820B09047074608980A2807D1AE
:10481000B0680499CDF80C90013408440490E8E79E
:10482000B16988470028304618BF04300168AA687B
:10483000039805910844904207DDB068049A01345A
:104840001044CDE9039009EB0100012814DBE9686D
:10485000049A8A4210DAD8E906230899304600F013
:1048600070F813982946009003AA404605ABFEF75E
:10487000D5FA0598039908440390BAE7A346584629
:1048800009B0BDE8F08F2DE9F04F89B0DDF84CB0EC
:104890000646BBF1000F584618BF012000294DD035
:1048A00015460F46196832681C46914246DA04F1F3
:1048B000040CDDF848809CE80C10CDE900C00290A3
:1048C0003046FEF76EFCD8E900014FF000090DF10B
:1048D00020080DF1140ACDE90301A9680691B16918
:1048E00007915FB3397849B3A168884226DA6A69CB
:1048F00038464146CDF8209090470746A969089868
:1049000088470028284618BF04300399006805909E
:104910000844012810DBD6E906230899284600F050
:1049200010F8CDF800B03046214603AA5346FEF7F2
:1049300075FA0598039908440390D2E709B0BDE8D9
:10494000F08F2DE9F84340B3154632B31C4623B32C
:104950000F46C168064638468847804601301CD05D
:10496000B16808233068B269013991FBF3F1013174
:1049700001FB00F938469047002818BF012029465E
:1049800009FA00F0844288BF0446336909FB08F045
:10499000224601B0BDE8F04318470020BDE8F88387
:1049A0002DE9FC4108B31446FAB1064688684FF079
:1049B00000080D46C4F80080606001AF3078A0B1F7
:1049C0006A6930463946CDF804809047064601981A
:1049D0000028F3D0A96988470028284618BF04306A
:1049E0002168006808442060E8E7BDE8FC81000019
:1049F000E0B50022503904238DF8042000F00F02A6
:104A000000098DF80510782110308DF807208DF8F9
:104A100006000A200090034801AAFBF77FFFFDF77C
:104A200043FD8CBD08090020704748B1024610F8CC
:104A3000013B7F2B06D3507840EA0323901C01E012
:104A4000002000230B607047704780B5FBF7B4FE71
:104A50006421B0FBF1F202FB1100B0FA80F04009D2
:104A600080BDFCF7BBB80000B0B592B000241421A3
:104A7000CDE90A44CDE9084401A8FBF706FC21482A
:104A800000940225016841F080510160006800F047
:104A900080500090009800941B48016841F4404108
:104AA0000160006800F440400090042010951190CF
:104AB00060200F900C200E904FF48000CDE90C5038
:104AC0004FF48030079001200690009806A8FCF76C
:104AD000E1F918B1EFF3108072B6FEE74FF48050A1
:104AE0000594CDE90254032104900F20019001A800
:104AF000FCF708F918B1EFF3108072B6FEE712B0B8
:104B0000B0BD00BF4038024000700040024801685C
:104B100041F470010160704788ED00E0FEE7FCF7AA
:104B200067F8FFF7A1FFFDF777FEFDF7D5FEFDF76C
:104B300003FFFEF7F7F800260125012401200121DB
:104B4000FDF750FEE8B221460122FEF735F9FEF7E7
:104B5000E9F836B1013D01262806EFD100260125EE
:104B600006E0681C002645B2002DE7D50126802509
:104B7000601C402C0446E1D3FEF7A4F84020FDF76A
:104B800071FFFBF7FFFBD8E702E008C8121F08C15E
:104B9000002AFAD170477047002001E001C1121FBE
:104BA000002AFBD1704700004E6F20506172616D8A
:104BB000657465722E000000000000000000000017
:104BC00000000000000000000000000000000000E5
:104BD00000000000000000000000000000000000D5
:104BE00000000000000000000000000011000000B4
:104BF000FFFFFFFFFFFFFFFFFFFFFFFFFFFFFFFFC5
:104C000012000000FFFFFFFFFFFFFFFF0F0000008B
:104C1000100000000D0000000B000000FFFFFFFF70
:104C20000C0000000A0000000E0000000000000060
:104C3000010000000200000003000000040000006A
:104C4000050000000600000007000000080000004A
:104C500009000000FFFFFFFFFFFFFFFFFFFFFFFF57
:104C60001300000000000000000000000102030427
:104C70000607080900000000010203040600000006
:104C80000C0000000C000000C50400089904000896
:104C90002B4A0008B90400080000000000000000D2
:104CA000000000000000FC00000000000200000006
:104CB00000000E000E0000000000000090D0BCD0EC
:104CC000BC900003000300001824FE448800010289
:104CD000070201001824D8B04C8000030001020133
:104CE000C038E438800001020201020200000E0018
:104CF0000000000000000000000000F00C020000B6
:104D000000000304020CF000000004030000000097
:104D10009060F86090000000010000002020FC205E
:104D20002000000001000000000000000000080654
:104D300000000000202020202000000000000000D3
:104D40000000000000000002000000000080601869
:104D50000600060100000000F8040404F800010247
:104D6000020201000008FC00000000020302000033
:104D700018844424180003020202020008042424B8
:104D8000D80001020202010040B088FC800000004F
:104D9000020302003C242424C40001020202010098
:104DA000F8242424C8000102020201000C04E414C7
:104DB0000C00000003000000D8242424D8000102C5
:104DC0000202010038444444F800010202020100DA
:104DD0000000300000000000030000000000300070
:104DE00000000004030000000020508804020000BE
:104DF00000000102909090909000000000000000E0
:104E00000002048850200002010000001804C4249D
:104E10001800000002000000F804E4947800010289
:104E20000202020000F09C9CF0000203000003025A
:104E300004FC2424D800020302020100F804040444
:104E4000080001020202010004FC0404F80002034D
:104E50000202010004FC24740C000203020203009D
:104E600004FC24740C00020302000000F804044453
:104E7000CC4001020202010004FC2020FC040203D9
:104E8000000003020404FC04040002020302020006
:104E9000000404FC040402040403000004FC24D005
:104EA0000C0402030200030204FC040000000203DD
:104EB00002020203FC3CC03CFC00030003000300B0
:104EC00004FC30C4FC04020302000302F8040404DE
:104ED000F80001020202010004FC2424180002036D
:104EE00002000000F8848404F800010202070400B4
:104EF00004FC2464980002030200030218242444E2
:104F000088000102020201000C04FC040C000002F3
:104F10000302000004FC0000FC0400010202010086
:104F2000047C80807C040000030300001CE03CE063
:104F30001C00000300030000049C609C04000203AA
:104F400000030200041CE01C040000020302000035
:104F50000C84641C04000203020203000000FE0231
:104F60000200000007040400000E30C00000000032
:104F700000010200000202FE00000004040700001D
:104F80000004020400000000000000000000000017
:104F900000000808080808080000020400000000DB
:104FA000000000000040A0A0C000000102020102B9
:104FB00004FC2020C00000030202010000C02020E9
:104FC000600000010202020000C02024FC00000179
:104FD0000202010200C0A0A0C00000010202020003
:104FE0000020F82424040002030202000040A0A0D4
:104FF000602000070A0A0A0404FC2020C000020303
:10500000000003020020E400000000020302000090
:10501000000020E4000008080807000004FC80A04D
:1050200060200203020003020404FC0000000202EC
:1050300003020200E020E020C000030003000300A0
:1050400020E02020C00002030200030200C0202054
:10505000C00000010202010020E02020C000080F73
:105060000A02010000C02020E0000001020A0F082F
:1050700020E0402020000203020000000040A0A029
:1050800020000002020201000020F82000000000C1
:105090000102020020E00020E00000010202010203
:1050A00020E00000E0200000030300006080E080BA
:1050B0006000000300030000206080602000020305
:1050C0000003020020E020806020080807010000A3
:1050D0000020A06020000002030202000000609E89
:1050E0000200000000070400000000FF00000000B4
:1050F000000F000000029E60000000040700000096
:105100000402020404020000000000000600000087
:10511000000000000C000000B9440008E54400084D
:105120003D45000839450008060000000000000069
:1051300008000000B9440008014500083D4500088A
:1051400039450008040000000000000005000000D0
:10515000CD4400081D4500083D45000839450008BC
:105160000000000000000000000000000000FC0043
:10517000000000000200000000000E000E00000011
:105180000000000090D0BCD0BC90000300030000E1
:105190001824FE4488000102070201001824D8B038
:1051A0004C80000300010201C038E4388000010295
:1051B0000201020200000E000000000000000000DA
:1051C000000000F00C02000000000304020CF000DC
:1051D00000000403000000009060F86090000000F0
:1051E000010000002020FC20200000000100000041
:1051F0000000000000000806000000002020202021
:10520000200000000000000000000000000000027C
:105210000000000000806018060006010000000089
:10522000F8040404F8000102020201000008FC0076
:105230000000000203020000188444241800030246
:105240000202020008042424D80001020202010024
:1052500040B088FC80000000020302003C242424AB
:10526000C400010202020100F8242424C800010243
:10527000020201000C04E4140C0000000300000012
:10528000D8242424D80001020202010038444444F6
:10529000F8000102020201000000300000000000DE
:1052A00003000000000030000000000403000000C4
:1052B00000205088040200000000010290909090AD
:1052C000900000000000000000020488502000024E
:1052D000010000001804C4241800000002000000AF
:1052E000F804E494780001020202020000F09C9CA1
:1052F000F00002030000030204FC2424D80002038F
:1053000002020100F8040404080001020202010084
:1053100004FC0404F80002030202010004FC2474EB
:105320000C0002030202030004FC24740C000203BC
:1053300002000000F8040444CC4001020202010013
:1053400004FC2020FC040203000003020404FC040B
:105350000400020203020200000404FC040402042C
:105360000403000004FC24D00C0402030200030226
:1053700004FC04000000020302020203FC3CC03CE7
:10538000FC0003000300030004FC30C4FC0402031F
:1053900002000302F8040404F80001020202010002
:1053A00004FC24241800020302000000F884840492
:1053B000F80001020207040004FC246498000203C0
:1053C00002000302182424448800010202020100A2
:1053D0000C04FC040C0000020302000004FC0000AA
:1053E000FC04000102020100047C80807C040000B7
:1053F000030300001CE03CE01C000003000300006D
:10540000049C609C0400020300030200041CE01CD6
:1054100004000002030200000C84641C0400020368
:10542000020203000000FE02020000000704040064
:10543000000E30C00000000000010200000202FE69
:105440000000000404070000000402040000000043
:10545000000000000000000000000808080808081C
:105460000000020400000000000000000040A0A0B6
:10547000C00000010202010204FC2020C000000361
:105480000202010000C020206000000102020200B0
:1054900000C02024FC0000010202010200C0A0A004
:1054A000C0000001020202000020F82424040002CF
:1054B000030202000040A0A0602000070A0A0A04BC
:1054C00004FC2020C0000203000003020020E400CE
:1054D0000000000203020000000020E400000808B1
:1054E0000807000004FC80A0602002030200030201
:1054F0000404FC000000020203020200E020E0209D
:10550000C00003000300030020E02020C0000203CD
:105510000200030200C02020C000000102020100BE
:1055200020E02020C000080F0A02010000C0202057
:10553000E0000001020A0F0820E0402020000203E2
:10554000020000000040A0A02000000202020100B2
:105550000020F820000000000102020020E00020EE
:10556000E00000010202010220E00000E020000053
:10557000030300006080E08060000003000300007F
:1055800020608060200002030003020020E02080F1
:1055900060200808070100000020A0602000000231
:1055A000030202000000609E0200000000070400E9
:1055B000000000FF00000000000F000000029E60DD
:1055C00000000004070000000402020404020000BE
:1055D000000000001F111F00001F00001D15170014
:1055E00015151F0007041F0017151D001F151D00AE
:1055F000190503001F151F0017151F0000100000DC
:10560000040E0400040404000A040A001804030041
:10561000000E1100110E0000000000001A040B0023
:105620000A0A0A0000000000000000005F000000FD
:10563000000700070000147F147F1400242A7F2A2B
:1056400012002313086462003649552250000005F9
:1056500003000000001C224100000041221C000049
:10566000082A1C2A080008083E08080000503000DC
:105670000000080808080800003030000000201072
:10568000080402003E5149453E0000427F400000B0
:105690004261514946002141454B31001814127FA7
:1056A00010002745454539003C4A49493000017101
:1056B00009050300364949493600064949291E00B3
:1056C00000363600000000563600000000081422A4
:1056D00041001414141414004122140800000201A3
:1056E00051090600324979413E007E1111117E00B8
:1056F0007F49494936003E41414122007F414122D4
:105700001C007F49494941007F09090101003E41D0
:10571000415132007F0808087F0000417F410000AE
:105720002040413F01007F08142241007F4040405B
:1057300040007F0204027F007F0408107F003E418A
:1057400041413E007F09090906003E4151215E00AA
:105750007F091929460046494949310001017F0165
:1057600001003F4040403F001F2040201F007F209D
:1057700018207F00631408146300030478040300F6
:1057800061514945430000007F4141000204081077
:10579000200041417F00000004020102040040405B
:1057A000404040000001020400002054545478009E
:1057B0007F48444438003844444420003844444836
:1057C0007F00385454541800087E09010200081460
:1057D00054543C007F080404780000447D400000DD
:1057E0002040443D0000007F1028440000417F40DD
:1057F00000007C04180478007C0804047800384415
:10580000444438007C1414140800081414187C0054
:105810007C0804040800485454542000043F4440C9
:1058200020003C4040207C001C2040201C003C40CC
:1058300030403C004428102844000C5050503C009C
:105840004464544C440000083641000000007F00CE
:1058500000000041360800000001020000000000C6
:1058600005000000030000006C5800080103070356
:10587000010000000500000003000000805800083F
:1058800004060706040000001000000010000000DD
:1058900094580008FF010101010101EDED01010132
:1058A000010101FFFF808080808080BFBF808080F9
:1058B000808080FF00000000000000006000000009
:1058C0002D0000000000000000000000800000002B
:1058D000400000000000000000000000C0000000C8
:1058E000600000000000000000000000C000000098
:1058F00080000000416464206974656D20310041BE
:105900006464206974656D203200416464206974A8
:10591000656D203300416464206974656D20340036
:10592000416464206974656D2035004164642069B8
:1059300074656D20360054756E696E6720637572EC
:105940007665005265616C74696D6520677261707F
:1059500068004261736963205061696E7400546528
:105960007874004D656E75004E6F746963652062D2
:105970006F78005661726961626C6520626F7800B1
:105980005375622031004974656D20310053756292
:105990002032004974656D20320053756220330057
:1059A0004974656D20330053756220340049746575
:1059B0006D2034004974656D2035004974656D2093
:1059C00036004974656D2037004974656D203800D4
:1059D00050726573732054414220746F207377694D
:1059E00074636820666F6375732E0A557026446F62
:1059F000776E20746F206368616E67652076616CD6
:105A000075652E0A53656E6420225350414345222A
:105A100020746F20636F6E74696E75652E000000D0
:105A2000405A0008000000208803000028030008F6
:105A3000E05B000888030020681C0000984B000809
:105A40004132015A100813F4580210080A11FF14C9
:105A50000B100A59140A1115140A1120140A112BDB
:105A60001413300DDB208018DA8D10DA9A10DAA7C3
:105A7000101AD46F3205500D5661726961626C65FF
:105A800020626F781324F41328011B2064041A7019
:105A9000041A58041A34041A40041A10041A1C0474
:105AA0001A4C041A7C0423ED0313780242201AF1E5
:105AB0000C5A8C0C1AEB0C5AA00C1AF00C5AB40CA1
:105AC0001AEC0C5AC80C1AF20C5ADC0C1AEF0C5ACD
:105AD000F00C1AEA0C4B04030C1AEE0C5A180C1AB0
:105AE000F30C5A580CDA52CCDA5E10DA7310DA433F
:105AF00010DA6310DA6810DA3610DA8610DA9310EA
:105B0000DAA010DAAD10DAB410DABB10DAC210DAAB
:105B1000C910411329121B0885041A57041A1104CD
:105B2000139913140891141408C5151B08A5081A15
:105B3000790413E9161408B9171C0839191819083B
:105B40001A3D041A490C1A950413C91A1B08BD08FA
:105B50001A81041ADD0C131D1B1B0889041A590431
:105B60001A0504411ABF081AFD041AD1041AA10427
:105B70001B151C4019041AD1041A81041A29044166
:105B800013BD1D1408711E1B0819041A8D0C1BB5BA
:105B9000202812211C0845236C19081A29043201F7
:105BA0003209327E323113E015142044033320329F
:105BB0002DCEFFFFFF20B2031AEB481BA51F44198F
:105BC000541AA50C401941424344454647313233EB
:105BD000343536373839302B2D2A2F4F50510000AD
:040000050800019955
:00000001FF
