:020000040800F2
:10000000081D0020B50200081B2D0008312800083B
:10001000192D000847060008114E000800000000D6
:10002000000000000000000000000000354D000846
:100030004906000800000000F92E00086B4D00087A
:10004000CF020008CF020008CF020008CF0200084C
:10005000CF020008CF020008CF020008CF0200083C
:10006000CF020008CF020008CF020008CF0200082C
:10007000CF020008CF020008CF020008CF0200081C
:10008000CF020008CF020008CF02000800000000E5
:10009000000000000000000000000000CF02000887
:1000A000CF020008CF020008CF020008CF020008EC
:1000B000CF020008CF020008CF020008CF020008DC
:1000C000CF020008CF020008CF020008CF020008CC
:1000D000CF020008CF020008CF0200080000000095
:1000E000CF020008CF020008CF0200080000000085
:1000F000000000000000000000000000CF02000827
:1001000000000000CF020008CF020008CF02000864
:1001100000000000000000000000000000000000DF
:10012000CF020008CF020008CF020008CF0200086B
:10013000CF020008000000000000000000000000E6
:10014000000000000000000000000000CF020008D6
:10015000CF020008CF020008CF020008CF0200083B
:10016000CF020008CF0200080000000000000000DD
:10017000000000000000000000000000000000007F
:1001800000000000CF020008000000000000000096
:10019000CF020008CF02000800F002F800F060F87B
:1001A0000AA090E8000C82448344AAF10107DA45D2
:1001B00001D100F055F8AFF2090EBAE80F0013F0C4
:1001C000010F18BFFB1A43F00103184748620000F3
:1001D000686200000A444FF0000C10F8013B13F075
:1001E000070408BF10F8014B1D1108BF10F8015B90
:1001F000641E05D010F8016B641E01F8016BF9D183
:1002000013F0080F1EBF10F8014BAD1C0C1B09D1D9
:100210006D1E58BF01F801CBFAD505E014F8016B4B
:1002200001F8016B6D1EF9D59142D6D370470000DD
:100230000023002400250026103A28BF78C1FBD8EF
:10024000520728BF30C148BF0B6070471FB504F08C
:10025000F4FE00F0DCF800F089F91FBD10B510BD08
:1002600000F0B8F91146FFF7F1FF04F07DFE00F051
:10027000D6F903B4FFF7F2FF03BC00F0DDF900008C
:100280000B49D1F800C04A685CF8043B1068184478
:1002900042F8040B8C4528BFA1F1DC0C8A4228BF30
:1002A000A1F1DC02C1F800C04A6020F000407047B4
:1002B000A01600200948804709480047FEE7FEE7EE
:1002C000FEE7FEE7FEE7FEE7FEE7FEE7FEE7FEE706
:1002D00004480549054A064B70470000014E0008D6
:1002E0009901000808170020081D002008190020A7
:1002F0000819002053EA020C00F069802DE9F04B48
:100300004FF00006002B1FBFB3FA83F503FA05F484
:1003100024FA05F65E4012BF1643B2FA82F502FADD
:1003200005F4C5F120051EBF22FA05FC44EA0C04C1
:10033000203556EA044C4FEA144418BF641C4FF0B1
:1003400000084FF00009904271EB030C39D30029EB
:1003500019BFB1FA81F701FA07F6B0FA80F700FA8F
:1003600007F6C7F120071EBF20FA07FC46EA0C0675
:100370002037B6FBF4FCA7EB0507103F07F01F0B77
:10038000CBF120060CFA0BFB2CFA06F644BFB34661
:100390000026202FA4BF5E464FF0000B5BEA060C40
:1003A00008BF4FF0010B19EB0B09ABFB027C48EBCC
:1003B0000608C01B06FB02CC0BFB03CC71EB0C0147
:1003C000C1E70B46024641464846BDE8F08B13B5EF
:1003D0004FF000004FF00001AFF30080BDE81C407B
:1003E000704700000B4910B5A1F17C020A4CC2E92C
:1003F0003712372106E000EB104342F82130074B5B
:1004000000FB03400B1EA1F10101F4DC10BD012033
:10041000E8E7000040160020E119D666CD0D010086
:1004200010B5431C02E010F8011B71B18107FAD12D
:100430004FF0013202C88C1A8C4314EAC211F9D071
:10044000C01A0A0603D0C01E10BDC01A10BD0A048F
:1004500001D0801E10BD0902FCD0401E10BD10B599
:10046000203AC0F00B80B1E81850203AA0E81850AC
:10047000B1E81850A0E81850BFF4F5AF5FEA027C6D
:1004800024BFB1E81850A0E8185044BF18C918C0DC
:10049000BDE810405FEA827C24BF51F8043B40F87D
:1004A000043B08BF7047D20728BF31F8023B48BF62
:1004B00011F8012B28BF20F8023B48BF00F8012BA0
:1004C00070474FF0000200B5134694469646203917
:1004D00022BFA0E80C50A0E80C50B1F12001BFF4FD
:1004E000F7AF090728BFA0E80C5048BF0CC05DF863
:1004F00004EB890028BF40F8042B08BF704748BFB1
:1005000020F8022B11F0804F18BF00F8012B704724
:1005100010B5044610F0030F08BF11F0030F40F0B0
:1005200015804FF0013E121FC0F20E8051F8043BBF
:10053000A3EB0E0C2CEA030C1CEACE1C08BF40F8FF
:10054000043BF0D0A1F1040102F10402521E08DBC9
:1005500011F8013B002B00F8013BF7D1114600F0E8
:1005600017F8204610BD70477047704770B5064CAD
:100570007C44064D7D4403E0206820448047241DD0
:10058000AC42F9D170BD0000C05E0000C05E00004A
:100590004FF000020429C0F0128010F0030C3FF469
:1005A00092AFCCF1040CBCF1020F18BF00F8012B84
:1005B000A8BF20F8022BA1EB0C01FFF784BF5FEA74
:1005C000C17C24BF00F8012B00F8012B48BF00F8C4
:1005D000012B7047754600F02BF8AE4605006946C2
:1005E000534620F00700854618B020B5FFF770FE8F
:1005F000BDE820404FF000064FF000074FF0000824
:100600004FF0000B21F00701AC46ACE8C009ACE8A4
:10061000C009ACE8C009ACE8C0098D46704710B508
:100620000446AFF300802046BDE81040FFF721BE2E
:1006300000487047A816002001491820ABBEFEE70D
:10064000260002007047FEE770471FB502F076FAF9
:10065000002400F0B5F9064600254FF47A7704F03F
:1006600077FB90B1002003901020029002200090B0
:100670000190FFF705FEC82190FBF1F201FB12008B
:1006800064380390684602F06DF800F099F9801B19
:10069000B842E4D300F094F9064625B1002002F0F8
:1006A00045F80025DBE70A2C30D2DFE804F0050925
:1006B0000F13171B1F23272B002140F2EF3002E0FE
:1006C000002140F2E93002F08FF821E0002140F2F1
:1006D000EA30F8E7002140F2EB30F4E700214FF474
:1006E0007B70F0E7002140F2ED30ECE7002140F2B2
:1006F000EE30E8E700214FF47C70E4E7002140F29F
:10070000F130E0E7002140F2F230DCE74FF0FF3457
:100710000125641CA3E772B6FEE7000010B5074C84
:100720002318002909D0002005E000BF13F8014B71
:1007300001F8014B401C9042F8D310BD345E000814
:100740007F2801D2002070470120704730B5A0F10A
:100750001A024FF0FF31652A01D2911F25E0A0F562
:100760002144A13C40F65E05C3B2C0F30722AC426F
:1007700009D2A13AC2EB021000EB421003EB400099
:100780006FF0E2010FE0A0F5304044F25E74A13852
:10079000A0420AD2B03AC2EB021000EB421003EBC7
:1007A000400040F2B95101EB4001084630BD000065
:1007B00070B5044600F004F90546601C02D00448F8
:1007C0000078044400F0FCF8401BA042FAD370BD4E
:1007D000040000202DE9F84FDFF8B8A10022012421
:1007E0000AF1040B03254FF00F090BF1040E00BFB3
:1007F0000B6804FA02F63340B34273D10F7907F065
:100800000307012F01D0022F16D187684FEA420853
:1008100005FA08FC27EA0C07D1F80CC00CFA08FC12
:100820004CEA070CC0F808C04768B7430E79C6F316
:10083000001696403E4346600E79F643B6070DD04B
:10084000C768560005FA06FC27EA0C07D1F808C06D
:100850000CFA06FC4CEA070CC0F80CC00E7906F046
:100860000306022E10D1D60800EB8608D8F82060C7
:1008700057074FEAD76C09FA0CF7BE430F6907FA1E
:100880000CF73743C8F8207006684FEA420C05FAA7
:100890000CF7BE430F7907F0030707FA0CF737434D
:1008A00007604E6816F4403F6DD03B4E376847F402
:1008B00080473760366822F0030706F480460096CA
:1008C000364E07EB060CDCF8086897073F0F09FA6D
:1008D00007F826EA0806DFF8C880404503D14FF044
:1008E00000081EE04FE0DFF8BC80404502D14FF029
:1008F000010816E0DFF8B080404502D14FF0020851
:100900000FE0DFF8A880404502D14FF0030808E06F
:10091000DFF89C80404502D14FF0040801E04FF021
:10092000070808FA07F848EA0608CCF80888DAF851
:1009300000605746D1F804C09E435FEACC3C00D526
:100940001E433E60DBF800605F46D1F804C09E4362
:100950005FEA8C3C00D51E433E60DEF800607746BF
:10096000D1F804C09E435FEACC2C00D51E433E6004
:10097000084F0C373E68D1F804C09E435FEA8C2CC8
:1009800000D51E433E60521C102AFFF431AFBDE873
:10099000F88F0000003C0140443802400030014024
:1009A000000002400004024000080240000C024027
:1009B000001002400AB1816170470904FBE70000A2
:1009C00001488068704700000400002070B50400F2
:1009D00025D094F83D00002520B984F83C502046ED
:1009E00000F0E6F9242084F83D002068016821F039
:1009F000010101602068016841F400410160206844
:100A0000016821F40041016000F02CFB4D4A61684F
:100A1000914201D84C4900E04C49884201D2012062
:100A200070BD4B492368B0FBF1F15E6826F03F06CC
:100A30000E435E606368934206D94FF49673594340
:100A40004FF47A73B1FBF3F12368491C1E6A26F058
:100A50003F06314319626168914210D84900401E37
:100A6000B0FBF1F2521CC2F30B02042A01D20420A3
:100A700022E0B0FBF1F0401CC0F30B001CE0A268C8
:100A8000F2B301EBC10303EB0116431EB3FBF6F314
:100A90005B1C43F480431B0549D092B301EBC102B8
:100AA00002EB0111401EB0FBF1F0401CC0F30B0043
:100AB00040F4804040F400402168CA694CF6FF735E
:100AC0009A431043C861D4E90710014320680268C3
:100AD00022F0C00211430160D4E903010143206800
:100AE000826848F2FF339A4311438160D4E90501DB
:100AF00008432168CA6822F0FF021043C86001E081
:100B00000EE016E02068016841F0010101602564F3
:100B1000202084F83D00256384F83E50002070BDFD
:100B200001EB4106431EB3FBF6F35B1CB3E7012068
:100B3000C2E701EB4101401EB0FBF1F0401CC0F3E5
:100B40000B00B7E7A086010080841E0000093D006D
:100B500040420F002DE9F84F1F4690468A46044652
:100B6000DDF82890FFF72CFF054694F83D0020287B
:100B70007FD11923012240492046009501F038FF1A
:100B8000002876D194F83C00012872D0012084F826
:100B90003C0020680168C90703D1016841F00101E8
:100BA00001602068016821F400610160212084F85F
:100BB0003D00102084F83E0000262664C4F82480FE
:100BC0006785608D20852D48E0622B464A46514658
:100BD000204601F045FE90B9206841698069009087
:100BE00036E02A464946204601F081FF50B1206C8C
:100BF000042804D12068016841F4007101600120DB
:100C0000BDE8F88F606A216800780861606A401C5E
:100C10006062618D491E6185218D491E89B22185E1
:100C200022685369DB435B070BD451B10078106134
:100C3000606A401C6062608D401E6085208D401E91
:100C400020852A464946204601F0ACFE0028CED138
:100C5000208D0028C5D154F83D0B016841F4007186
:100C60000160202004F81E09E67766770020C7E7B8
:100C7000FFE70220C4E70000020010000000FFFFB1
:100C80002DE9FF4F83B09A46DDE91197934604465C
:100C9000DDF84080FFF794FE054694F83D002028DB
:100CA0007FD11923012240492046009501F0A0FE82
:100CB000002876D194F83C00012872D0012084F8F5
:100CC0003C0020680168C90703D1016841F00101B7
:100CD00001602068016821F400610160212084F82E
:100CE0003D00402084F83E0000262664C4F824809D
:100CF000A4F82A90608D20852C48E062CDE900752B
:100D000053465A462046049901F0F8FD70B930E088
:100D10002A463946204601F0EAFE58B1206C0428E4
:100D200004D12068016841F400710160012007B01E
:100D3000BDE8F08F606A216800780861606A401C35
:100D40006062218D491E89B22185628D521E6285A5
:100D500022685369DB435B070BD469B100781061EB
:100D6000606A401C6062208D401E2085608D401EA0
:100D70006085208D0028CBD12A463946204601F0D7
:100D800011FE0028CAD154F83D0B016841F40071EE
:100D90000160202004F81E09E67766770020C6E788
:100DA000FFE70220C3E70000020010000000FFFF81
:100DB00010B586B0044614216846FFF782FB13493C
:100DC0002068884220D112480021026842F00202C5
:100DD0000260006800F002000590C0200090122020
:100DE000CDE90101032003900420049069460948DD
:100DF000FFF7F0FC06481030016841F40011016073
:100E0000006800F40010059006B010BD00540040CA
:100E100030380240000402400248816802781144E0
:100E200081607047040000200B4810B5016841F450
:100E300000710160016841F480610160016841F462
:100E400080710160032000F061F80F2000F006F8C7
:100E500000F024F8002010BD003C024070B50D4D9C
:100E600004464FF47A712878B1FBF0F00A4909681A
:100E7000B1FBF0F000F0EEFA48B9102C07D20022D6
:100E80002146501E00F022F800206C6070BD012049
:100E900070BD000004000020100000200A4808B5C2
:100EA000016841F480410160006800F480400090D6
:100EB0000548001F016841F080510160006800F0A2
:100EC0008050009008BD000044380240F0B40E4B42
:100ED0001B680C46C3F30223C3F10705042D00D998
:100EE0000425191D072901D2002300E0DB1E01267D
:100EF00006FA05F1491E214099409E40761E164093
:100F00003143F0BC03F085BF0CED00E0064900F072
:100F1000070208684FF6FF03184040EA0220034A20
:100F200010430860704700000CED00E00000FA0577
:100F30002DE9F0470E46050065D0DFF81481D8F89A
:100F40000000F7B200F00700B04207D288F8007046
:100F5000D8F8000000F00700B04254D128683D4C9A
:100F6000810712D5400703D5206840F4E050206087
:100F70002878000703D5206840F46040206020688E
:100F8000A96820F0F000084320602878C0072DD021
:100F9000304968680839012812D0022813D0032884
:100FA00011D00968890700292DDA216821F0030191
:100FB00001432160FFF704FD814641F2883A0EE0CB
:100FC00009688903EFE709688901ECE7FFF7F8FC96
:100FD000A0EB0901514502D90320BDE8F087206844
:100FE000696800F00C00B0EB810FEFD1D8F8001069
:100FF000404601F00701B14207D90770006800F0D0
:101000000700B04201D00120E7E72878400705D566
:101010002068E96820F4E050084320602878000741
:1010200006D52068296920F4604040EAC1002060AC
:1010300000F028F82168084AC1F30311515CC84048
:101040000649086006480068FFF708FF0020C4E76B
:10105000003C0240083802404450000810000020C4
:10106000080000200448054900680968044AC1F3E3
:101070008221515CC84070471000002008380240AF
:1010800054500008154810B5006810F00C021448C0
:1010900013D01449042A0FD0082A0ED10F4C241F54
:1010A0002268236802F03F025B0207D52068C0F384
:1010B0008810A0FB010106E0084610BD2168C1F3BD
:1010C0008811A1FB00010023FFF714F92168C1F387
:1010D0000141491C4900B0FBF1F010BD0838024045
:1010E0000024F40040787D012DE9F84F04006ED013
:1010F0002078DFF84C93C007A9F104054AD009F124
:1011000004000168C1F38101012908D00068C0F31F
:10111000810002280AD1D9F80000400206D52868CB
:10112000800337D560680028E1D033E06068B0F50F
:10113000803F10D0B0F5A02F286810D020F4803068
:101140002860286820F4802028606068A8B1FFF734
:1011500037FC06460DE0286840F48030F4E740F4A0
:1011600080202860F7E700BFFFF72AFC801B642877
:1011700073D828688003F7D50CE0FFF721FC0646FA
:1011800005E000BFFFF71CFC801B6428F0D828682E
:101190008003F7D42078DFF8AC8280074FF0000A94
:1011A0003ED5A748001D016811F00C0F08D000685B
:1011B000C0F3810002280BD1D9F80000400207D407
:1011C0002868800716D5E068012800D112E033E1D5
:1011D000E068B8B10120C8F80000FFF7F1FB06464F
:1011E00005E000BFFFF7ECFB801B0228C0D8286891
:1011F0008007F7D52868216920F0F80040EAC1008F
:1012000028600DE0C8F800A0FFF7DAFB064604E00E
:10121000FFF7D6FB801B02281FD828688007F7D469
:101220002078000722D5864F87486169703771B1F1
:1012300001210160FFF7C4FB064604E0FFF7C0FB95
:10124000801B022809D838688007F7D50EE0C0F85F
:1012500000A0FFF7B5FB064605E082E0FFF7B0FB14
:10126000801B02287DD838688007F7D42078400793
:1012700068D5DFF8CCB100270BF13C0BDBF80000A0
:10128000C0000BD4DBF8001041F08051CBF8001007
:10129000DBF80000012700F0805000906B4E3068B2
:1012A000C00510D4306840F480703060FFF788FBD0
:1012B000009005E0FFF784FB0099401A022850D8FF
:1012C0003068C005F6D55E4EA0686C3601280FD098
:1012D0000528306810D020F001003060306820F020
:1012E00004003060A068B8B1FFF76AFB00900FE01F
:1012F000306840F00100F4E740F004003060F7E7A8
:10130000FFF75EFB0099411A41F28830814266D8AE
:1013100030688007F4D50EE0FFF752FB009007E03D
:10132000FFF74EFB0099411A41F28830814256D8AE
:1013300030688007F4D42FB1DBF8001021F0805121
:10134000CBF80010A069C8B33D49091D0968C1F375
:10135000810102294AD00228504607D0C8F860000F
:1013600000E03CE0FFF72CFB04463BE04746C8F8B2
:101370006000FFF725FB064605E000BFFFF720FBF6
:10138000801B02282BD828688001F7D4D4E90701F4
:101390000843A16A2E4A490802EB0141626A41EA08
:1013A0008211084394F82C1040EA0161C9F800103A
:1013B00001203866FFF704FB044606E03EE000BF6C
:1013C000FFF7FEFA001B022809D828688001F7D52C
:1013D00034E000BFFFF7F4FA001B022802D9032013
:1013E000BDE8F88F28688001F4D427E00128F7D001
:1013F000D9F80000E26900F4800191421CD1226A10
:1014000000F03F01914217D147F6C071626A014076
:10141000B1EB821F10D1A26A4FF0FF3300F44031CC
:1014200003EB5202B1EB024F06D194F82C1000F0FE
:101430007060B0EB016F01D00120D1E70020CFE751
:101440000438024000004742800E474200700040CE
:101450000000FFFF10B5401EB0F1807F01D30120D6
:1014600010BD4FF0E02460610F21601703F0D1FC44
:101470000020A06107202061002010BD70B504008D
:101480004FF001056FF001060CD0481C03D0204638
:1014900001F038F901E02068006818B1A060034845
:1014A000046000E03546284670BD000014000020AE
:1014B00010B5002904DB022A02D1002001F036F920
:1014C000012010BD3EB50446406A0D4608B1804774
:1014D0000AE000206168CDE9001002900246014652
:1014E0002046236801F081FF2946204600F015F8C8
:1014F00001203EBD10B50C6801200023012C08D14D
:101500008C68102C01D0C01E03E04968012900D16D
:101510000223002A00D0136010BD2DE9FF470025EB
:101520008146012409E00094D9F8002048462B4662
:101530000021521E01F0DBFE6D1DD9F80400A84207
:10154000F1DC1425CDE90054022601221E231146A8
:101550004846029601F049FFCDE9005400271E23BA
:10156000162201214846029701F03FFFCDE90054C1
:101570001E232B2201214846029401F036FFCDE9BB
:1015800000540523012225214846029601F02DFF33
:10159000CDE900540523162225214846029701F083
:1015A00024FFCDE9005405232B222521484602942F
:1015B00001F01BFFCDE9004609230A2237214846E6
:1015C00001F0ECFDCDE9004709231F2237214846F1
:1015D00001F0E4FD009409233422372148460194A8
:1015E00001F0DCFD4FF00408CDE90246CDE90058DA
:1015F0001E2301224621484601F057FFCDE902474C
:10160000CDE900581E2316224621484601F04DFF21
:101610000095CDE901841E232B22462148460394E0
:1016200001F043FF4FF00608CDE90246CDE900582E
:10163000142301226921484601F037FFCDE9024712
:10164000CDE90058142316226921484601F02DFFE8
:101650000095CDE9018414232B2269214846039487
:1016600001F023FF04B00120BDE8F08730B589B058
:10167000012100910A21019101686FF06304891E24
:101680000291406869461438CDE903046420CDE92D
:1016900005040790224802F0A3F900F043F822461F
:1016A0000546114602F0AAF929461D4802F015F92F
:1016B00000F038F800220546114602F09FF929464D
:1016C000174802F00AF900F02DF805464B22642174
:1016D00002F094F92946124802F0FFF8012110485F
:1016E00002F036F900F01EF8054622466FF04A0176
:1016F00002F084F929460A4802F0B0F900F012F825
:1017000004461922322102F079F92146044802F0F8
:1017100080F90021024802F01BF909B0012030BD18
:10172000480A002000200A4A014600BF52F8213032
:101730001BB1491C1429F9DB7047054B01EB410033
:10174000503303EBC000012342F821307047000002
:10175000780A002010B5002904DB022A02D10020FB
:1017600000F0E4FF012010BD10B500F0A1F8002149
:10177000024802F0EDF8012010BD0000480A0020E8
:101780002DE9F74F494C0D469046E06A6A680026FD
:101790004FF0010B0146012A1BD1AA8940F23B17E9
:1017A000C2F30B02A2F23B13BA4228D009DC092A89
:1017B00010D01B2A0CD07F2A50D0B2F59D7F6DD15E
:1017C00029E0012B2DD0022B1FD0072B66D130E052
:1017D000022663E029B1009802F068F9012802D0DE
:1017E00005E0206A05E03149009802F0BFF8E06AA0
:1017F0004069E0620021009800F05AF84EE0E0B342
:10180000D0E901122948521C10E0B0B3D0E901120E
:101810002648521E0AE080B3D0E901122348491E2F
:1018200004E050B3D0E901122048491C02F093F9BA
:10183000E0E7FFF777FF070030D00021A26902F050
:10184000DDF8A8890421B1EB103F1848394602D1D0
:1018500002F004F9CEE702F0DCF8CBE70F001DD070
:101860003946124802F02EF90128C3D100240F4D49
:10187000A1468035A5F1500A00E00FE004EB4400DA
:1018800005EBC000B84205D118213846FEF719FE15
:101890004AF82490641C142CEEDBABE7B8F1000F7F
:1018A00001D0C8F800605846BDE8FE8F480A002005
:1018B0003EB5044640680125CDE9000500210291AE
:1018C0000A462046236801F090FD0920CDE9000575
:1018D00023680246012120469B1E01F01BFD626821
:1018E00001210A3ACDE90025236820469B1E01F01C
:1018F00011FD204600F00CF80449204602F0FBF8E8
:101900000249204602F032F801203EBD480A00207C
:101910002DE9F04F8DB000248346012007940694F2
:1019200030260290CDE903060820059006ADCDE9EA
:10193000005402AB254A26A1584603F035F9274941
:10194000C86A00283ED0DBF804204FF02008093A8E
:10195000CDF80080CDE9032689464FF0FF3A406874
:1019600053460A2208A901F043FFCDE90054074677
:1019700002AB164A08A9584603F016F9134E02980E
:1019800002AB3168009507FB0100CDE9014032460A
:1019900013A1584603F008F902983168CDF8008089
:1019A00008440290D9F82C0053460A22806808A9FE
:1019B00001F01EFFCDE9005402AB324608A958469B
:1019C00003F0F2F80DB0BDE8F08F00007850000889
:1019D000466F63757365642000000000480A0020AC
:1019E0002C00000010B5044686B074210B48FEF7A9
:1019F00068FD0020029003902068049060680590C4
:101A000007210748CDE9000106A30A4A02A90348B5
:101A100002F06DFB06B0012010BD0000F00D0020AB
:101A2000840000204C69737420436F6D706F6E6585
:101A30006E747300A862000810B5012A02D0022A51
:101A40002CD02EE01848C06A08282AD2DFE800F01F
:101A500004080C1014181C20002140F2ED301AE08C
:101A6000002140F2EA3016E0002140F2EE3012E0B0
:101A7000002140F2EF300EE000214FF47C700AE0CC
:101A80000AA14FF47B7006E0002140F2F13002E041
:101A9000002140F2F23000F0A7FE02E0002000F04A
:101AA00045FE012010BD0000F00D00205468697350
:101AB00020697320612074657374206E6F7469638C
:101AC000652E000010B5024902F087FB012010BD11
:101AD000F00D00202DE9FE4F83460868002792464E
:101AE0004FF00109012804D18868102802D06FF056
:101AF0000109B2E04868012834D18889614BC0F3FC
:101B00000B0C40F23B18D3E90A6100255E4CACF2A5
:101B10003B1203F11000C44527D013DCBCF17F0F4A
:101B20004ED006DCBCF10D0F1BD0BCF11B0F19D140
:101B300019E0BCF59C7F6FD0ACF5807CBCF1390C12
:101B400010D16AE0022A14D0072A4DD04E4C4F4ED5
:101B5000743C492A206806EB001011D04B2A7CD136
:101B60001AE0012779E0022777E0002971DD491E9C
:101B700003E0761EB1426CDA491C02F0A7FA68E075
:101B8000C168CDE90015029590E80E00584601F0B5
:101B90002CFC2078401C0AE0C168CDE900150295B4
:101BA00090E80E00584601F020FC2078401E00F01E
:101BB000030006EB00112060324802F057FB48E0BA
:101BC0000026304802F0F4FA06EB860104EB8101AE
:101BD000814205D106EB860004EB8000056138E008
:101BE000761C062EF0D334E05FF0000000EB80029C
:101BF00004EB820212691AB1401C0628F6D328E0D1
:101C0000002E00DC002100EB80000A4604EB80047B
:101C1000214630E020611CE011E0002000EB800153
:101C200004EB8101096919B1401C0628F6D310E0C4
:101C300000EB800004EB80010C4600221BE000203A
:101C400000EB800104EB8101096971B1401C062899
:101C5000F6D30C49584602F0C0FABAF1000F01D091
:101C6000CAF800704846BDE8FE8F00EB800004EB28
:101C700080010C463246034802F085FA0028C9D09C
:101C80000120C7E7F00D0020F4000020F45D0008FB
:101C900010B5024902F0A1FA012010BDF00D00209C
:101CA00000B585B0002001900290302003903C20C8
:101CB000049054210648FEF704FC08200090054BD0
:101CC000054A01A9024802F008FB05B0012000BD49
:101CD000640E0020900100207850000810B5022A00
:101CE00002D1002000F022FD012010BD3EB50446C7
:101CF00000206168CDE900100290024601462046AE
:101D0000236801F072FB0349204602F03DFB0120ED
:101D10003EBD0000640E00202DE9F04782460868B1
:101D20000126002588B0174601286AD18868102846
:101D300001D0AE1E65E04868012862D18889344C24
:101D4000C0F30B01334A20680D2900F1100308D0BD
:101D50001B2926D0A1F580713B393DD0022950D1F5
:101D600044E082421BD1C16A03AA184601F03FFF3A
:101D70002848274B543020600420009025488433A5
:101D8000254A03A9543002F0A8FA224903AA543183
:101D9000504602F0C8FA5046216802F0F5FA0125D3
:101DA0002FE09146824201D102252AE08368A046B5
:101DB000002B0EDD0024C168CDE900140294D0E9A7
:101DC0000012504601F011FBD8F800008460C8F8FA
:101DD0000090D8F8001005E0C16A002911DD18460E
:101DE000491E0AE0504602F0CFFA0AE0C16A806A52
:101DF000401E814205DA1846491C02F067F9216845
:101E0000F0E707B13D6008B03046BDE8F08700005C
:101E10008C010020640E002078500008034910B5A2
:101E2000096802F0B1FA012010BD00008C01002009
:101E300010B5044641210748FEF743FB0548A0F1D1
:101E400018010860002048600831204602F003FBBA
:101E5000012010BD240F002010B5002904DB022A48
:101E600002D1002000F062FC012010BD10B5044634
:101E70004FF0400279B10A48FEF74AFB08480021BA
:101E800080F8401006490023064A1839204602F01F
:101E9000F0FA012010BD04A10148FEF739FBF1E77B
:101EA000240F0020A86200084E6F20506172616DFF
:101EB000657465722E00000010B50C6801200023C7
:101EC000012C0AD14C68012C07D18989C1F30B017F
:101ED0000D2901D01B2900D10223002A00D0136054
:101EE00010BD000010B50023024A034902F0C1FAF8
:101EF000012010BDA86200080C0F002010B50029B9
:101F000007DB022A05D1002000F0F7FF002000F0D7
:101F10000DFC012010BD70B50446406A0D46804797
:101F20002946204600F015F8012070BD10B54C6818
:101F300001200023012C08D18C68102C01D0C01E78
:101F400003E089891B2900D10223002A00D01360F5
:101F500010BD1CB502220121CDE900121F231A4633
:101F6000194601F01BF901201CBD0000044902685C
:101F7000921E8A6040680F38C860012070470000D8
:101F8000C402002010B5002907DB022A05D1002079
:101F900002F0DDFE002000F0C9FB012010BD0000B2
:101FA0003EB504460A4802F054FB60680022012155
:101FB0008DE8070011462046236801F016FA04490F
:101FC000204602F083FB012002F0C1FE01203EBD4D
:101FD000C40200202DE9F0411646074601244A6854
:101FE0000025E01E012A02D0022A18D109E08A68E1
:101FF000102A09D18889C0F30B001B280FD10225B4
:102000000DE08A68102A01D0044608E0CA68064933
:10201000384602F0D3FA0021384600F007F806B13E
:1020200035602046BDE8F081C4020020F0B58DB0D7
:102030000546406801260024CDE9000602942246A8
:10204000214628462B6801F0D0F9039604962868AB
:1020500007AF801E05900820CDE90604CDE9007485
:1020600003AB174A17A12846089402F09DFD2020D3
:1020700000901848221F04230069D0F8041602EBD0
:1020800081010A22405809A901F0B2FB0396686851
:1020900003AB801F049028680F4A801E059005201E
:1020A000CDE90604CDE9007409A92846089402F098
:1020B0007BFD0849284602F009FB0DB00120F0BD68
:1020C000785000085265616C74696D6520677261B3
:1020D00070680000C40200205C50000810B50029A0
:1020E00004DB022A02D1002000F020FB012010BDF9
:1020F00010B5002904DB022A02D1002000F016FBF3
:10210000012010BD3EB50446406A0D4608B1804727
:102110000AE000206168CDE9001002900246014605
:102120002046236801F061F92946204600F040F876
:1021300001203EBD3EB50446406A0D4608B18047C9
:102140000AE000206168CDE90010029002460146D5
:102150002046236801F049F92946204600F0C4F8DA
:1021600001203EBD10B50C6801200023012C08D1D0
:102170008C68102C01D0C01E03E04968012900D1F1
:102180000223002A00D0136010BD10B50C68012096
:102190000023012C08D18C68102C01D0C01E03E054
:1021A0004968012900D10223002A00D0136010BD24
:1021B0002DE9F04389B00024012602968146069459
:1021C0003E2507942948CDE90365806806AF401C89
:1021D0000590CDE9007402AB244A25A1484602F0DF
:1021E000E3FC0599039802AB0844CDE903052448B4
:1021F000234A24A18068401C0590CDE9007448461C
:1022000002F0D2FC0599039802AB0844CDE903051E
:102210002148214A21A1806800F10108CDF81480ED
:10222000CDE90076484602F0BFFC059903980DF110
:102230000C0C08448CE82101CDE9007402AB1A4A69
:102240001AA1484602F0B0FCCDE90365059540208F
:102250000094CDE9014002AB134A19A1484602F0AF
:1022600023FC09B00120BDE8F08300005C500008A9
:10227000312B322B382F342A353D3133000000000A
:102280007850000848656C6C6F2053696D706C6500
:10229000204755492E0000009450000857656C6394
:1022A0006F6D652100000000A86200084920646F7E
:1022B0006E2774206C696B6520746869732E00004A
:1022C0004D756C74696C696E652064656D6F207402
:1022D00065787420776974682031322D706978656B
:1022E0006C20666F6E742E002DE9F0418AB0804636
:1022F000012000248026CDE904401249CDE90606DC
:102300008D6803AF6D1CCDE900701E210895039107
:1023100005AB0C4A0CA1404602F046FC0899069811
:1023200008950844CDE90606CDE9007405AB054AD9
:1023300009A10394404602F037FC0AB00120BDE831
:10234000F081000094500008576541637420537475
:102350007564696F000000004F4C4544204D6F6468
:10236000756C652C4949432C35564D617800000049
:10237000F0B589B004004FF00400039004904FF0D2
:1023800000054FF00C00CDE906050E4608952BD050
:1023900020680127083805906068CDE9000702959C
:1023A000002211462046236801F01FF860680221D0
:1023B000001FCDE90007029123680A4620461B1F33
:1023C00001F013F81120CDE9000702467C23032118
:1023D000204600F09FFF07A8CDE9000503AB034AA4
:1023E0003146204602F0E0FB09B0F0BDA8620008CB
:1023F00030B51A4904468FB00020C86001208DF81E
:102400001C006FF0310004906420059014480C25E6
:102410001A210690CDE9005121681839029180688F
:10242000039069460F4802F074F82A21CDE908515B
:102430000D480C90216818390A9180680B90074864
:102440001030FDF7EDFF0D90044A0648103208A940
:10245000243002F067FA0FB0012030BD1C030020C9
:1024600078500008701500209450000810B500291D
:1024700007DB022A05D1044905208860002000F00E
:1024800055F9012010BD00001C03002010B586B0D6
:1024900004460E4A0C4801905068009002F1290150
:1024A00020461160FFF764FF204602A901F0D3FF28
:1024B0000023074A6946204601F0DBFF012000F0B7
:1024C0001CFD06B0012010BDC05D00081C030020EB
:1024D000785000082DE9FF5F8346694B0120039087
:1024E000002598689246A84600281FDD0A68012A40
:1024F00002D0022A0BD092E04868012815D18889C1
:10250000C0F30B00202810D1C3F8088005E049680B
:1025100003290AD1401E986007D10021584600F0D7
:10252000B3F80390002000F0E8FC78E04868012848
:1025300075D18889534CC0F30B075148E16AA4F167
:102540002409C268D4E90560B7F59D7F33D006DC65
:10255000092F12D00D2F60D01B2F60D129E0494BDD
:10256000A7F58077243B3B3FD3E904C81B6A28D0FA
:10257000012F39D0022F52D13CE0521C02EBD27015
:1025800020F00100101AD86006D03E4900222439FC
:10259000584601F0CFFF3EE03A490122243958461F
:1025A00001F0C8FF00232A223649584602F0DDF91F
:1025B00035E0022533E0012A31D1401E17E0A06149
:1025C00029E0012A01D05B1C17E00A5C7E2A02D0B8
:1025D000521C0A541FE02022FBE72A490122243919
:1025E000584601F0A7FF1AE0012A18D1401CB0425A
:1025F000E5DB10E0012A07D05B1E4345EDDC6345B7
:10260000EBDBC9F82030E8E70A5C202A01D0521E33
:10261000DFE77E22DDE70123C5E7012A08D0BAF112
:10262000000F01D0CAF80050039804B0BDE8F09F35
:1026300058461960FFF79CFED9F80C100127091DB8
:10264000CDE90017CDF80880D9F8083046461822A1
:102650000A2158461B1D00F0C8FE0A4900222439F1
:10266000584601F067FFE0680296001DCDE90007BB
:10267000A36828220A2158461B1D00F0B6FECAE7AF
:102680001C03002094150020FEB51C4C0746216851
:10269000FFF76EFE1A4801260025C1680295091D44
:1026A000CDE90016836818220A2138461B1D00F068
:1026B0009CFEE068B0B100221149384601F03AFFB3
:1026C0000F4828222430C1680295091DCDE9001663
:1026D00083680A2138461B1D00F087FEE06818B1A8
:1026E000012302E00122E7E7002305492A222431E1
:1026F000384602F03AF90120FEBD00001C0300201C
:102700007015002030B500231A4658B14468944231
:1027100008DD056855F822502D688D4204D1006807
:1027200050F82230184630BD521CF0E7F0B40C4A85
:10273000014601201368C41E73B19D680026AA6873
:10274000AE604AB19A605268002A06D05268002AE8
:1027500003D0D868F0BC10472046F0BC704700009A
:1027600014000020F8B5124D6FF001022B68DBB1A8
:102770009C68BCB16168A9B1CE689EB1DB680146B6
:102780006A461846B0470146626828681369C068FF
:10279000009A984704462868C06830B1006B20B1A1
:1027A000804702E01146EFE714462046F8BD0000DE
:1027B0001400002070B50B4D014601242A686AB14F
:1027C000906868B1406858B143684BB1D068984789
:1027D00004462868C068006B804701E06FF0010480
:1027E000204670BD140000202DE9F0410F4D0F462A
:1027F000014601242868E61E30B1FFF783FF18B1B7
:10280000816819B1241F0DE034460BE029688A68FD
:1028100082608860406828B142681AB1C868394649
:10282000904704462046BDE8F081000014000020D7
:10283000FEE701684A69D24352050FD46FF4806203
:102840004A61002140F8301F2022427381730269DF
:1028500042F00402026101730120704700207047BA
:10286000F8B50446C06A1E460D461746082807D02C
:10287000012805D010F5803F02D0206B122804D12A
:102880002068016841F480710160134600224FF016
:1028900001112046009600F0ABF840B120680068B6
:1028A000C00502D54FF4007020640320F8BD2069F4
:1028B000B0F5804F0ED00620216800EAD51040F018
:1028C000F000086133463A460B49204600F0C4F850
:1028D00078B902E005F0FE0000E0E8B22168086186
:1028E000054933463A46891F204600F0B5F80028CE
:1028F000DCD00120F8BD0000080001002DE9F843FC
:10290000044600680D46DDE90897016898461646BA
:1029100041F4807101604B4600224FF001112046C6
:10292000009700F065F848B120680068C00502D53E
:102930004FF4007020640320BDE8F883216805F09F
:10294000FE0008613B464A461549204600F084F8DF
:1029500088B920684169806900903A464946204616
:1029600000F0C5F848B1206C042804D12068016843
:1029700041F4007101600120DEE7F5B2B8F1010F0A
:1029800009D02168300A08613A464946204600F0DD
:10299000AEF80028E7D1206805610020CCE70000F0
:1029A0000200010070B516460D4604460DE02046B3
:1029B000FFF73FFF08B1012070BD681C05D0FDF78F
:1029C000FFFF801BA84207D835B120684069C0438B
:1029D0004007ECD4002070BD002044F8300F2021C7
:1029E0006173A073216941F0200121612073E2E746
:1029F0002DE9F0471E4690460D460446C1F30747B1
:102A0000DDF8209008E0701C06D0FDF7D9FFA0EBA0
:102A10000900B0420FD876B12068012F18D0806924
:102A200025EA00000004000C14D000214145EAD042
:102A30000020BDE8F087002044F8300F20216173AA
:102A4000A073216941F02001216120730120F0E78A
:102A50004069E5E70121E9E72DE9F0479A4691460B
:102A60000E46044600254FF02008C1F3074725E035
:102A700020684069C043400514D42068016841F4CF
:102A80000071016021686FF480604861256384F8FB
:102A90003D8084F83E50206C40F00400206484F8AF
:102AA0003C501FE0B9F1FF3F08D0FDF789FFA0EBD4
:102AB0000A0149450CD8B9F1000F09D02068012F4F
:102AC00013D0806926EA00000004000C0BD0CFE789
:102AD00044F8305F84F80D80A573206940F0200031
:102AE000206125730120BDE8F0874069EAE770B5F1
:102AF00016460D4604460DE02046FFF79AFE08B143
:102B0000012070BD681C05D0FDF75AFF801BA8424C
:102B100007D835B120684069C0430006ECD40020D6
:102B200070BD002044F8300F20216173A07321692B
:102B300041F0200121612073E2E70000F8B538215F
:102B40002448FDF7BEFC2348002605468663C6637D
:102B5000066446642049A9622049E9622049696205
:102B60002049296305F148012020A961C100E961DC
:102B70008023C5E90030002200901146284600F06D
:102B8000FFFD05F138040A206060E560164820600A
:102B90000025206850F8250048B1406838B1016828
:102BA00029B10C488847206850F825008660606885
:102BB0006D1CA842EDDC0D48016806483830FEF770
:102BC0005DFC002804DBBDE8F8400020FFF7F2BD03
:102BD000F8BD0000A80C002009300008392F0008BB
:102BE000FD2E0008712F00085800002088030020E7
:102BF0002DE9F0410B4F0C4605464FF400560022DC
:102C000031463846FDF7D6FE681EFDF7D1FD01229C
:102C100031463846FDF7CEFE601EBDE8F041FDF7B7
:102C2000C7BD000000080240F0B587B01421684617
:102C3000FDF747FC24480024016841F004010160CD
:102C4000016801F004010591016841F08001016013
:102C5000016801F080010591016841F00101016006
:102C6000016801F001010591016841F00201016074
:102C70000068012200F00200144E55030590294619
:102C80003046FDF797FE124F002220213846FDF70F
:102C900091FE00950125CDE9015469463046039423
:102CA000FDF798FDCDE9005469460A480294FDF706
:102CB00091FD20200090CDE90154694638460394E7
:102CC000FDF788FD07B0F0BD303802400008024033
:102CD00000040240000002400D4810B50B4901609D
:102CE0000C49416000214FF480428160C0E9031229
:102CF00041618161C1610162FDF768FE002803D076
:102D0000BDE81040FDF707BD10BD000000540040B5
:102D1000AC030020801A0600FEE7FEE730B4002175
:102D2000084B0A465FF0000003EB8004401CC0B271
:102D300062548028F8D3491CC9B20429F2D330BCAC
:102D400000F07EB80004002010B53C4C0022202189
:102D50002046FDF72FFE0A20FDF72AFD0122202143
:102D60002046FDF727FE3220FDF722FD0021AE2090
:102D700000F0B2F80021084600F0AEF80021102063
:102D800000F0AAF80021084600F0A6F80021B020C3
:102D900000F0A2F80021812000F09EF80021FF2021
:102DA00000F09AF80021A12000F096F80021A6205A
:102DB00000F092F80021A82000F08EF800211F20DA
:102DC00000F08AF80021C82000F086F80021D32006
:102DD00000F082F80021084600F07EF80021D5209E
:102DE00000F07AF80021802000F076F80021D92048
:102DF00000F072F800211F2000F06EF80021DA20A8
:102E000000F06AF80021084600F066F80021DB2097
:102E100000F062F80021402000F05EF800218D20D3
:102E200000F05AF80021142000F056F8FFF776FF62
:102E30000021BDE81040AF2000F04EB80004024071
:102E400070B5A4B0184E00240DF10C0504F1B000CB
:102E5000C0B2002100F040F80021084600F03CF824
:102E60000021102000F038F85FF0000006EB800130
:102E7000095D2954401CC0B28028F7D3322080213C
:102E80000095CDE901100123402278210748FDF784
:102E9000F7FE022802D10548FDF798FD641CE4B254
:102EA000042CD3D324B070BD00040020AC03002058
:102EB0001CB578218DF8041081218DF805108DF84E
:102EC00006000A200090032301AA78210148FDF79B
:102ED00041FE1CBDAC0300201CB502238DF804107C
:102EE0008DF805000A20009001AA78210148FDF71D
:102EF00031FE1CBDAC0300207047704730B4002287
:102F00000C4913465FF0000001EBC00404EB4204DF
:102F1000401C80B223818028F6D3521C92B2042A2E
:102F2000F0D3032008808B807F204880CB8030BC8A
:102F3000FFF7F4BE40060020802814DA202912DAB8
:102F40000A4A02EBC002C81701EB5070C31002EB33
:102F5000430220F00700091A12890120884002422A
:102F600001D001207047002070470000400600207B
:102F70002DE9F043224C7F27A3B0E0887F2800D9B9
:102F8000E780A0884FF00308032801D9A4F8048043
:102F900025780DF10C0927E0A0782946C6B201F08A
:102FA000ADFE0020E28849460AE000BF04EBC603FC
:102FB00003EB4503761C1B7A0B54401CF6B2C0B2DF
:102FC000B242F3D23222CDF80090CDE901020123C2
:102FD000402278210B48FDF753FE022802D1094810
:102FE000FDF7F4FC6D1CEDB2A088A842D4D2A4F881
:102FF00000800020A0806780E08023B0BDE8F083DF
:1030000040060020AC03002070B580282DDA20296E
:103010002BDACB1701EB5373C3F3C704144BC5B2C0
:103020001E88A64200D91C809E88A64200D29C80A1
:103030005C88AC4200D95D80DC88AC4200D2DD8087
:10304000CC1701EB547424F007050123491B8B4076
:10305000074901EBC000E11000EB410000F108015D
:103060000089012A02D09843088070BD1843FBE70D
:10307000400600202DE9FF4F83460D68006883B0AD
:103080001F460E4685427DDA7068DBF804108842E0
:1030900078DAB1682944491E00297CDDF1680844CA
:1030A000401E002877DD059839680068002800DC9C
:1030B000014400296FDD05994968002901DD79681F
:1030C00001E07A681144002965DD4FF0000800280E
:1030D00001DD054401E0C0F10008C2464CE005995D
:1030E000BA6800244968D6F804904244002901DDFA
:1030F000894400E04C42E11704EB517121F00703D1
:10310000E31AC91001FB0020CDE9003022E000984D
:10311000082801D0019805E0002000903968019846
:10312000084401900178009A01209040014000D0AD
:1031300001211098814201D0012300E000234A467A
:103140002946584600F035F9009809F10109401C5C
:10315000641C00907868A04209DD7168F06808443A
:10316000401E484503DBDBF804104945CFDC0AF17B
:10317000010A08F101086D1C386850450BDDB26882
:10318000316800E007E01144491EA94203DBDBF887
:103190000010A942A3DC07B0BDE8F08F2DE9FF4F76
:1031A000884600258FB04FF001019946681E1646EB
:1031B0001C1EA1EB490A2F4607917CDDB9F1010FD6
:1031C0007AD11C9B0F9813B04146BDE8F04F00F038
:1031D000F0B800BFB9F1010F1FDD1D9902291CD005
:1031E000A0421AD07019401E0B90CDE90001A8EB47
:1031F0000401A6EB050B0B460BF101020F9800F042
:1032000089F81D990B98CDE9000108EB04010B46E4
:103210000BF101020F9800F07DF83219A2F1010BB9
:10322000A8EB05011D9806910C92CDE900B0321B68
:103230000D920B46521C0F9800F06CF81D9808EB8D
:103240000501CDE900B00D9A8B465B46521C0F98E4
:1032500000F060F8721B08EB0401CDE909121C9B19
:103260000F9800F0A6F859461C9B0D9A0F9800F095
:10327000A0F81C9B0D9A06990F9800F09AF8A8EBFD
:1032800004010A9A01911C9B0F9800F092F87219A0
:103290000A921C9B01990F9800F08BF81C9B0C9ACA
:1032A00006990F9800F085F859461C9B0C9A0F98C8
:1032B00000F07FF801E017E013E0DDE909121C9B44
:1032C0000F9800F076F807996D1C0F44891C079140
:1032D0000AEB47012046002903DD5744441E0AF14A
:1032E000020AAC42BFF676AF13B0BDE8F08F2DE90D
:1032F000F0411E46154680460C46069F06E03B46BA
:1033000032462146404600F054F8641CAC42F6DDDB
:10331000BDE8F0812DE9FF4F83B04FF00008109811
:10332000CDE90021851A5E1A47464FF0FF30002E86
:1033300002DD4FF0010102E003D14FF000018B46A6
:1033400002E08346C6F10006002D02DD4FF00100C9
:1033500002E003D14FF00000824602E08246C5F150
:103360000005AE4201DD344600E02C46601C4FF003
:103370000009029017E000BFDDE90021119B0398CE
:1033800000F017F8B044A04504DD0198A8EB04084C
:10339000584401902F44A74203DD00983F1B50443E
:1033A000009009F1010902998945E5DD07B0BDE802
:1033B000F08F2DE9F04105461C4616460F460830B1
:1033C00000F0C9F900280ED0AB6A002B0BD0012CFD
:1033D00007D0002C07D1002231463846BDE8F04125
:1033E00018470122F8E7BDE8F0812DE9FC5FB3F151
:1033F0000009DDE90C6517468A4683463EDD002E4E
:103400003CDD07EB0608B9F1010F39D00AEB0904DE
:103410005146012EA4F101023B465846009541D089
:10342000FFF765FFA8F10103621E5146584600955B
:10343000FFF75DFFA8F102037A1C5146584600953C
:1034400000F037F9A8F10203611E7A1C5846009576
:1034500000F02FF90E98022810D0B9F1020F0DDDFF
:10346000022E0BDD0E98B61ECDE90060A9F1020315
:103470007A1C0AF10101584600F02EF9BDE8FC9FC4
:10348000012E07D0A8F1010351465846009500F0DF
:1034900010F9F3E702B02B4651465846BDE8F05FFD
:1034A000FFF787BFFFF723FFE8E72DE9FF4F8BB05A
:1034B0000025199F681E05900120A0EB4709049084
:1034C0000E98DDF86CA016463C46A846B0EB470FB8
:1034D0007DDD1898B0EB470F79DD1A980E99CDE98C
:1034E00000600C9832460844A0EB070B02900C9841
:1034F000ABF10103C11903910B98FFF70BFF18996A
:103500001A9872180692521ECDE90020069AABF165
:103510000103521E03990B98FFF7FCFE069A3E44E6
:10352000D01B019099E0BAF1020F1ED0AC420BD033
:1035300003980BEB0402011B731BCDF800A0491C80
:10354000921E0B98FFF7D3FEBC420ED00598A04206
:103550000BD003980BEB0502411B331BCDF800A0E9
:10356000491C921E0B98FFF7C2FE0398721B06922D
:10357000011B09911A9B0B98FFF71BFF0398321B45
:10358000411B009208911A9B0B98FFF712FF0BEB5F
:1035900004010791069A491E1A9B0B98FFF709FF31
:1035A0000BEB05010691009A491E1A9B0B98FFF739
:1035B00000FFBAF1020F20D0AC420DD0019809995A
:1035C000079A4319491CCDF800A0921E00E06DE057
:1035D0005B1E0B98FFF78BFEBC420ED00598A042F5
:1035E0000BD0019808990319069ACDF800A0491C40
:1035F000921E5B1E0B98FFF77AFE01981A9B4219E8
:103600000092521E09990B98FFF7D3FE01981A9B5E
:1036100002190592521E08990B98FFF7CAFE0799E6
:10362000009A491E521E1A9B0B98FFF7C2FEDDE955
:103630000521491E521E1A9B0B98FFF7BAFE0499EA
:103640006D1C881C8844049009EB480005940028F0
:1036500003DDC84409F10209641EAC42BFF663AF42
:10366000019C1A98641ECDE900400C9B3246194615
:103670000B98FFF74FFE1A98029BCDE90040591EA8
:1036800032465B1E0B98FFF745FEBAF1020F0DD0D4
:103690001899721CA1EB4701891ECDE9001ADDE9DA
:1036A0000B010E9B491C9B1E00F016F80FB0BDE8E5
:1036B000F08F2DE9F0411D460F4680461446069EC8
:1036C00006E03346224639464046FFF772FE641C48
:1036D000AC42F6DDBDE8F0812DE9F84F8246DDE928
:1036E0000A0790468946022F12D008EB0006494689
:1036F00009EB030583420DDD444607E06A1E2346BD
:10370000494650460097FFF7F2FD641CA642F5DCDF
:10371000BDE8F88F0C4607E0731E4246214650462E
:103720000097FFF7C6FF641CA542F5DCF0E770B513
:103730000B46002468B1016899420ADD4168914254
:1037400007DD816A29B1C56A11461846A84700B14C
:103750000124204670BD10B503688B420CDC8468E0
:1037600023445B1E8B4207DB4168914204DCC06846
:103770000844401E904201DA002010BD012010BD17
:1037800030B500F1080C039D8CE82E0000240029C0
:1037900002DA591A84600161002A02DAA91AC460A7
:1037A00041610169002900DA04614169002900DAF8
:1037B000446130BD10B5002818D0002916D0036828
:1037C0000022002B07DA0C6823440B60046883682E
:1037D0002344836002604368002B07DA4C6823446B
:1037E0004B604368C16842601944C16010BD00006D
:1037F0002DE9FE434FF000086C460500DDF82890E7
:103800002646CDF80880CDF80080CDF804808DF8EC
:103810000B8040460DF10A0404D5102A02D001277E
:103820006D4212E0002710E0B5FBF2FC02FB1C5CCD
:10383000BCF10A0F02D20CF1300C01E00CF1370C94
:10384000B5FBF2F504F801C9401C002DECD135465A
:103850001FB12D222270401C06E0641C04E000BF52
:1038600014F8012B06F8012B321AAA42F8D120B91C
:1038700030208DF800006E1C012086F80080002B9F
:1038800015DD2C18641E984200DC18460A1802F850
:10389000018908E0AC4203D314F80139137001E048
:1038A00082F80090521E8A42F4D2BDE8FE835A424A
:1038B000904201DD024600E010462B4608E01C78ED
:1038C00014B10C705B1C01E081F80090491C521E81
:1038D000002AF4DC81F80080E7E710B504000ED080
:1038E00000290CD0A06A58B1606A4161606A086022
:1038F0002046616200F006F8A06A401CA06210BD7C
:103900002162F5E730B5002821D000291FD04B688F
:10391000026984689B1A641E63434469A21A93FB7C
:10392000F2F2CA608C688369C568E41A6D1E6C4344
:10393000C569EB1A94FBF3F30B6104682244CA6077
:10394000C268D21A521E0A6140681044086130BD34
:1039500002004FF0000008D0106A01E04069491EE3
:10396000002901DD0028F9D1D0627047FEB50D466F
:10397000002834D0002D32D0EA6A002A2FD0D2E9B4
:10398000031205232E68891E921E1C46B14203DCD9
:10399000711AC1F105033146D5F808E0CF18764415
:1039A000A7F1010CA6F1010EF44501DBBE1B9B1B28
:1039B0006E68B24203DCB21AC2F105043246ED6809
:1039C00017193544A7F1010C6E1EB44501DB7D1BB0
:1039D000641B0125CDE900450295FFF706FDFEBDFC
:1039E00010B5040009D0002907D02022FCF737FDCC
:1039F000002020626062A062E06210BD70B51546D2
:103A00000E46040004D01821FCF75BFDC4E90165F3
:103A100070BD10B5040006D029B1E26A002A03D0B7
:103A2000606A904201D1002010BD4B68506883420B
:103A300000DA486050694B684068834200DD4860A6
:103A40005069016050690A60486120465161FFF782
:103A500059FFA06A401CA062012010BD10B50400EF
:103A600006D029B1E26A002A03D0206A904201D12F
:103A7000002010BD4B685068834201DC184600E00E
:103A8000486013685B68984202DA50694068486091
:103A90001068416110684A61086020461160FFF7B4
:103AA00031FFA06A401CA062012010BD10B528B1F2
:103AB00021B10A69C968FFF73AFE08B1002010BDBC
:103AC000012010BDA8B1A1B1826A022A11D94A69A8
:103AD0000AB10B6813600A680AB14B695361C26A84
:103AE0008A4201D10021C162816A491E816201209E
:103AF000704700207047FEB50D4607002AD0002D04
:103B000028D00020E968CDE90010029095E80E0069
:103B10003846FFF76AFCA86A01281BD92C6A16E010
:103B2000D4E903122846FFF716FE28B9D4E9031298
:103B30002846FFF710FE48B101213069CDE90001A8
:103B4000D4E903123846F368FFF7E4FB6469666959
:103B5000002EE5D1FEBD30B5002418B3C36A0BB307
:103B6000046AA34202D0456AAB4201D159680BE016
:103B70001C68CCB164688C4200DD21465C69ACB144
:103B800064688C4200DA21468469944200DD224652
:103B9000C469944200DA2246C3E901121946FFF7CC
:103BA000B1FE0124204630BD0469E4E74469E8E73A
:103BB000C16BC2688968891C92FBF1F301FB132376
:103BC000026B416923B18A4204D1806B20B901E0C4
:103BD0008A4201D001207047002070470269816A43
:103BE000914202D1806B002800D00120704730B58F
:103BF000002841D000293FDB83698B423CDD002A4D
:103C00003AD00368136083689360436A8B4202DC96
:103C1000C46A8C4202DA002050603BE0046A816B87
:103C200049B1856AAC4228D141685160C16B806B53
:103C3000896808442DE0056BAC421ED1C16B436B13
:103C400044688968891C5B1E01FB03415160816BDC
:103C500029B1C16B8968891CD16049B10BE0C16B86
:103C6000C3688968891C93FBF1F401FB1431F3E705
:103C7000C06B8168891CD16030BDC4694568E41A95
:103C8000C36B9B689B1C04FB035319445160C06BBE
:103C90008068801CD06030BDF0B50400059E34D033
:103CA000002A32D0E263D1E902C0D1E90057C4E969
:103CB00002C0C4E900579168401E891C90FBF1F0D6
:103CC000401CA66160630020A063002E1EDD2361FE
:103CD00098601D460121D86007E000BF03EB011288
:103CE000491CC2E90250EA601546B142F6DB656143
:103CF000E0612269C4E90820A262616B481EE062AB
:103D00001046491E00F062F82063F0BD20614FF0BC
:103D1000FF316061C4E90710F0BD30B50C460346C1
:103D2000150050D49869A8424DDB0020E060A060E7
:103D30009969A9422DDD1146186900F047F8E06045
:103D40008168A160816801B1CC608460D969A942B1
:103D500001DB491CD9611969814200D11C61586A93
:103D6000A84204DD401C5862D86A401C29E0D96A88
:103D7000A9421BDBA84200D19C62186B08B1806885
:103D800005E09869596B401C81420FD1586918634E
:103D90000CE0196971B15869C4605869A0605C6130
:103DA0009869596B401C814200D11C639869401C82
:103DB000986109E01C615C61C3E909041863586BF0
:103DC000401ED862F2E70024204630BD00280AD009
:103DD0000A1E0BDAD143491C01E08068491E002904
:103DE00001DD0028F9D17047C068491E0029FADDBD
:103DF0000028F9D1704730B503460C460069FFF73B
:103E0000E5FF00283DD09969491E996119698142F1
:103E100001D1C16819615969814201D18168596133
:103E2000C16809B182688A60816809B1C268CA60E4
:103E30005A6AA24222DCD96AA1421FDB1C6A844270
:103E400008D1C4680CB11C6204E084681C62DC699F
:103E5000641EDC619C6A844201D1E4689C62250096
:103E60000CD01C6B54B1E4683CB9AD682DB1521E46
:103E7000491E5A62C3E90A5100E01C630021C16077
:103E8000816030BD2DE9F0418AB04FF001070C464A
:103E90005FEA0008079776D0002C74D0616BA069A8
:103EA0000025884208DAE068CDE90005029594E82B
:103EB0000E004046FFF799FAA069002863DDE1692A
:103EC000002902DAE56121692162E169814203DBAF
:103ED000401EE06160692062E169606A81420CDA3B
:103EE000206AC4E90910616B491EFFF76FFF206368
:103EF000616B606A0844401EE062E169E06A8142E9
:103F00000DDD206AC4E90B10616BC1F10101FFF7FF
:103F10005DFFA062616BE06A401A401C606220682D
:103F2000039060680490A0680590616AE069884227
:103F300005D0216B19B1E16A884210D003E0A56376
:103F4000606B012802DDE06B80681AE0E068069093
:103F5000A06BA56A401C08906968A9B115E0E16BE7
:103F6000E36888680246801C93FBF0F500FB15337C
:103F70009A1A921E92FBF0F300FB1320A06389684B
:103F80000844801CE3E73CE02968206AA84201D18C
:103F9000012000E0002007AECDE9006003AB404601
:103FA000E26B00F001FEE06BED688068801C06901B
:103FB000606B012825DDE16B049889680144A06BE2
:103FC0000897801C0844049016E0696801B92968C4
:103FD000206AA84201D1012000E00020CDE9006064
:103FE00003AB4046E26B00F0DFFDE16B04988968AB
:103FF0000844801C0490ED68206BA84204D0002D7A
:10400000E3D10AB0BDE8F081002DFAD0A06B28B151
:10401000E06B8068801C069048B10BE0E06BE168C3
:104020008068801C91FBF0F200FB1210F3E7E06B5C
:104030008068801C0690696801B92968206AA842D6
:1040400001D1012000E00020CDE9006003AB404633
:10405000E26B00F0A9FDD4E730B50346D1E9025088
:10406000D1E90024C3E90250C3E90024D96B401E02
:1040700000248968891C90FBF1F1491C59639869F7
:10408000814206DD1869491EC3E90940C3E90B14E2
:104090001AE0491E986AFFF799FE186328B1596B18
:1040A000586A0844401ED86230BD5869186399693F
:1040B000491ED962596BC1F10101FFF787FE986271
:1040C000596B9869401A58629C6330BD10B503461D
:1040D000C0690C46091A05D0186AFFF777FE186206
:1040E00008B1DC6110BD4FF0FF30D86110BDF0B5F4
:1040F0008BB00025DDE910E6044601950295039595
:10410000049591E88110C96823652267E16084E81D
:104110008110801C0190A06809380390206D18B3AD
:10412000029891680844001D0290E0689168401A66
:10413000401F0490734601A9009604F11000FFF798
:10414000ABFD8DF82850A16920690844401C0590FA
:104150006069069005200790E0690890A16A606C8C
:10416000814207DD081A06E06068801C0290E06862
:10417000001FDEE70020099005A904F1540000F0BB
:1041800063FB0BB0F0BD70B504461030FFF7C5FD02
:104190000546A16A606C814201DD081A00E000203A
:1041A000606604F15400616B00F0B3FB284670BDFB
:1041B00070B504461030FFF71EFE0546A16A606C1C
:1041C000814201DD081A00E00020606604F154001D
:1041D000616B00F09EFB284670BDF0B58BB00C0003
:1041E000074641D0E0680126CDE90006002502958A
:1041F00094E80E003846FFF7F8F8206D28B32068E1
:1042000004AB801C04906068801C0590A068001FAF
:104210000690206F8068CDE9070508A8CDE9000564
:1042200009953846226F216D00F0BEFC216F606851
:1042300089684218D01CCDE900062168A068D21C0C
:104240000B1838465B1EFFF765F804F1100138467D
:10425000FFF718FE04F15400616B044600F059FBAF
:104260002146384600F001FB0BB0F0BD1FB50446F7
:104270000020009001900290039091E80D00C96821
:10428000E16084E80D00801C0090A068093802906D
:10429000206DE0B1216F019889680844001D0190EC
:1042A000216FE0688968401A401F0390694604F155
:1042B0001000FFF7D1FEA16920690844401C606529
:1042C0006069A0650520E065E06920661FBD606843
:1042D000801C0190E068001FE7E7F0B585B000287A
:1042E0000A9D1ED0002A1CD091E8D000C968026542
:1042F000E0E902710021816140E90246641C0194F9
:1043000050F8041C091D029150F8081B891E0391E6
:1043100050F8041C00950839049101A9026CFFF7BC
:10432000BBFC05B0F0BD7FB50D002BD0AC6A002CF6
:1043300028DD296D93688968891C4C43116808340D
:1043400019440091416850680B1A5B1EA3420CDAB5
:1043500001EBD171B0EB610F07DDD16843185B1C35
:10436000181B401E019001D5002001909068801C10
:1043700002909C4201DD039300E0039469462846C5
:1043800000F04AF87FBD0000F0B589B04FF000059D
:104390000C0006460795089539D0E06801218DE8A4
:1043A000230094E80E003046FFF71FF804F11001D7
:1043B0000F463046FFF766FD052005900320069066
:1043C000A0682168401F00EBD07001EB60000390F3
:1043D0003846FFF703FC48B160680E4B401C049060
:1043E00007AA03A900953046FEF744FE3846FFF7BA
:1043F000DFFB00280BD0E1696069064B084404909C
:104400000C3307AA03A900953046FEF733FE09B026
:10441000F0BD0000D45D00081FB500281AD00029A7
:1044200018D00A6804C04A6804C08A6840F8082B9B
:10443000CA6840F8042C0A68521C00924A68121D8F
:1044400001928A68921E0292C968083903916946EE
:10445000FFF702FE1FBD00280AD0002908D0052260
:104460000A604A6002680A3A8A6040680A38C8608E
:1044700070472DE9F04190B01E4617460C0080466B
:104480003DD0216800293AD06069002501218DE8DE
:10449000230004F1080140460EC9FEF7A6FFE068BC
:1044A000801C04906069001F0690606850B3A1688A
:1044B00000680DAA0844001D03906168206909681E
:1044C000401A801F0590A06809A9801C0990E06827
:1044D000801C0A90606800680B9060684068CDE9B5
:1044E0000C050E95009540466368FEF7C3FDCDE9C7
:1044F000006503AB3A464046216800F0D5FA10B09B
:10450000BDE8F081A068801C03902069001F059021
:10451000EDE770B50C4605000BD0002C09D0242126
:10452000FBF7CFFF21462846BDE870402022FBF76D
:1045300096BF70BDF0B58BB04FF0000516000C466D
:10454000074605950695079501D0012000E000205B
:10455000002C25D0E168CDE90010029094E80E000F
:104560003846FEF742FF202000904FF0FF330A222A
:1045700005A9206AFFF73CF903AA05A8A16900F084
:104580009CFB207F70B1012810D0089508A8CDE9C8
:1045900000060995234605A93846A26900F004FBE8
:1045A0000BB0F0BDA0680399401A05E0A06803991C
:1045B000401A00EBD07040100890E7E770B5080093
:1045C0002DD0D0E9043500210EE000BF03EB8104BB
:1045D000666843F82160D4F80462C4F80062D4F835
:1045E0000464491CC4F80064D3F80446641E8C4279
:1045F000ECDCD3F804461146641E43F824202E68F0
:104600008E4200DA31466A688A4200DD114603EBC9
:104610008404C4F8001200F003F8C4F8000470BD6C
:1046200010B54FF0FF3290B14269C46813688B42F5
:1046300000DA194653688B4200DD1946C91A12691F
:10464000614391FBF2F1611A4068491E421810461D
:1046500010BD70B5050038D0D5E90441D1E900207E
:10466000824204DA424050404240C1E90020C8681A
:10467000022801DA0220C86010464A68821A521CD9
:104680000A61D4F80026824201DDC4F80006D4F89D
:1046900000264868824201DAC4F80006A868C968A2
:1046A000801E90FBF1F00026C4F8040609E02846BD
:1046B000D4F80016FFF7B4FF04EB8601761CC1F8AE
:1046C0000004D4F80406B042F1DC70BD2DE9FE43CD
:1046D0000C00814641D0B9F1000F3ED004F10C012D
:1046E0004FF00108C2C9CDE900180022029294E8F7
:1046F0000E004846FEF779FEB86801280ED1204624
:10470000D6F80016FFF78CFF0246CDE90028D9F84D
:104710000030484601219B1EFEF7FCFDD6F804063A
:1047200001281ADD012514E02268F868691E01FBE2
:10473000002105FB002306EB8500491CD0F800C4CE
:10474000CDE900C8D0F8FC2348465B1CFEF7E2FD2B
:104750006D1CD6F80406A842E6DCBDE8FE830146DF
:10476000A1F11A024FF0FF30652A00D2901F704766
:10477000A0F120011E2926D2DFE801F01F25252502
:10478000252125251B1D1713251511190F0F0F0F97
:104790000F0F0F0F0F0F25252523303870470A20E4
:1047A00070470B2070470C2070470D2070470E207B
:1047B00070470F207047102070471120704712205B
:1047C0007047132070474FF0FF30704710B5074C0B
:1047D0002318002909D0002005E000BF13F8014B81
:1047E00001F8014B401C9042F8D310BD3A53000829
:1047F00010B5074C2318002909D0002005E000BFA0
:1048000013F8014B01F8014B401C9042F8D310BD46
:104810000051000810B5074C2318002909D00020CA
:1048200005E000BF13F8014B01F8014B401C90421A
:10483000F8D310BDB050000800207047002802D007
:1048400010F8012B0A60704770B50C4605000BD0BC
:10485000002C09D01C21FBF734FE21462846BDE878
:1048600070401822FBF7FBBD70BDFEB50C46074635
:10487000097DE06869B3851E022841DDA368022B2B
:104880003EDD98423CD0A26921698A4200D9A161EB
:104890000126CDE9000600210291D4E90012384634
:1048A000FEF7A3FD207D0028206915D048B3A1683C
:1048B000A269491B891E5143B1FBF0F02168CDE983
:1048C0000056401C0296014462682B463846521C32
:1048D00014E0A568AD1ECFE798B1E168A269491B55
:1048E000891E5143B1FBF0F06168CDE90056401CD0
:1048F0004218029621682B463846491CFEF775FD82
:10490000FEBDCDE90056029606CC2B463846491C22
:10491000DDE7002803D002698A4201D28261704734
:104920008161704770B516460D4604001CD0002DFD
:104930001AD03021FBF7C5FD182229462046FBF787
:104940008EFDE6622169A06800220968401E90FB86
:10495000F1F0401C6062401EC4E907206169884292
:1049600001DB491E2162A26270BD2DE9F04385B0D2
:104970001E0090460C46814601D0012000E0002038
:10498000002C6BD0E16A002968D0E168CDE9001005
:10499000029094E80E004846FEF727FDD4E9051082
:1049A0000022884202DB481EA06102E0002800DAF3
:1049B000A261236AA069984205DD2062636AC31A76
:1049C0005B1CE36107E0E369984204DAE061636A33
:1049D00003445B1E2362636A99420FDB216A8842AB
:1049E00009D12069A168006891FBF0F300FB131165
:1049F000081AA06203E0E169884200D1A262049231
:104A0000A06A039003AFE5691DE0B8F1000F03D081
:104A1000A069A84200D04146A06916B1A84204D0BE
:104A200001E0A84201D1012000E00020CDE90070A2
:104A300023464846226900F014F8216903986D1C4A
:104A4000096808440390E06A415D002906D0A26825
:104A500020681044039A401E9042D6DC05B0BDE8A1
:104A6000F0832DE9FF410446DDE90A679068029072
:104A700010680190A0691D46944603907F2911D2C9
:104A8000AA6828681044326890420BDDD4E90623F6
:104A9000604600F0E2F801AB324629462046009716
:104AA000FEF7E8FABDE8FF812DE9F04F89B08146B5
:104AB0001C4690460020129A139B0D46064608900D
:104AC0000BB1012700E00027002D69D02368D9F839
:104AD00000108B4264DACDE90302824603A9204626
:104AE000FEF768FEE068CDE90007029794E80E0043
:104AF000DDF80CB04846FEF778FCD8F808000690C0
:104B0000D9F818000126079046E000BFCDF820A094
:104B1000D8F8142008A928469047054608980A287E
:104B200006D0D8F81810884758B1D8F804000AE021
:104B3000CDF80CB00499D8F80800761C084404900D
:104B40002AE0D8F80000039905900144A268491EA4
:104B5000914207DBCDF80CB0049AD8F80810761C07
:104B60001144049103990844012811D40498E16880
:104B700088420DDAD9E906234046089900F06DF81D
:104B80001398009005AB03AA21464846FEF772FA37
:104B9000059903980844039015B128780028B5D1E9
:104BA00009B03046BDE8F08F2DE9F0438DB00746DF
:104BB000DDE914891D4616460C465FEA090000D05F
:104BC0000120002C46D029683A68914242DAEA680E
:104BD000CDE900200290D5E901233846FEF705FC17
:104BE000D8F800000490D8F804000590B068089048
:104BF000B869099027E000200390726903A9204654
:104C000090470446B1690398884708B1706800E08E
:104C10003068079007990498084401280DD4D7E913
:104C200006233046039900F018F807AB04AA29467A
:104C30003846CDF80090FEF71DFA07990498002C2D
:104C40000844049006D02078002803D00499A8686E
:104C50008142D0DB0DB0BDE8F0832DE9F0471F465F
:104C60009046894604004FF0000623D0B8F1000FAB
:104C700020D0FFB1E168484688470546401C19D05E
:104C8000A068401EC11700EB5170012101EBE00646
:104C90002068A16946434846884708B1720000E091
:104CA0003246BA4200D93A46236905FB06F041462E
:104CB000984706463046BDE8F087F8B514460D46DD
:104CC00006001AD0002C18D0A8680027C4E900708C
:104CD00010E000976A69694630469047064600989A
:104CE00040B1A969884708B1686800E02868216870
:104CF0000844206030780028EBD1F8BD1CB50022B4
:104D00008DF80420B0318DF80510102141EA101102
:104D10008DF8061000F00F008DF807000A200090B3
:104D2000042301AA78210248FBF714FF1CBD0000F0
:104D3000AC0300207047002238B110F8012B7F2A05
:104D400003D3130210F8012B1A430A60704770470F
:104D500010B5FBF735FE6421B0FBF1F201FB120048
:104D600008B1002010BD012010BDFCF755B80000AF
:104D700030B593B030216846FBF7A3FB14210CA893
:104D8000FBF79FFB1C480025016841F08051016042
:104D9000006800F0805011901848016841F44041CB
:104DA00001600068022400F440401190012000904E
:104DB000000401908001CDE906400C20089060209D
:104DC000CDE9090404200B906846FCF78DF908B181
:104DD00072B6FEE70CA90F2081E831004FF4805035
:104DE000CDE90F0503210CA8FCF7A2F8002801D09B
:104DF00072B6FEE713B030BD40380240007000408C
:104E00000248016841F470010160704788ED00E0DC
:104E1000FEE70907090E002804DB00F1E02080F816
:104E20000014704700F00F0000F1E02080F8141D1E
:104E30007047000010B5094800F0CDF8002008497F
:104E4000024600BF00EB4003401CCA540828F9D3B7
:104E5000BDE81040014800F0DAB800000000002072
:104E60009403002010B504000AD00B4800F0B3F8FA
:104E700020680178012907D072B6FBF74CFCFEE7E9
:104E800072B6FBF748FCFEE7401C00F0A4F8BDE852
:104E90001040014800F0BBB80000002010B504002D
:104EA0000AD00B4800F097F820680178012907D054
:104EB00072B6FBF730FCFEE772B6FBF72CFCFEE7A0
:104EC00000210170BDE81040014800F0A0B80000CA
:104ED0000000002010B504000ED0134800F07BF84D
:104EE0001248002101EB4102825C3AB1491C0829B9
:104EF000F8D30D4800F08BF8002010BD01EB410104
:104F000008440121206001702068401C07D0002166
:104F100001704170044800F07AF8012010BD72B6AB
:104F2000FBF7F9FBFEE700000000002094030020DF
:104F300010B504000AD00B4800F04DF82068017845
:104F4000012907D072B6FBF7E6FBFEE772B6FBF766
:104F5000E2FBFEE7401C00F05AF8BDE810400148B3
:104F600000F055B800000020FBF75EFFFFF700FFE0
:104F7000FDF75AFEFDF7B0FEFDF7E6FEFDF7F8FF80
:104F800001242546002601210846FDF731FE0122B5
:104F900029462046FEF738F8FDF7EAFF96B1641E71
:104FA000E4B2012C03D86D1C0124EDB20026202DA3
:104FB000E9D90125FDF7A2FF8020FDF779FFFBF776
:104FC00044FBE0E7641CE4B2802CF0D36D1C802429
:104FD000EDB20126EBE710B5EFF3108101F001020D
:104FE00072B6BFF34F8FBFF36F8F20B1417831B1ED
:104FF000FF2908D004E072B6FBF78DFBFEE70270D4
:10500000491C417010BD72B6FBF785FBFEE710B579
:1050100058B1417869B1491E11F0FF01417003D1C7
:105020000078002800D162B610BD72B6FBF773FBA2
:10503000FEE772B6FBF76FFBFEE74FF04070E1EE64
:10504000100A704700000000000000000102030485
:105050000607080900000000010203040400000024
:105060000000000005000000714700081548000816
:105070003D48000839480008060000000000000014
:10508000080000005F470008F14700083D4800089D
:105090003948000806000000000000000C00000075
:1050A0005F470008CD4700083D4800083948000820
:1050B0001F111F00001F00001D15170015151F00F0
:1050C00007041F0017151D001F151D0019050300FB
:1050D0001F151F0017151F0000100000040E04000C
:1050E000040404000A040A0018040300000E11005E
:1050F000110E0000000000001A040B000A0A0A004A
:1051000000000000000000005F0000000007000732
:105110000000147F147F1400242A7F2A1200231316
:105120000864620036495522500000050300000063
:10513000001C224100000041221C0000082A1C2AF9
:10514000080008083E080800005030000000080869
:105150000808080000303000000020100804020099
:105160003E5149453E0000427F40000042615149A6
:1051700046002141454B31001814127F100027458D
:10518000454539003C4A4949300001710905030091
:10519000364949493600064949291E00003636007D
:1051A00000000056360000000008142241001414CC
:1051B00014141400412214080000020151090600D1
:1051C000324979413E007E1111117E007F494949E3
:1051D00036003E41414122007F4141221C007F496F
:1051E000494941007F09090101003E414151320016
:1051F0007F0808087F0000417F4100002040413FB8
:1052000001007F08142241007F40404040007F029F
:1052100004027F007F0408107F003E4141413E00B0
:105220007F09090906003E4151215E007F091929C5
:10523000460046494949310001017F0101003F40D4
:1052400040403F001F2040201F007F2018207F008B
:105250006314081463000304780403006151494592
:10526000430000007F41410002040810200041413A
:105270007F00000004020102040040404040400062
:105280000001020400002054545478007F48444434
:105290003800384444442000384444487F0038549F
:1052A00054541800087E09010200081454543C00AC
:1052B0007F080404780000447D4000002040443D05
:1052C0000000007F1028440000417F4000007C0463
:1052D000180478007C0804047800384444443800FA
:1052E0007C1414140800081414187C007C080404AE
:1052F0000800485454542000043F444020003C40DF
:1053000040207C001C2040201C003C4030403C00E1
:105310004428102844000C5050503C004464544C25
:10532000440000083641000000007F0000000041FA
:10533000360800000001020000000000000000002C
:105340000000000000000000FC000000000002005F
:10535000000000000E000E0000000000000090D0D1
:10536000BCD0BC900003000300001824FE44880059
:105370000102070201001824D8B04C80000300018C
:105380000201C038E438800001020201020200007C
:105390000E000000000000000000000000F00C0201
:1053A000000000000304020CF000000004030000F1
:1053B00000009060F86090000000010000002020D4
:1053C000FC202000000001000000000000000000A0
:1053D000080600000000202020202000000000001F
:1053E000000000000000000000020000000000803B
:1053F00060180600060100000000F8040404F8002C
:105400000102020201000008FC0000000002030289
:105410000000188444241800030202020200080459
:105420002424D80001020202010040B088FC800060
:105430000000020302003C242424C40001020202F2
:105440000100F8242424C8000102020201000C0417
:10545000E4140C00000003000000D8242424D80029
:1054600001020202010038444444F8000102020231
:1054700001000000300000000000030000000000F8
:1054800030000000000403000000002050880402E7
:105490000000000001029090909090000000000039
:1054A00000000002048850200002010000001804DF
:1054B000C4241800000002000000F804E4947800FE
:1054C00001020202020000F09C9CF00002030000B6
:1054D000030204FC2424D800020302020100F804A1
:1054E0000404080001020202010004FC0404F800A4
:1054F00002030202010004FC24740C0002030202F5
:10550000030004FC24740C00020302000000F804F1
:105510000444CC4001020202010004FC2020FC04EF
:105520000203000003020404FC040400020203025C
:105530000200000404FC040402040403000004FC50
:1055400024D00C0402030200030204FC0400000047
:10555000020302020203FC3CC03CFC000300030007
:10556000030004FC30C4FC04020302000302F8043C
:105570000404F80001020202010004FC24241800C3
:10558000020302000000F8848404F800010202070C
:10559000040004FC2464980002030200030218249F
:1055A000244488000102020201000C04FC040C00E7
:1055B00000020302000004FC0000FC0400010202DF
:1055C0000100047C80807C040000030300001CE0D8
:1055D0003CE01C00000300030000049C609C0400ED
:1055E000020300030200041CE01C0400000203028A
:1055F00000000C84641C040002030202030000008B
:10560000FE020200000007040400000E30C000008B
:10561000000000010200000202FE00000004040776
:105620000000000402040000000000000000000070
:105630000000000008080808080800000204000034
:105640000000000000000040A0A0C0000001020215
:10565000010204FC2020C00000030202010000C07F
:105660002020600000010202020000C02024FC0093
:1056700000010202010200C0A0A0C000000102025D
:1056800002000020F824240400020302020000406B
:10569000A0A0602000070A0A0A0404FC2020C00021
:1056A0000203000003020020E400000000020302E5
:1056B0000000000020E4000008080807000004FCC7
:1056C00080A060200203020003020404FC0000002A
:1056D000020203020200E020E020C00003000300F9
:1056E000030020E02020C00002030200030200C0EB
:1056F0002020C00000010202010020E02020C000A4
:10570000080F0A02010000C02020E0000001020A88
:105710000F0820E0402020000203020000000040AB
:10572000A0A020000002020201000020F8200000DA
:1057300000000102020020E00020E000000102025F
:10574000010220E00000E020000003030000608070
:10575000E080600000030003000020608060200003
:1057600002030003020020E02080602008080701F7
:1057700000000020A06020000002030202000000E0
:10578000609E0200000000070400000000FF00000F
:105790000000000F000000029E60000000040700EF
:1057A00000000402020404020000000000000000E7
:1057B00000000000000000000000000000000000E9
:1057C00000F80000000000000033000000000000AE
:1057D0001E06001E06000000000000000000404001
:1057E000F84040F84000043F04043F040400007007
:1057F00088FC08300000001820FF211E0000F0087F
:10580000F000E018000000211C031E211E0000F023
:105810000888700000001E21232419272110001E73
:105820000600000000000000000000000000000072
:1058300000E01804020000000007182040000002E9
:105840000418E0000000004020180700000040405D
:1058500080F0804040000202010F010202000000BF
:1058600000F0000000000101011F01010100000023
:1058700000000000000080B0700000000000000088
:105880000000000000000001010101010101000011
:1058900000000000000000303000000000000000A8
:1058A000000080601806006018060100000000E09B
:1058B00010080810E000000F102020100F0000104A
:1058C00010F8000000000020203F202000000070A1
:1058D0000808088870000030282422213000003099
:1058E0000888884830000018202020110E00000091
:1058F000806010F8000000060524243F240000F812
:105900000888880808000019212020110E0000E0F6
:10591000108888081000000F112020110E00003898
:105920000808C82818000000003F000000000070B0
:10593000880808887000001C222121221C0000E039
:1059400010080810E0000010212222110F000000B2
:1059500000C0C00000000000003030000000000067
:1059600000C0C0000000000080E0600000000000F7
:105970008040201008000001020408102000404070
:1059800040404040400004040404040404000008B3
:105990001020408000000020100804020100007068
:1059A00008080808F0000000000036010000C030C0
:1059B000C828C810E0000718272423140B00000093
:1059C000C03838C00000203C230202233C2008F8E5
:1059D000888888700000203F202020110E00C030F1
:1059E000080808083000071820202010080008F8D0
:1059F00008080810E000203F202020100F0008F8C1
:105A00008888E8081000203F20202320180008F88C
:105A10008888E8081000203F200003000000C03004
:105A200008080818000007182020221E020008F8A5
:105A300008000008F808203F210101213F2000084C
:105A400008F8080800000020203F20200000000087
:105A50000808F8080800C08080807F00000008F86F
:105A600088C028180800203F20012638200008F8A8
:105A7000080000000000203F20202020300008F80F
:105A8000F800F8F80800203F003F003F200008F829
:105A900030C00008F808203F200007183F00E01041
:105AA00008080810E0000F10202020100F0008F850
:105AB00008080808F000203F210101010000E01063
:105AC00008080810E0000F18242438504F0008F888
:105AD000888888887000203F2000030C30200070E8
:105AE0008808080830000018202121221C0018080E
:105AF00008F8080818000000203F2000000008F8FF
:105B000008000008F808001F202020201F00087847
:105B1000880000C838080000073838070000F80877
:105B200000F00008F800033C0700073C03000818D9
:105B300068808068180820302C03032C3020083837
:105B4000C800C83808000000203F200000001808E6
:105B50000808C83808002038262120203800000016
:105B600000FE020202000000007F40404000000CE6
:105B700030C00000000000000000030C30C0000234
:105B80000202FE000000004040407F0000000000D4
:105B900004020202040000000000000000000000F7
:105BA00000000000000080808080808080800002F3
:105BB00006080000000000000000000000000000D7
:105BC0008080808000000019242222221F2008F8F3
:105BD000008080000000003F112020110E00000016
:105BE000008080800000000E1120202011000000A5
:105BF00000808088F800000E112020103F20000057
:105C0000808080800000001F22222222130000805A
:105C100080F0888888180020203F202000000000A5
:105C2000808080808000006B94949493600008F8DA
:105C3000008080800000203F210000203F20008065
:105C40009898000000000020203F20200000000065
:105C500000809898000000C08080807F000008F8D5
:105C6000000080808000203F24022D3020000008AA
:105C700008F8000000000020203F20200000808065
:105C8000808080808000203F20003F20003F808077
:105C9000008080800000203F210000203F20000085
:105CA000808080800000001F202020201F00808036
:105CB00000808000000080FFA12020110E00000065
:105CC000008080008000000E112020A1FF808080D5
:105CD00080008080800020203F2120000100000003
:105CE0008080808000000013242424241900008078
:105CF00080E0808000000000001F202000008080E5
:105D0000000000808000001F202020103F208080A5
:105D100080000080808000010E30300E0100808005
:105D20000000008080800F300C030C300F000080DA
:105D30008000008080000020310E0E312000808025
:105D400080000080808080818E70180601000080B5
:105D50008080808080000021302C222130000000D3
:105D60000000807C020200000000003F4040000074
:105D70000000FF00000000000000FF000000000223
:105D8000027C800000000040403F00000000000650
:105D90000101020204040000000000000000FF01F5
:105DA0000101010101EDED010101010101FFFF8090
:105DB0008080808080BFBF808080808080FF0000E6
:105DC00010000000100000009E5D00080406070699
:105DD000040000000500000003000000CC5D000886
:105DE0000500000003000000EC5D0008010307034C
:105DF0000100000000000000000000006000000042
:105E00002D000000000000000000000080000000E5
:105E1000400000000000000000000000C000000082
:105E2000600000000000000000000000C000000052
:105E300080000000000000000000000000000000E2
:105E40000000FC00000000000200000000000E0046
:105E50000E0000000000000090D0BCD0BC900003F9
:105E6000000300001824FE4488000102070201001C
:105E70001824D8B04C80000300010201C038E43877
:105E8000800001020201020200000E00000000007A
:105E900000000000000000F00C02000000000304FD
:105EA000020CF00000000403000000009060F860A5
:105EB00090000000010000002020FC2020000000D5
:105EC00001000000000000000000080600000000C3
:105ED0002020202020000000000000000000000022
:105EE00000000002000000000080601806000601AB
:105EF00000000000F8040404F8000102020201009E
:105F00000008FC0000000002030200001884442482
:105F1000180003020202020008042424D80001022F
:105F20000202010040B088FC800000000203020071
:105F30003C242424C400010202020100F824242489
:105F4000C8000102020201000C04E4140C0000006D
:105F500003000000D8242424D8000102020201001A
:105F600038444444F80001020202010000003000FD
:105F700000000000030000000000300000000004EA
:105F8000030000000020508804020000000001020D
:105F900090909090900000000000000000020488A3
:105FA00050200002010000001804C4241800000062
:105FB00002000000F804E4947800010202020200EA
:105FC00000F09C9CF00002030000030204FC242467
:105FD000D800020302020100F804040408000102D0
:105FE0000202010004FC0404F800020302020100A2
:105FF00004FC24740C0002030202030004FC247459
:106000000C00020302000000F8040444CC4001022A
:106010000202010004FC2020FC0402030000030231
:106020000404FC040400020203020200000404FC55
:10603000040402040403000004FC24D00C04020342
:106040000200030204FC0400000002030202020337
:10605000FC3CC03CFC0003000300030004FC30C413
:10606000FC04020302000302F8040404F800010225
:106070000202010004FC24241800020302000000B4
:10608000F8848404F80001020207040004FC24647C
:10609000980002030200030218242444880001022D
:1060A000020201000C04FC040C00000203020000C8
:1060B00004FC0000FC04000102020100047C80805A
:1060C0007C040000030300001CE03CE01C00000313
:1060D00000030000049C609C040002030003020013
:1060E000041CE01C04000002030200000C84641C79
:1060F00004000203020203000000FE02020000008E
:1061000007040400000E30C000000000000102007F
:10611000000202FE00000004040700000004020464
:10612000000000000000000000000000000008085F
:106130000808080800000204000000000000000039
:106140000040A0A0C00000010202010204FC2020C7
:10615000C00000030202010000C020206000000116
:106160000202020000C02024FC0000010202010221
:1061700000C0A0A0C0000001020202000020F8241C
:1061800024040002030202000040A0A060200007D7
:106190000A0A0A0404FC2020C000020300000302D3
:1061A0000020E4000000000203020000000020E4E0
:1061B000000008080807000004FC80A0602002031B
:1061C000020003020404FC000000020203020200B9
:1061D000E020E020C00003000300030020E02020B6
:1061E000C00002030200030200C02020C000000122
:1061F0000202010020E02020C000080F0A02010076
:1062000000C02020E0000001020A0F0820E040202A
:1062100020000203020000000040A0A020000002B5
:10622000020201000020F82000000000010202002C
:1062300020E00020E00000010202010220E0000056
:10624000E0200000030300006080E08060000003A5
:1062500000030000206080602000020300030200B1
:1062600020E0208060200808070100000020A060D6
:1062700020000002030202000000609E02000000F5
:1062800000070400000000FF00000000000F0000F5
:1062900000029E60000000040700000004020204E7
:1062A0000402000000000000060000000C000000D6
:1062B0000C0000004D0700081D070008374D0008BE
:1062C00041070008416464206974656D2031000055
:1062D000416464206974656D20320000416464206B
:1062E0006974656D20330000416464206974656DD4
:1062F00020340000416464206974656D203500001D
:10630000416464206974656D2036000054756E69BF
:106310006E67206375727665000000005265616CDF
:1063200074696D652067726170680000426173690D
:1063300063205061696E7400546578740000000039
:106340004D656E75000000004E6F746963652062D4
:106350006F7800005661726961626C6520626F78C7
:106360000000000053756220310000004974656D23
:106370002031000053756220320000004974656DC1
:106380002032000053756220330000004974656DAF
:106390002033000053756220340000004974656D9D
:1063A000203400004974656D203500004974656D26
:1063B000203600004974656D203700004974656D12
:1063C0002038000050726573732054414220746F6E
:1063D0002073776974636820666F6375732E0A553E
:1063E0007026446F776E20746F206368616E6765F6
:1063F0002076616C75652E0A53656E6420225350B9
:106400004143452220746F20636F6E74696E756519
:106410002E000000386400080000002094030000F3
:10642000D4010008E06500089403002074190000FE
:106430003002000801EAFFFF41320182109324F488
:1064400013C51414081B151B08F5081AB10423ED15
:106450000322184220136D161C0869171812181B06
:106460000881081A55041AF1205A382013800114A3
:106470002010031B20680413F0021B2064041A84FC
:10648000041A2C201A4C041AA40C1A881C297C13F8
:106490002C63C208DA3810DA5410DA1C10DA401013
:1064A000DA4810DA0C10CBC46210410A11D0140A79
:1064B00011DC140A11E8140A11F41411D9744113EF
:1064C000E5191408C51A1408911C1B08D5081A39B7
:1064D0000423EB03136C01422013640EDB206C38A1
:1064E000DA7C10DA8C10DA9C10DAA410DAAC10DA4C
:1064F000B410DABC10DA6410DA7410DA8410DA94AA
:10650000101AA1DC1AED04131D1E1408191D1B0816
:10651000DD0C1AF0E44B5002E41A31181A6D041A1B
:10652000E5041AB9041A59041AEC205A70204113D0
:10653000171F1B0853041A2D041AFD201AF2205AA3
:106540009020323236CEFFFFFF01191751290C324D
:10655000092A7E603113680F1B20B0301A6D402A63
:10656000A14812201B08D5081A85041AEF359ADCB9
:106570006C1305211B08B1041A65041ADD281AEAF8
:10658000205AFC201345031B20C4E072051019415A
:106590004243444546473132333435363738393053
:1065A0002B2D2A2F4F5051300D5661726961626C4C
:1065B0006520626F7813F12314088D241C08892646
:1065C0007819081A6D041AEE581A5450811A357049
:1065D00013E9221B088B081AF1781AF3205A742049
:040000050800019955
:00000001FF
